{
  "contractName": "Campaign",
  "abi": [
    {
      "anonymous": false,
      "inputs": [
        {
          "indexed": true,
          "internalType": "contract Campaign",
          "name": "campaign",
          "type": "address"
        },
        {
          "indexed": false,
          "internalType": "uint256",
          "name": "time",
          "type": "uint256"
        },
        {
          "indexed": false,
          "internalType": "address",
          "name": "sender",
          "type": "address"
        }
      ],
      "name": "CampaignDeadlineExtended",
      "type": "event"
    },
    {
      "anonymous": false,
      "inputs": [
        {
          "indexed": true,
          "internalType": "contract Campaign",
          "name": "campaign",
          "type": "address"
        },
        {
          "indexed": false,
          "internalType": "address",
          "name": "user",
          "type": "address"
        },
        {
          "indexed": false,
          "internalType": "address",
          "name": "sender",
          "type": "address"
        }
      ],
      "name": "CampaignOwnerSet",
      "type": "event"
    },
    {
      "anonymous": false,
      "inputs": [
        {
          "indexed": true,
          "internalType": "contract Campaign",
          "name": "campaign",
          "type": "address"
        },
        {
          "indexed": false,
          "internalType": "address",
          "name": "newUser",
          "type": "address"
        },
        {
          "indexed": false,
          "internalType": "address",
          "name": "sender",
          "type": "address"
        }
      ],
      "name": "CampaignOwnershipTransferred",
      "type": "event"
    },
    {
      "anonymous": false,
      "inputs": [
        {
          "indexed": true,
          "internalType": "contract Campaign",
          "name": "campaign",
          "type": "address"
        },
        {
          "indexed": false,
          "internalType": "address",
          "name": "sender",
          "type": "address"
        }
      ],
      "name": "CampaignReported",
      "type": "event"
    },
    {
      "anonymous": false,
      "inputs": [
        {
          "indexed": true,
          "internalType": "contract Campaign",
          "name": "campaign",
          "type": "address"
        },
        {
          "indexed": false,
          "internalType": "address",
          "name": "sender",
          "type": "address"
        }
      ],
      "name": "CampaignReviewed",
      "type": "event"
    },
    {
      "anonymous": false,
      "inputs": [
        {
          "indexed": true,
          "internalType": "contract Campaign",
          "name": "campaign",
          "type": "address"
        },
        {
          "indexed": false,
          "internalType": "uint256",
          "name": "minimumContribution",
          "type": "uint256"
        },
        {
          "indexed": false,
          "internalType": "uint256",
          "name": "deadline",
          "type": "uint256"
        },
        {
          "indexed": false,
          "internalType": "uint256",
          "name": "goalType",
          "type": "uint256"
        },
        {
          "indexed": false,
          "internalType": "address",
          "name": "token",
          "type": "address"
        },
        {
          "indexed": false,
          "internalType": "address",
          "name": "sender",
          "type": "address"
        }
      ],
      "name": "CampaignSettingsUpdated",
      "type": "event"
    },
    {
      "anonymous": false,
      "inputs": [
        {
          "indexed": true,
          "internalType": "contract Campaign",
          "name": "campaign",
          "type": "address"
        },
        {
          "indexed": false,
          "internalType": "enum Campaign.CAMPAIGN_STATE",
          "name": "state",
          "type": "uint8"
        },
        {
          "indexed": false,
          "internalType": "address",
          "name": "sender",
          "type": "address"
        }
      ],
      "name": "CampaignStateChange",
      "type": "event"
    },
    {
      "anonymous": false,
      "inputs": [
        {
          "indexed": true,
          "internalType": "contract Campaign",
          "name": "campaign",
          "type": "address"
        },
        {
          "indexed": false,
          "internalType": "address",
          "name": "oldAddress",
          "type": "address"
        },
        {
          "indexed": false,
          "internalType": "address",
          "name": "newAddress",
          "type": "address"
        },
        {
          "indexed": false,
          "internalType": "address",
          "name": "sender",
          "type": "address"
        }
      ],
      "name": "CampaignUserDataTransferred",
      "type": "event"
    },
    {
      "anonymous": false,
      "inputs": [
        {
          "indexed": true,
          "internalType": "contract Campaign",
          "name": "campaign",
          "type": "address"
        },
        {
          "indexed": false,
          "internalType": "uint256",
          "name": "amount",
          "type": "uint256"
        },
        {
          "indexed": true,
          "internalType": "uint256",
          "name": "rewardId",
          "type": "uint256"
        },
        {
          "indexed": false,
          "internalType": "bool",
          "name": "withReward",
          "type": "bool"
        },
        {
          "indexed": false,
          "internalType": "address",
          "name": "sender",
          "type": "address"
        }
      ],
      "name": "ContributionMade",
      "type": "event"
    },
    {
      "anonymous": false,
      "inputs": [
        {
          "indexed": true,
          "internalType": "contract Campaign",
          "name": "campaign",
          "type": "address"
        },
        {
          "indexed": false,
          "internalType": "uint256",
          "name": "amount",
          "type": "uint256"
        },
        {
          "indexed": false,
          "internalType": "address",
          "name": "user",
          "type": "address"
        },
        {
          "indexed": false,
          "internalType": "address",
          "name": "sender",
          "type": "address"
        }
      ],
      "name": "ContributionWithdrawn",
      "type": "event"
    },
    {
      "anonymous": false,
      "inputs": [
        {
          "indexed": false,
          "internalType": "address",
          "name": "account",
          "type": "address"
        }
      ],
      "name": "Paused",
      "type": "event"
    },
    {
      "anonymous": false,
      "inputs": [
        {
          "indexed": true,
          "internalType": "uint256",
          "name": "requestId",
          "type": "uint256"
        },
        {
          "indexed": true,
          "internalType": "contract Campaign",
          "name": "campaign",
          "type": "address"
        },
        {
          "indexed": false,
          "internalType": "uint256",
          "name": "duration",
          "type": "uint256"
        },
        {
          "indexed": false,
          "internalType": "uint256",
          "name": "value",
          "type": "uint256"
        },
        {
          "indexed": false,
          "internalType": "address",
          "name": "recipient",
          "type": "address"
        },
        {
          "indexed": false,
          "internalType": "address",
          "name": "sender",
          "type": "address"
        }
      ],
      "name": "RequestAdded",
      "type": "event"
    },
    {
      "anonymous": false,
      "inputs": [
        {
          "indexed": true,
          "internalType": "uint256",
          "name": "requestId",
          "type": "uint256"
        },
        {
          "indexed": true,
          "internalType": "contract Campaign",
          "name": "campaign",
          "type": "address"
        },
        {
          "indexed": false,
          "internalType": "address",
          "name": "sender",
          "type": "address"
        }
      ],
      "name": "RequestComplete",
      "type": "event"
    },
    {
      "anonymous": false,
      "inputs": [
        {
          "indexed": true,
          "internalType": "uint256",
          "name": "requestId",
          "type": "uint256"
        },
        {
          "indexed": true,
          "internalType": "contract Campaign",
          "name": "campaign",
          "type": "address"
        },
        {
          "indexed": false,
          "internalType": "address",
          "name": "sender",
          "type": "address"
        }
      ],
      "name": "RequestVoided",
      "type": "event"
    },
    {
      "anonymous": false,
      "inputs": [
        {
          "indexed": true,
          "internalType": "bytes32",
          "name": "role",
          "type": "bytes32"
        },
        {
          "indexed": true,
          "internalType": "bytes32",
          "name": "previousAdminRole",
          "type": "bytes32"
        },
        {
          "indexed": true,
          "internalType": "bytes32",
          "name": "newAdminRole",
          "type": "bytes32"
        }
      ],
      "name": "RoleAdminChanged",
      "type": "event"
    },
    {
      "anonymous": false,
      "inputs": [
        {
          "indexed": true,
          "internalType": "bytes32",
          "name": "role",
          "type": "bytes32"
        },
        {
          "indexed": true,
          "internalType": "address",
          "name": "account",
          "type": "address"
        },
        {
          "indexed": true,
          "internalType": "address",
          "name": "sender",
          "type": "address"
        }
      ],
      "name": "RoleGranted",
      "type": "event"
    },
    {
      "anonymous": false,
      "inputs": [
        {
          "indexed": true,
          "internalType": "bytes32",
          "name": "role",
          "type": "bytes32"
        },
        {
          "indexed": true,
          "internalType": "address",
          "name": "account",
          "type": "address"
        },
        {
          "indexed": true,
          "internalType": "address",
          "name": "sender",
          "type": "address"
        }
      ],
      "name": "RoleRevoked",
      "type": "event"
    },
    {
      "anonymous": false,
      "inputs": [
        {
          "indexed": true,
          "internalType": "contract Campaign",
          "name": "campaign",
          "type": "address"
        },
        {
          "indexed": false,
          "internalType": "uint256",
          "name": "amount",
          "type": "uint256"
        },
        {
          "indexed": false,
          "internalType": "address",
          "name": "sender",
          "type": "address"
        }
      ],
      "name": "TargetMet",
      "type": "event"
    },
    {
      "anonymous": false,
      "inputs": [
        {
          "indexed": false,
          "internalType": "address",
          "name": "account",
          "type": "address"
        }
      ],
      "name": "Unpaused",
      "type": "event"
    },
    {
      "anonymous": false,
      "inputs": [
        {
          "indexed": true,
          "internalType": "uint256",
          "name": "requestId",
          "type": "uint256"
        },
        {
          "indexed": false,
          "internalType": "uint8",
          "name": "support",
          "type": "uint8"
        },
        {
          "indexed": true,
          "internalType": "contract Campaign",
          "name": "campaign",
          "type": "address"
        },
        {
          "indexed": false,
          "internalType": "address",
          "name": "sender",
          "type": "address"
        }
      ],
      "name": "VoteCancelled",
      "type": "event"
    },
    {
      "anonymous": false,
      "inputs": [
        {
          "indexed": true,
          "internalType": "uint256",
          "name": "requestId",
          "type": "uint256"
        },
        {
          "indexed": false,
          "internalType": "uint8",
          "name": "support",
          "type": "uint8"
        },
        {
          "indexed": true,
          "internalType": "contract Campaign",
          "name": "campaign",
          "type": "address"
        },
        {
          "indexed": false,
          "internalType": "address",
          "name": "sender",
          "type": "address"
        }
      ],
      "name": "Voted",
      "type": "event"
    },
    {
      "inputs": [],
      "name": "DEFAULT_ADMIN_ROLE",
      "outputs": [
        {
          "internalType": "bytes32",
          "name": "",
          "type": "bytes32"
        }
      ],
      "stateMutability": "view",
      "type": "function"
    },
    {
      "inputs": [],
      "name": "acceptedToken",
      "outputs": [
        {
          "internalType": "address",
          "name": "",
          "type": "address"
        }
      ],
      "stateMutability": "view",
      "type": "function"
    },
    {
      "inputs": [],
      "name": "allowContributionAfterTargetIsMet",
      "outputs": [
        {
          "internalType": "bool",
          "name": "",
          "type": "bool"
        }
      ],
      "stateMutability": "view",
      "type": "function"
    },
    {
      "inputs": [
        {
          "internalType": "address",
          "name": "",
          "type": "address"
        }
      ],
      "name": "approvers",
      "outputs": [
        {
          "internalType": "bool",
          "name": "",
          "type": "bool"
        }
      ],
      "stateMutability": "view",
      "type": "function"
    },
    {
      "inputs": [],
      "name": "approversCount",
      "outputs": [
        {
          "internalType": "uint256",
          "name": "",
          "type": "uint256"
        }
      ],
      "stateMutability": "view",
      "type": "function"
    },
    {
      "inputs": [],
      "name": "campaignBalance",
      "outputs": [
        {
          "internalType": "uint256",
          "name": "",
          "type": "uint256"
        }
      ],
      "stateMutability": "view",
      "type": "function"
    },
    {
      "inputs": [],
      "name": "campaignFactoryContract",
      "outputs": [
        {
          "internalType": "contract CampaignFactoryInterface",
          "name": "",
          "type": "address"
        }
      ],
      "stateMutability": "view",
      "type": "function"
    },
    {
      "inputs": [],
      "name": "campaignID",
      "outputs": [
        {
          "internalType": "uint256",
          "name": "",
          "type": "uint256"
        }
      ],
      "stateMutability": "view",
      "type": "function"
    },
    {
      "inputs": [],
      "name": "campaignState",
      "outputs": [
        {
          "internalType": "enum Campaign.CAMPAIGN_STATE",
          "name": "",
          "type": "uint8"
        }
      ],
      "stateMutability": "view",
      "type": "function"
    },
    {
      "inputs": [],
      "name": "currentRunningRequest",
      "outputs": [
        {
          "internalType": "uint256",
          "name": "",
          "type": "uint256"
        }
      ],
      "stateMutability": "view",
      "type": "function"
    },
    {
      "inputs": [],
      "name": "deadline",
      "outputs": [
        {
          "internalType": "uint256",
          "name": "",
          "type": "uint256"
        }
      ],
      "stateMutability": "view",
      "type": "function"
    },
    {
      "inputs": [],
      "name": "deadlineSetTimes",
      "outputs": [
        {
          "internalType": "uint256",
          "name": "",
          "type": "uint256"
        }
      ],
      "stateMutability": "view",
      "type": "function"
    },
    {
      "inputs": [],
      "name": "finalizedRequestCount",
      "outputs": [
        {
          "internalType": "uint256",
          "name": "",
          "type": "uint256"
        }
      ],
      "stateMutability": "view",
      "type": "function"
    },
    {
      "inputs": [
        {
          "internalType": "bytes32",
          "name": "role",
          "type": "bytes32"
        }
      ],
      "name": "getRoleAdmin",
      "outputs": [
        {
          "internalType": "bytes32",
          "name": "",
          "type": "bytes32"
        }
      ],
      "stateMutability": "view",
      "type": "function"
    },
    {
      "inputs": [],
      "name": "goalType",
      "outputs": [
        {
          "internalType": "enum Campaign.GOALTYPE",
          "name": "",
          "type": "uint8"
        }
      ],
      "stateMutability": "view",
      "type": "function"
    },
    {
      "inputs": [
        {
          "internalType": "bytes32",
          "name": "role",
          "type": "bytes32"
        },
        {
          "internalType": "address",
          "name": "account",
          "type": "address"
        }
      ],
      "name": "grantRole",
      "outputs": [],
      "stateMutability": "nonpayable",
      "type": "function"
    },
    {
      "inputs": [
        {
          "internalType": "bytes32",
          "name": "role",
          "type": "bytes32"
        },
        {
          "internalType": "address",
          "name": "account",
          "type": "address"
        }
      ],
      "name": "hasRole",
      "outputs": [
        {
          "internalType": "bool",
          "name": "",
          "type": "bool"
        }
      ],
      "stateMutability": "view",
      "type": "function"
    },
    {
      "inputs": [
        {
          "internalType": "uint256",
          "name": "",
          "type": "uint256"
        },
        {
          "internalType": "address",
          "name": "",
          "type": "address"
        }
      ],
      "name": "hasVoted",
      "outputs": [
        {
          "internalType": "bool",
          "name": "",
          "type": "bool"
        }
      ],
      "stateMutability": "view",
      "type": "function"
    },
    {
      "inputs": [],
      "name": "minimumContribution",
      "outputs": [
        {
          "internalType": "uint256",
          "name": "",
          "type": "uint256"
        }
      ],
      "stateMutability": "view",
      "type": "function"
    },
    {
      "inputs": [],
      "name": "paused",
      "outputs": [
        {
          "internalType": "bool",
          "name": "",
          "type": "bool"
        }
      ],
      "stateMutability": "view",
      "type": "function"
    },
    {
      "inputs": [
        {
          "internalType": "bytes32",
          "name": "role",
          "type": "bytes32"
        },
        {
          "internalType": "address",
          "name": "account",
          "type": "address"
        }
      ],
      "name": "renounceRole",
      "outputs": [],
      "stateMutability": "nonpayable",
      "type": "function"
    },
    {
      "inputs": [],
      "name": "reportCount",
      "outputs": [
        {
          "internalType": "uint256",
          "name": "",
          "type": "uint256"
        }
      ],
      "stateMutability": "view",
      "type": "function"
    },
    {
      "inputs": [
        {
          "internalType": "address",
          "name": "",
          "type": "address"
        }
      ],
      "name": "reported",
      "outputs": [
        {
          "internalType": "bool",
          "name": "",
          "type": "bool"
        }
      ],
      "stateMutability": "view",
      "type": "function"
    },
    {
      "inputs": [],
      "name": "requestCount",
      "outputs": [
        {
          "internalType": "uint256",
          "name": "",
          "type": "uint256"
        }
      ],
      "stateMutability": "view",
      "type": "function"
    },
    {
      "inputs": [
        {
          "internalType": "uint256",
          "name": "",
          "type": "uint256"
        },
        {
          "internalType": "address",
          "name": "",
          "type": "address"
        }
      ],
      "name": "requestSupport",
      "outputs": [
        {
          "internalType": "uint8",
          "name": "",
          "type": "uint8"
        }
      ],
      "stateMutability": "view",
      "type": "function"
    },
    {
      "inputs": [
        {
          "internalType": "uint256",
          "name": "",
          "type": "uint256"
        }
      ],
      "name": "requests",
      "outputs": [
        {
          "internalType": "address payable",
          "name": "recipient",
          "type": "address"
        },
        {
          "internalType": "bool",
          "name": "complete",
          "type": "bool"
        },
        {
          "internalType": "uint256",
          "name": "value",
          "type": "uint256"
        },
        {
          "internalType": "uint256",
          "name": "approvalCount",
          "type": "uint256"
        },
        {
          "internalType": "uint256",
          "name": "againstCount",
          "type": "uint256"
        },
        {
          "internalType": "uint256",
          "name": "abstainedCount",
          "type": "uint256"
        },
        {
          "internalType": "uint256",
          "name": "duration",
          "type": "uint256"
        },
        {
          "internalType": "bool",
          "name": "void",
          "type": "bool"
        }
      ],
      "stateMutability": "view",
      "type": "function"
    },
    {
      "inputs": [],
      "name": "reviewCount",
      "outputs": [
        {
          "internalType": "uint256",
          "name": "",
          "type": "uint256"
        }
      ],
      "stateMutability": "view",
      "type": "function"
    },
    {
      "inputs": [
        {
          "internalType": "address",
          "name": "",
          "type": "address"
        }
      ],
      "name": "reviewed",
      "outputs": [
        {
          "internalType": "bool",
          "name": "",
          "type": "bool"
        }
      ],
      "stateMutability": "view",
      "type": "function"
    },
    {
      "inputs": [
        {
          "internalType": "bytes32",
          "name": "role",
          "type": "bytes32"
        },
        {
          "internalType": "address",
          "name": "account",
          "type": "address"
        }
      ],
      "name": "revokeRole",
      "outputs": [],
      "stateMutability": "nonpayable",
      "type": "function"
    },
    {
      "inputs": [],
      "name": "root",
      "outputs": [
        {
          "internalType": "address",
          "name": "",
          "type": "address"
        }
      ],
      "stateMutability": "view",
      "type": "function"
    },
    {
      "inputs": [
        {
          "internalType": "bytes4",
          "name": "interfaceId",
          "type": "bytes4"
        }
      ],
      "name": "supportsInterface",
      "outputs": [
        {
          "internalType": "bool",
          "name": "",
          "type": "bool"
        }
      ],
      "stateMutability": "view",
      "type": "function"
    },
    {
      "inputs": [],
      "name": "target",
      "outputs": [
        {
          "internalType": "uint256",
          "name": "",
          "type": "uint256"
        }
      ],
      "stateMutability": "view",
      "type": "function"
    },
    {
      "inputs": [],
      "name": "totalCampaignContribution",
      "outputs": [
        {
          "internalType": "uint256",
          "name": "",
          "type": "uint256"
        }
      ],
      "stateMutability": "view",
      "type": "function"
    },
    {
      "inputs": [
        {
          "internalType": "address",
          "name": "",
          "type": "address"
        }
      ],
      "name": "userContributionWithdrawn",
      "outputs": [
        {
          "internalType": "bool",
          "name": "",
          "type": "bool"
        }
      ],
      "stateMutability": "view",
      "type": "function"
    },
    {
      "inputs": [
        {
          "internalType": "address",
          "name": "",
          "type": "address"
        }
      ],
      "name": "userTotalContribution",
      "outputs": [
        {
          "internalType": "uint256",
          "name": "",
          "type": "uint256"
        }
      ],
      "stateMutability": "view",
      "type": "function"
    },
    {
      "inputs": [],
      "name": "withdrawalsPaused",
      "outputs": [
        {
          "internalType": "bool",
          "name": "",
          "type": "bool"
        }
      ],
      "stateMutability": "view",
      "type": "function"
    },
    {
      "inputs": [
        {
          "internalType": "contract CampaignFactory",
          "name": "_campaignFactory",
          "type": "address"
        },
        {
          "internalType": "contract CampaignRewards",
          "name": "_camaignRewards",
          "type": "address"
        },
        {
          "internalType": "address",
          "name": "_root",
          "type": "address"
        },
        {
          "internalType": "uint256",
          "name": "_campaignId",
          "type": "uint256"
        }
      ],
      "name": "__Campaign_init",
      "outputs": [],
      "stateMutability": "nonpayable",
      "type": "function"
    },
    {
      "inputs": [
        {
          "internalType": "address",
          "name": "_newRoot",
          "type": "address"
        }
      ],
      "name": "transferCampaignOwnership",
      "outputs": [],
      "stateMutability": "nonpayable",
      "type": "function"
    },
    {
      "inputs": [
        {
          "internalType": "address",
          "name": "_oldAddress",
          "type": "address"
        },
        {
          "internalType": "address",
          "name": "_newAddress",
          "type": "address"
        }
      ],
      "name": "transferCampaignUserData",
      "outputs": [],
      "stateMutability": "nonpayable",
      "type": "function"
    },
    {
      "inputs": [
        {
          "internalType": "uint256",
          "name": "_target",
          "type": "uint256"
        },
        {
          "internalType": "uint256",
          "name": "_minimumContribution",
          "type": "uint256"
        },
        {
          "internalType": "uint256",
          "name": "_duration",
          "type": "uint256"
        },
        {
          "internalType": "uint256",
          "name": "_goalType",
          "type": "uint256"
        },
        {
          "internalType": "address",
          "name": "_token",
          "type": "address"
        },
        {
          "internalType": "bool",
          "name": "_allowContributionAfterTargetIsMet",
          "type": "bool"
        }
      ],
      "name": "setCampaignSettings",
      "outputs": [],
      "stateMutability": "nonpayable",
      "type": "function"
    },
    {
      "inputs": [
        {
          "internalType": "uint256",
          "name": "_time",
          "type": "uint256"
        }
      ],
      "name": "extendDeadline",
      "outputs": [],
      "stateMutability": "nonpayable",
      "type": "function"
    },
    {
      "inputs": [
        {
          "internalType": "uint8",
          "name": "_count",
          "type": "uint8"
        }
      ],
      "name": "setDeadlineSetTimes",
      "outputs": [],
      "stateMutability": "nonpayable",
      "type": "function"
    },
    {
      "inputs": [
        {
          "internalType": "address",
          "name": "_token",
          "type": "address"
        },
        {
          "internalType": "uint256",
          "name": "_rewardId",
          "type": "uint256"
        },
        {
          "internalType": "bool",
          "name": "_withReward",
          "type": "bool"
        }
      ],
      "name": "contribute",
      "outputs": [],
      "stateMutability": "payable",
      "type": "function"
    },
    {
      "inputs": [
        {
          "internalType": "address payable",
          "name": "_wallet",
          "type": "address"
        }
      ],
      "name": "withdrawOwnContribution",
      "outputs": [],
      "stateMutability": "nonpayable",
      "type": "function"
    },
    {
      "inputs": [
        {
          "internalType": "address",
          "name": "_user",
          "type": "address"
        },
        {
          "internalType": "address payable",
          "name": "_wallet",
          "type": "address"
        }
      ],
      "name": "withdrawContributionForUser",
      "outputs": [],
      "stateMutability": "nonpayable",
      "type": "function"
    },
    {
      "inputs": [
        {
          "internalType": "address",
          "name": "_user",
          "type": "address"
        }
      ],
      "name": "userContributionLoss",
      "outputs": [
        {
          "internalType": "uint256",
          "name": "",
          "type": "uint256"
        }
      ],
      "stateMutability": "view",
      "type": "function"
    },
    {
      "inputs": [
        {
          "internalType": "address payable",
          "name": "_recipient",
          "type": "address"
        },
        {
          "internalType": "uint256",
          "name": "_value",
          "type": "uint256"
        },
        {
          "internalType": "uint256",
          "name": "_duration",
          "type": "uint256"
        }
      ],
      "name": "createRequest",
      "outputs": [],
      "stateMutability": "nonpayable",
      "type": "function"
    },
    {
      "inputs": [
        {
          "internalType": "uint256",
          "name": "_requestId",
          "type": "uint256"
        }
      ],
      "name": "voidRequest",
      "outputs": [],
      "stateMutability": "nonpayable",
      "type": "function"
    },
    {
      "inputs": [
        {
          "internalType": "uint256",
          "name": "_requestId",
          "type": "uint256"
        },
        {
          "internalType": "uint8",
          "name": "_support",
          "type": "uint8"
        }
      ],
      "name": "voteOnRequest",
      "outputs": [],
      "stateMutability": "nonpayable",
      "type": "function"
    },
    {
      "inputs": [
        {
          "internalType": "uint256",
          "name": "_requestId",
          "type": "uint256"
        }
      ],
      "name": "cancelVote",
      "outputs": [],
      "stateMutability": "nonpayable",
      "type": "function"
    },
    {
      "inputs": [
        {
          "internalType": "uint256",
          "name": "_requestId",
          "type": "uint256"
        }
      ],
      "name": "finalizeRequest",
      "outputs": [],
      "stateMutability": "nonpayable",
      "type": "function"
    },
    {
      "inputs": [],
      "name": "reviewMode",
      "outputs": [],
      "stateMutability": "nonpayable",
      "type": "function"
    },
    {
      "inputs": [],
      "name": "reviewCampaignPerformance",
      "outputs": [],
      "stateMutability": "nonpayable",
      "type": "function"
    },
    {
      "inputs": [],
      "name": "markCampaignComplete",
      "outputs": [],
      "stateMutability": "nonpayable",
      "type": "function"
    },
    {
      "inputs": [],
      "name": "reportCampaign",
      "outputs": [],
      "stateMutability": "nonpayable",
      "type": "function"
    },
    {
      "inputs": [
        {
          "internalType": "uint256",
          "name": "_state",
          "type": "uint256"
        }
      ],
      "name": "setCampaignState",
      "outputs": [],
      "stateMutability": "nonpayable",
      "type": "function"
    },
    {
      "inputs": [
        {
          "internalType": "bool",
          "name": "_state",
          "type": "bool"
        }
      ],
      "name": "toggleWithdrawalState",
      "outputs": [],
      "stateMutability": "nonpayable",
      "type": "function"
    },
    {
      "inputs": [],
      "name": "unpauseCampaign",
      "outputs": [],
      "stateMutability": "nonpayable",
      "type": "function"
    },
    {
      "inputs": [],
      "name": "pauseCampaign",
      "outputs": [],
      "stateMutability": "nonpayable",
      "type": "function"
    }
  ],
  "bytecode": "0x608060405234801561001057600080fd5b50615fbe80620000216000396000f3fe60806040526004361061029c5760003560e01c806301ffc9a7146102a157806303441006146102d75780630a144391146102f95780630d10f3b514610319578063185c6f841461032e5780631c8e541b146103505780631f93da2514610365578063248a9ca31461037a57806329dcb0cf1461039a5780632f2ff15d146103af57806334d71e17146103cf57806336568abe146103e457806336cb958814610404578063389b75331461042457806338c21911146104445780633eaa91f51461047157806343519c481461049157806343859632146104b157806343a1a776146104d1578063451c3d80146104e657806349ed2fa91461050857806357414c371461051d5780635a4a7939146105325780635badbe4c146105525780635c975abb146105675780636c0ddc121461057c578063714bf908146105915780637178f036146105b15780637e0f9dd1146105d157806381d12c58146105e657806382fde0931461061a57806383bcbc4b1461062f578063883c46f01461064f57806388a315411461066f5780638ef9af721461068f57806391d14854146106a4578063937e09b1146106c457806394a91de8146106d957806395cbd157146106ec578063984076471461070e578063a217fddf1461072e578063a32d646914610743578063a364008a14610763578063b3035efa14610783578063bacbe2da146107a3578063d2411d19146107c3578063d2a8f6a4146107d8578063d4b83992146107ed578063d547741f14610802578063d753ca7c14610822578063d75c3cb714610842578063e9f2838e14610862578063ebf0c71714610877578063ebf524091461088c578063efbb53c9146108a1578063eff5924f146108c1578063f3f08015146108d6578063f4c9b1fd146108f6578063fc7a96a014610918575b600080fd5b3480156102ad57600080fd5b506102c16102bc3660046150bb565b61092d565b6040516102ce919061535d565b60405180910390f35b3480156102e357600080fd5b506102f76102f236600461507f565b61095a565b005b34801561030557600080fd5b506102c1610314366004614e65565b610d9f565b34801561032557600080fd5b506102f7610db5565b34801561033a57600080fd5b50610343610e1c565b6040516102ce9190615368565b34801561035c57600080fd5b506102f7610e23565b34801561037157600080fd5b50610343610e87565b34801561038657600080fd5b5061034361039536600461507f565b610e8e565b3480156103a657600080fd5b50610343610ea3565b3480156103bb57600080fd5b506102f76103ca366004615097565b610eaa565b3480156103db57600080fd5b506102f7610ed3565b3480156103f057600080fd5b506102f76103ff366004615097565b611124565b34801561041057600080fd5b506102f761041f36600461507f565b61116a565b34801561043057600080fd5b506102f761043f36600461507f565b61123d565b34801561045057600080fd5b5061046461045f366004615097565b611505565b6040516102ce9190615e02565b34801561047d57600080fd5b506102c161048c366004614e65565b611525565b34801561049d57600080fd5b506102f76104ac366004614ed1565b61153b565b3480156104bd57600080fd5b506102c16104cc366004615097565b6115c6565b3480156104dd57600080fd5b506103436115e6565b3480156104f257600080fd5b506104fb6115ed565b6040516102ce919061528c565b34801561051457600080fd5b506103436115fd565b34801561052957600080fd5b50610343611604565b34801561053e57600080fd5b506102f761054d3660046151d3565b61160b565b34801561055e57600080fd5b506103436116c8565b34801561057357600080fd5b506102c16116cf565b34801561058857600080fd5b506102f76116d8565b34801561059d57600080fd5b506102c16105ac366004614e65565b6119a4565b3480156105bd57600080fd5b506102f76105cc3660046151a8565b6119ba565b3480156105dd57600080fd5b506104fb611daa565b3480156105f257600080fd5b5061060661060136600461507f565b611dbf565b6040516102ce9897969594939291906152a0565b34801561062657600080fd5b50610343611e26565b34801561063b57600080fd5b506102f761064a3660046150e3565b611e2d565b34801561065b57600080fd5b506102f761066a366004615047565b611fa4565b34801561067b57600080fd5b506102f761068a366004614ed1565b611ffb565b34801561069b57600080fd5b50610343612207565b3480156106b057600080fd5b506102c16106bf366004615097565b61220e565b3480156106d057600080fd5b5061034361223b565b6102f76106e7366004614fa5565b612242565b3480156106f857600080fd5b50610701612602565b6040516102ce91906153a5565b34801561071a57600080fd5b506102f7610729366004614e65565b61260b565b34801561073a57600080fd5b50610343612701565b34801561074f57600080fd5b506102c161075e366004614e65565b612706565b34801561076f57600080fd5b506102f761077e36600461507f565b61271c565b34801561078f57600080fd5b506102f761079e36600461514b565b61295d565b3480156107af57600080fd5b506102f76107be36600461507f565b612d5c565b3480156107cf57600080fd5b50610343613107565b3480156107e457600080fd5b506102f761310e565b3480156107f957600080fd5b506103436132d5565b34801561080e57600080fd5b506102f761081d366004615097565b6132dc565b34801561082e57600080fd5b5061034361083d366004614e65565b6132fb565b34801561084e57600080fd5b5061034361085d366004614e65565b61330e565b34801561086e57600080fd5b506102c16133ba565b34801561088357600080fd5b506104fb6133cb565b34801561089857600080fd5b506102f76133db565b3480156108ad57600080fd5b506102f76108bc366004614e65565b6135ea565b3480156108cd57600080fd5b50610343613681565b3480156108e257600080fd5b506102f76108f1366004614e9d565b613688565b34801561090257600080fd5b5061090b613bd3565b6040516102ce9190615371565b34801561092457600080fd5b506102c1613be1565b60006001600160e01b03198216637965db0b60e01b1480610952575061095282613bf2565b90505b919050565b60fb54610976906201000090046001600160a01b031633613c0b565b80610987575061098760003361220e565b6109ac5760405162461bcd60e51b81526004016109a390615b19565b60405180910390fd5b6000806109d160fb60029054906101000a90046001600160a01b031661010654613c91565b909550935084925050811590506109e55750805b610a015760405162461bcd60e51b81526004016109a390615559565b336000610a2360fb60029054906101000a90046001600160a01b031683613d64565b9150819050610a445760405162461bcd60e51b81526004016109a3906153f2565b610a4c6116cf565b15610a695760405162461bcd60e51b81526004016109a39061577b565b600260c9541415610a8c5760405162461bcd60e51b81526004016109a390615c60565b600260c981905550600060ff8681548110610ab757634e487b7160e01b600052603260045260246000fd5b906000526020600020906007020190506000610af6610aed610adc8460020154613eb3565b610ae861010a54613eb3565b613ecd565b61010554613ef7565b90506033610b0f81676765c793fa10079d601b1b613f11565b82511015610b2f5760405162461bcd60e51b81526004016109a390615a3c565b8254600160a01b900460ff1615610b585760405162461bcd60e51b81526004016109a390615758565b6000610b95610b8b610b8260fb60029054906101000a90046001600160a01b031661010654613f1d565b610105546140b0565b8560010154613ef7565b905060006040518060400160405280610bbf846000015188600101546140ca90919063ffffffff16565b8152835160209182015260408051808201825288546001600160a01b03908116825260fb548351632066534160e21b8152935195965060009592948581019462010000909204909216926381994d0492600480840193919291829003018186803b158015610c2c57600080fd5b505afa158015610c40573d6000803e3d6000fd5b505050506040513d601f19601f82011682018060405250810190610c649190614e81565b6001600160a01b03169052865460ff60a01b1916600160a01b17875561010e54909150610c929060016140d6565b61010e55600186015461010854610ca8916140ca565b6101085560fb548351610ccc916201000090046001600160a01b03169030906140e2565b60005b6002811015610d4a5761010454610d38906001600160a01b0316838360028110610d0957634e487b7160e01b600052603260045260246000fd5b6020020151858460028110610d2e57634e487b7160e01b600052603260045260246000fd5b6020020151614147565b80610d4281615ed1565b915050610ccf565b50306001600160a01b03168b7fe559d259d098ebbfbb482cbf5ee3dc8452f8bc546a17e55414ce84db017338d633604051610d85919061528c565b60405180910390a35050600160c955505050505050505050565b6101116020526000908152604090205460ff1681565b610dbd6116cf565b15610dda5760405162461bcd60e51b81526004016109a39061577b565b60fb54610df6906201000090046001600160a01b031633613c0b565b610e125760405162461bcd60e51b81526004016109a390615675565b610e1a61419d565b565b6101105481565b610e2b6116cf565b610e475760405162461bcd60e51b81526004016109a39061549a565b60fb54610e63906201000090046001600160a01b031633613c0b565b610e7f5760405162461bcd60e51b81526004016109a390615675565b610e1a61420f565b61010e5481565b60009081526065602052604090206001015490565b61010c5481565b610eb382610e8e565b610ec481610ebf614262565b614266565b610ece83836142ca565b505050565b60fb54610eef906201000090046001600160a01b031633613c0b565b80610f005750610f0060003361220e565b610f1c5760405162461bcd60e51b81526004016109a390615b19565b600080610f4160fb60029054906101000a90046001600160a01b031661010654613c91565b90955093508492505081159050610f555750805b610f715760405162461bcd60e51b81526004016109a390615559565b336000610f9360fb60029054906101000a90046001600160a01b031683613d64565b9150819050610fb45760405162461bcd60e51b81526004016109a3906153f2565b610fbc6116cf565b15610fd95760405162461bcd60e51b81526004016109a39061577b565b600260fb54610100900460ff16600581111561100557634e487b7160e01b600052602160045260246000fd5b148061103a5750600160fb54610100900460ff16600581111561103857634e487b7160e01b600052602160045260246000fd5b145b6110565760405162461bcd60e51b81526004016109a39061591a565b600161010e54101561107a5760405162461bcd60e51b81526004016109a39061552a565b60ff61010f548154811061109e57634e487b7160e01b600052603260045260246000fd5b6000918252602090912060079091020154600160a01b900460ff166110d55760405162461bcd60e51b81526004016109a39061593f565b60fb805461ff0019166103001790556110ec61419d565b306001600160a01b0316600080516020615f6983398151915260033360405161111692919061537f565b60405180910390a250505050565b61112c614262565b6001600160a01b0316816001600160a01b03161461115c5760405162461bcd60e51b81526004016109a390615ce9565b6111668282614351565b5050565b60fb54611186906201000090046001600160a01b031633613c0b565b6111a25760405162461bcd60e51b81526004016109a390615675565b8060058111156111c257634e487b7160e01b600052602160045260246000fd5b60fb805461ff0019166101008360058111156111ee57634e487b7160e01b600052602160045260246000fd5b021790555030600080516020615f6983398151915282600581111561122357634e487b7160e01b600052602160045260246000fd5b3360405161123292919061537f565b60405180910390a250565b60fb54611259906201000090046001600160a01b031633613c0b565b8061126a575061126a60003361220e565b6112865760405162461bcd60e51b81526004016109a390615b19565b3360006112a860fb60029054906101000a90046001600160a01b031683613d64565b91508190506112c95760405162461bcd60e51b81526004016109a3906153f2565b6000806112ee60fb60029054906101000a90046001600160a01b031661010654613c91565b909550935084925050811590506113025750805b61131e5760405162461bcd60e51b81526004016109a390615559565b600260c95414156113415760405162461bcd60e51b81526004016109a390615c60565b600260c95561134e6116cf565b1561136b5760405162461bcd60e51b81526004016109a39061577b565b61010c54421161137a57600080fd5b60fb54604080518082019091526016815275191958591b1a5b9954dd1c9a5ad95cd05b1b1bddd95960521b60208201526113c3916201000090046001600160a01b0316906143d6565b61010d54106113e45760405162461bcd60e51b81526004016109a390615894565b60fb5460408051808201909152601481527336b0bc2232b0b23634b732a2bc3a32b739b4b7b760611b602082015261142b916201000090046001600160a01b0316906143d6565b8511158015611480575060fb5460408051808201909152601481527336b4b72232b0b23634b732a2bc3a32b739b4b7b760611b602082015261147c916201000090046001600160a01b0316906143d6565b8510155b61149c5760405162461bcd60e51b81526004016109a39061544b565b6114a642866140d6565b61010c5561010d546114b99060016140d6565b61010d5560405130907fbc83650d6cbec3f5ee93329a41a9d99cd0cea4b67f37bc51b15daf7fdf43f3d2906114f19088903390615d38565b60405180910390a25050600160c955505050565b60fd60209081526000928352604080842090915290825290205460ff1681565b6101146020526000908152604090205460ff1681565b60fb54611557906201000090046001600160a01b031633613c0b565b6115735760405162461bcd60e51b81526004016109a390615675565b600260c95414156115965760405162461bcd60e51b81526004016109a390615c60565b600260c95561010454600160a81b900460ff16156115b357600080fd5b6115bd8282614455565b5050600160c955565b60fe60209081526000928352604080842090915290825290205460ff1681565b6101085481565b610104546001600160a01b031681565b6101065481565b61010d5481565b60fb54611627906201000090046001600160a01b031633613c0b565b6116435760405162461bcd60e51b81526004016109a390615675565b60008061166860fb60029054906101000a90046001600160a01b031661010654613c91565b9095509350849250508115905061167c5750805b6116985760405162461bcd60e51b81526004016109a390615559565b6116a06116cf565b156116bd5760405162461bcd60e51b81526004016109a39061577b565b505060ff1661010d55565b6101005481565b60975460ff1690565b3360006116fa60fb60029054906101000a90046001600160a01b031683613d64565b915081905061171b5760405162461bcd60e51b81526004016109a3906153f2565b60008061174060fb60029054906101000a90046001600160a01b031661010654613c91565b909550935084925050811590506117545750805b6117705760405162461bcd60e51b81526004016109a390615559565b6117786116cf565b156117955760405162461bcd60e51b81526004016109a39061577b565b60016101005410156117b95760405162461bcd60e51b81526004016109a390615a17565b336000908152610111602052604090205460ff166117e95760405162461bcd60e51b81526004016109a390615a8e565b600160fb54610100900460ff16600581111561181557634e487b7160e01b600052602160045260246000fd5b148061184a5750600260fb54610100900460ff16600581111561184857634e487b7160e01b600052602160045260246000fd5b145b6118665760405162461bcd60e51b81526004016109a390615ae2565b336000908152610114602052604090205460ff16156118975760405162461bcd60e51b81526004016109a390615c3e565b33600090815261011460205260409020805460ff19166001908117909155610110546118c2916140d6565b6101108190555060006118dd610aed610adc61011054613eb3565b905061193e676765c793fa10079d601b1b61193860fb60029054906101000a90046001600160a01b0316604051806040016040528060138152602001727265706f72745468726573686f6c644d61726b60681b8152506143d6565b90613f11565b81511061195c5760fb805461ff00191661050017905561195c61419d565b306001600160a01b03167f756bbf5988586c885742d6c7a25b152c72c45455e4bd728cbaf2d52efd58f72f33604051611995919061528c565b60405180910390a25050505050565b6101026020526000908152604090205460ff1681565b6000806119df60fb60029054906101000a90046001600160a01b031661010654613c91565b909550935084925050811590506119f35750805b611a0f5760405162461bcd60e51b81526004016109a390615559565b336000611a3160fb60029054906101000a90046001600160a01b031683613d64565b9150819050611a525760405162461bcd60e51b81526004016109a3906153f2565b611a5a6116cf565b15611a775760405162461bcd60e51b81526004016109a39061577b565b336000908152610111602052604090205460ff16611aa75760405162461bcd60e51b81526004016109a390615a8e565b600086815260fe6020908152604080832033845290915290205460ff1615611ae15760405162461bcd60e51b81526004016109a3906159d0565b60ff8681548110611b0257634e487b7160e01b600052603260045260246000fd5b906000526020600020906007020160050154421115611b335760405162461bcd60e51b81526004016109a390615471565b60ff8681548110611b5457634e487b7160e01b600052603260045260246000fd5b600091825260209091206006600790920201015460ff1615611b885760405162461bcd60e51b81526004016109a390615601565b600086815260fe6020908152604080832033808552908352818420805460ff199081166001179091558a855260fd84528285209185529252909120805460ff8816921682179055611c5457611c19600160ff8881548110611bf957634e487b7160e01b600052603260045260246000fd5b9060005260206000209060070201600301546140d690919063ffffffff16565b60ff8781548110611c3a57634e487b7160e01b600052603260045260246000fd5b906000526020600020906007020160030181905550611d5e565b8460ff1660011415611ce157611ca6600160ff8881548110611c8657634e487b7160e01b600052603260045260246000fd5b9060005260206000209060070201600201546140d690919063ffffffff16565b60ff8781548110611cc757634e487b7160e01b600052603260045260246000fd5b906000526020600020906007020160020181905550611d5e565b611d27600160ff8881548110611d0757634e487b7160e01b600052603260045260246000fd5b9060005260206000209060070201600401546140d690919063ffffffff16565b60ff8781548110611d4857634e487b7160e01b600052603260045260246000fd5b9060005260206000209060070201600401819055505b306001600160a01b0316867fa1525ad3caeaab4dbbaf5b41894a2a846e20eb6aa4192d33d1962221ff5945598733604051611d9a929190615e10565b60405180910390a3505050505050565b60fb546201000090046001600160a01b031681565b60ff8181548110611dcf57600080fd5b600091825260209091206007909102018054600182015460028301546003840154600485015460058601546006909601546001600160a01b038616975060ff600160a01b9096048616969495939492939192911688565b61010a5481565b600054610100900460ff1680611e46575060005460ff16155b611e625760405162461bcd60e51b81526004016109a390615846565b600054610100900460ff16158015611e8d576000805460ff1961ff0019909116610100171660011790555b6001600160a01b038316611ea057600080fd5b611eab600084614796565b60fb805460fc80546001600160a01b038881166001600160a01b031992831617909255610103805488841692169190911790558716620100000262010000600160b01b03199091161761ff0019169055610106829055610104805460ff60b01b1916601960b21b1790819055611f379060ff600160b01b90910416676765c793fa10079d601b1b613f11565b61010555611f4361419d565b6101035460405130917f712ca2b562e5fd2535ba18bbc1475ee1bde55964591339ee2fad68b36ac6774691611f83916001600160a01b03169033906152e3565b60405180910390a28015611f9d576000805461ff00191690555b5050505050565b60fb54611fc0906201000090046001600160a01b031633613c0b565b611fdc5760405162461bcd60e51b81526004016109a390615675565b6101048054911515600160a81b0260ff60a81b19909216919091179055565b60fb54612017906201000090046001600160a01b031633613c0b565b6120335760405162461bcd60e51b81526004016109a390615675565b600260c95414156120565760405162461bcd60e51b81526004016109a390615c60565b600260c9556120636116cf565b156120805760405162461bcd60e51b81526004016109a39061577b565b8060006120a260fb60029054906101000a90046001600160a01b031683613d64565b91508190506120c35760405162461bcd60e51b81526004016109a3906153f2565b600160fb54610100900460ff1660058111156120ef57634e487b7160e01b600052602160045260246000fd5b14806121245750600260fb54610100900460ff16600581111561212257634e487b7160e01b600052602160045260246000fd5b145b61212d57600080fd5b6001600160a01b0384166000908152610111602052604090205460ff1661215357600080fd5b6001600160a01b03808516600081815261011260209081526040808320805489871680865283862091909155948452839055610111909152808220805460ff1990811690915592825290208054909116600117905560fc546121b7911685856147a0565b306001600160a01b03167f6d5d641d4f3b60587bbb1d2cd115656d1b67435b06bd6aa4ce9480284fc30a0d8585336040516121f4939291906152fd565b60405180910390a25050600160c9555050565b6101075481565b60008281526065602090815260408083206001600160a01b038516845290915290205460ff165b92915050565b6101095481565b60008061226760fb60029054906101000a90046001600160a01b031661010654613c91565b9095509350849250508115905061227b5750805b6122975760405162461bcd60e51b81526004016109a390615559565b3360006122b960fb60029054906101000a90046001600160a01b031683613d64565b91508190506122da5760405162461bcd60e51b81526004016109a3906153f2565b6122e26116cf565b156122ff5760405162461bcd60e51b81526004016109a39061577b565b600260c95414156123225760405162461bcd60e51b81526004016109a390615c60565b600260c95561010c5442111561234a5760405162461bcd60e51b81526004016109a390615b7a565b610103546001600160a01b03163314156123765760405162461bcd60e51b81526004016109a39061569b565b610104546001600160a01b038881169116146123a45760405162461bcd60e51b81526004016109a3906159a9565b610109543410156123c75760405162461bcd60e51b81526004016109a39061564e565b60fb5460408051808201909152601a8152791b585e1a5b5d5b50dbdb9d1c9a589d5d1a5bdb905b1b1bddd95960321b6020820152612414916201000090046001600160a01b0316906143d6565b3411156124335760405162461bcd60e51b81526004016109a3906157f7565b61010454600160a01b900460ff166124845761010b543411158015612468575061010b546101075461246590346140d6565b11155b6124845760405162461bcd60e51b81526004016109a390615705565b84156124a25760fc546124a2906001600160a01b03168734336147ce565b336000908152610111602052604090205460ff166124e95761010a546124c99060016140d6565b61010a5533600090815261011160205260409020805460ff191660011790555b610107546124f790346140d6565b610107556101085461250990346140d6565b61010855336000908152610112602052604090205461252890346140d6565b336000908152610112602052604090205561010b5461010754106125955760fb805461ff0019166102001790556101075460405130917f542013525cd36b6c89e081fa3ce8a34f81d547f7ff83cd0605c6d427e3481f759161258c91903390615d38565b60405180910390a25b610104546125ae906001600160a01b0316333034614836565b85306001600160a01b03167fe285af0ba100526ab18835463cd8ac114bfad3a7293999cd51079ef823231fde3488336040516125ec93929190615d6e565b60405180910390a35050600160c9555050505050565b60fb5460ff1681565b61261660003361220e565b61261f57600080fd5b6126276116cf565b156126445760405162461bcd60e51b81526004016109a39061577b565b80600061266660fb60029054906101000a90046001600160a01b031683613d64565b91508190506126875760405162461bcd60e51b81526004016109a3906153f2565b61010380546001600160a01b0319166001600160a01b0385161790556126ae600084614796565b6126b9600033611124565b306001600160a01b03167f141d8d77155f69472beb7fd1ffae79c4fba5c6f2253d4278afd5949015ffc15c84336040516126f49291906152e3565b60405180910390a2505050565b600081565b6101136020526000908152604090205460ff1681565b60fb54612738906201000090046001600160a01b031633613c0b565b80612749575061274960003361220e565b6127655760405162461bcd60e51b81526004016109a390615b19565b60008061278a60fb60029054906101000a90046001600160a01b031661010654613c91565b9095509350849250508115905061279e5750805b6127ba5760405162461bcd60e51b81526004016109a390615559565b3360006127dc60fb60029054906101000a90046001600160a01b031683613d64565b91508190506127fd5760405162461bcd60e51b81526004016109a3906153f2565b6128056116cf565b156128225760405162461bcd60e51b81526004016109a39061577b565b60ff858154811061284357634e487b7160e01b600052603260045260246000fd5b600091825260209091206006600790920201015460ff16156128775760405162461bcd60e51b81526004016109a390615601565b600160ff868154811061289a57634e487b7160e01b600052603260045260246000fd5b906000526020600020906007020160020154106128c95760405162461bcd60e51b81526004016109a39061581f565b600160ff86815481106128ec57634e487b7160e01b600052603260045260246000fd5b906000526020600020906007020160060160006101000a81548160ff021916908315150217905550306001600160a01b0316857fa440c7dcd286ffe63b8f5d96dac11739f23cfc0f2b258f7dd4f2ef9b4d600e8f3360405161294e919061528c565b60405180910390a35050505050565b60fb54612979906201000090046001600160a01b031633613c0b565b8061298a575061298a60003361220e565b6129a65760405162461bcd60e51b81526004016109a390615b19565b60006129ca60fb60029054906101000a90046001600160a01b031661010654613c91565b5060fb549094506129ef93506201000090046001600160a01b03169150339050613c0b565b612a11578015612a115760405162461bcd60e51b81526004016109a3906155aa565b336000612a3360fb60029054906101000a90046001600160a01b031683613d64565b9150819050612a545760405162461bcd60e51b81526004016109a3906153f2565b60fb5460408051808201909152601a8152791b5a5b9a5b5d5b50dbdb9d1c9a589d5d1a5bdb905b1b1bddd95960321b6020820152612aa1916201000090046001600160a01b0316906143d6565b8810158015612afc575060fb5460408051808201909152601a8152791b585e1a5b5d5b50dbdb9d1c9a589d5d1a5bdb905b1b1bddd95960321b6020820152612af8916201000090046001600160a01b0316906143d6565b8811155b612b185760405162461bcd60e51b81526004016109a390615ab4565b60fb5460405163104b379160e11b8152620100009091046001600160a01b0316906320966f2290612b4d90889060040161528c565b60206040518083038186803b158015612b6557600080fd5b505afa158015612b79573d6000803e3d6000fd5b505050506040513d601f19601f82011682018060405250810190612b9d9190615063565b612bb95760405162461bcd60e51b81526004016109a3906159a9565b60fb546040805180820190915260158152741b5a5b9a5b5d5b50d85b5c185a59db95185c99d95d605a1b6020820152612c01916201000090046001600160a01b0316906143d6565b8910158015612c57575060fb546040805180820190915260158152741b585e1a5b5d5b50d85b5c185a59db95185c99d95d605a1b6020820152612c53916201000090046001600160a01b0316906143d6565b8911155b612c735760405162461bcd60e51b81526004016109a390615a66565b61010b899055610109889055612c8942886140d6565b61010c5561010480546001600160a01b0319166001600160a01b0387161760ff60a01b1916600160a01b86151502179055856001811115612cda57634e487b7160e01b600052602160045260246000fd5b60fb805460ff191660018381811115612d0357634e487b7160e01b600052602160045260246000fd5b0217905550306001600160a01b03167fee25c218d9eb150f6dd11682b54758c9c90c22a68acea789d36d74cdf65c26718989898933604051612d49959493929190615dd3565b60405180910390a2505050505050505050565b600080612d8160fb60029054906101000a90046001600160a01b031661010654613c91565b90955093508492505081159050612d955750805b612db15760405162461bcd60e51b81526004016109a390615559565b336000612dd360fb60029054906101000a90046001600160a01b031683613d64565b9150819050612df45760405162461bcd60e51b81526004016109a3906153f2565b612dfc6116cf565b15612e195760405162461bcd60e51b81526004016109a39061577b565b336000908152610111602052604090205460ff16612e495760405162461bcd60e51b81526004016109a390615a8e565b60ff8581548110612e6a57634e487b7160e01b600052603260045260246000fd5b906000526020600020906007020160050154421115612e9b5760405162461bcd60e51b81526004016109a390615471565b600085815260fe6020908152604080832033845290915290205460ff16612ed45760405162461bcd60e51b81526004016109a3906157a5565b600085815260fe6020908152604080832033808552908352818420805460ff1916905588845260fd835281842090845290915290205460ff16612f9257612f57600160ff8781548110612f3757634e487b7160e01b600052603260045260246000fd5b9060005260206000209060070201600301546140ca90919063ffffffff16565b60ff8681548110612f7857634e487b7160e01b600052603260045260246000fd5b9060005260206000209060070201600301819055506130b5565b600085815260fd6020908152604080832033845290915290205460ff166001141561303857612ffd600160ff8781548110612fdd57634e487b7160e01b600052603260045260246000fd5b9060005260206000209060070201600201546140ca90919063ffffffff16565b60ff868154811061301e57634e487b7160e01b600052603260045260246000fd5b9060005260206000209060070201600201819055506130b5565b61307e600160ff878154811061305e57634e487b7160e01b600052603260045260246000fd5b9060005260206000209060070201600401546140ca90919063ffffffff16565b60ff868154811061309f57634e487b7160e01b600052603260045260246000fd5b9060005260206000209060070201600401819055505b600085815260fd6020908152604080832033808552925291829020549151309288927fd406d34b059d067de2d7bcdc71ba7271ff7549a4766a8625671b2e165b443cf59261294e9260ff169190615e10565b61010f5481565b33600061313060fb60029054906101000a90046001600160a01b031683613d64565b91508190506131515760405162461bcd60e51b81526004016109a3906153f2565b60008061317660fb60029054906101000a90046001600160a01b031661010654613c91565b9095509350849250508115905061318a5750805b6131a65760405162461bcd60e51b81526004016109a390615559565b6131ae6116cf565b6131ca5760405162461bcd60e51b81526004016109a39061549a565b600360fb54610100900460ff1660058111156131f657634e487b7160e01b600052602160045260246000fd5b146132135760405162461bcd60e51b81526004016109a3906158f3565b336000908152610102602052604090205460ff16156132445760405162461bcd60e51b81526004016109a390615bd2565b336000908152610111602052604090205460ff166132745760405162461bcd60e51b81526004016109a390615a8e565b33600090815261010260205260409020805460ff191660019081179091556101015461329f916140d6565b6101015560405130907fa35479bbef3bc560431afd3db39f242663c9c60a88edff87bc0a5b7f5393fc8b9061111690339061528c565b61010b5481565b6132e582610e8e565b6132f181610ebf614262565b610ece8383614351565b6101126020526000908152604090205481565b6001600160a01b0381166000908152610113602052604081205460ff16156133485760405162461bcd60e51b81526004016109a3906154c8565b6000613372610aed61336961010854610107546140ca90919063ffffffff16565b610107546140b0565b905060006133b26101126000866001600160a01b03166001600160a01b03168152602001908152602001600020546133ad846101055461485d565b614872565b949350505050565b61010454600160a81b900460ff1681565b610103546001600160a01b031681565b3360006133fd60fb60029054906101000a90046001600160a01b031683613d64565b915081905061341e5760405162461bcd60e51b81526004016109a3906153f2565b60fb5461343a906201000090046001600160a01b031633613c0b565b8061344b575061344b60003361220e565b6134675760405162461bcd60e51b81526004016109a390615b19565b60008061348c60fb60029054906101000a90046001600160a01b031661010654613c91565b909550935084925050811590506134a05750805b6134bc5760405162461bcd60e51b81526004016109a390615559565b6134c46116cf565b6134e05760405162461bcd60e51b81526004016109a39061549a565b60006134f4610aed610adc61010154613eb3565b9050600360fb54610100900460ff16600581111561352257634e487b7160e01b600052602160045260246000fd5b1461353f5760405162461bcd60e51b81526004016109a3906158f3565b613598676765c793fa10079d601b1b61193860fb60029054906101000a90046001600160a01b0316604051806040016040528060138152602001727265766965775468726573686f6c644d61726b60681b8152506143d6565b815110156135b85760405162461bcd60e51b81526004016109a390615c97565b60fb805461ff0019166104001790556040513090600080516020615f698339815191529061199590600490339061537f565b33600061360c60fb60029054906101000a90046001600160a01b031683613d64565b915081905061362d5760405162461bcd60e51b81526004016109a3906153f2565b600260c95414156136505760405162461bcd60e51b81526004016109a390615c60565b600260c95561010454600160a81b900460ff161561366d57600080fd5b6136773384614455565b5050600160c95550565b6101015481565b60fb546136a4906201000090046001600160a01b031633613c0b565b806136b557506136b560003361220e565b6136d15760405162461bcd60e51b81526004016109a390615b19565b6000806136f660fb60029054906101000a90046001600160a01b031661010654613c91565b9095509350849250508115905061370a5750805b6137265760405162461bcd60e51b81526004016109a390615559565b33600061374860fb60029054906101000a90046001600160a01b031683613d64565b91508190506137695760405162461bcd60e51b81526004016109a3906153f2565b6137716116cf565b1561378e5760405162461bcd60e51b81526004016109a39061577b565b6001600160a01b0387166137a157600080fd5b61010b546101075410156137d25761010c544210156137d25760405162461bcd60e51b81526004016109a3906157c9565b600060fb5460ff1660018111156137f957634e487b7160e01b600052602160045260246000fd5b141561385a5761010b54610107541015801561383e5750600260fb54610100900460ff16600581111561383c57634e487b7160e01b600052602160045260246000fd5b145b61385a5760405162461bcd60e51b81526004016109a390615582565b60fb5460408051808201909152601b81527a1b5a5b9a5b5d5b54995c5d595cdd105b5bdd5b9d105b1b1bddd959602a1b60208201526138a8916201000090046001600160a01b0316906143d6565b8610158015613904575060fb5460408051808201909152601b81527a1b585e1a5b5d5b54995c5d595cdd105b5bdd5b9d105b1b1bddd959602a1b6020820152613900916201000090046001600160a01b0316906143d6565b8611155b6139205760405162461bcd60e51b81526004016109a3906159ef565b610108548611156139435760405162461bcd60e51b81526004016109a3906158bf565b60fb5460408051808201909152601281527136b4b72932b8bab2b9ba223ab930ba34b7b760711b6020820152613988916201000090046001600160a01b0316906143d6565b85101580156139db575060fb5460408051808201909152601281527136b0bc2932b8bab2b9ba223ab930ba34b7b760711b60208201526139d7916201000090046001600160a01b0316906143d6565b8511155b6139f75760405162461bcd60e51b81526004016109a390615cbf565b60016101005410613a5d5760ff61010f5481548110613a2657634e487b7160e01b600052603260045260246000fd5b6000918252602090912060079091020154600160a01b900460ff16613a5d5760405162461bcd60e51b81526004016109a39061593f565b60ff604051806101000160405280896001600160a01b03168152602001600015158152602001888152602001600081526020016000815260200160008152602001613ab188426140d690919063ffffffff16565b8152600060209182018190528354600180820186559482529082902083516007909202018054928401516001600160a01b03199093166001600160a01b039092169190911760ff60a01b1916600160a01b92151592909202919091178155604082015181840155606082015160028201556080820151600382015560a0820151600482015560c0820151600582015560e0909101516006909101805460ff191691151591909117905561010054613b67916140d6565b6101005560ff54613b799060016140ca565b61010f5560ff543090613b8d9060016140ca565b7f823dc9736a56a564db1ee4e6689052f2cb7b486ad859872ba53dd5c13d2c8c7187898b33604051613bc29493929190615dac565b60405180910390a350505050505050565b60fb54610100900460ff1681565b61010454600160a01b900460ff1681565b6001600160e01b031981166301ffc9a760e01b14919050565b60405163f7878c6960e01b81526000906001600160a01b0384169063f7878c6990613c3a90859060040161528c565b60206040518083038186803b158015613c5257600080fd5b505afa158015613c66573d6000803e3d6000fd5b505050506040513d601f19601f82011682018060405250810190613c8a9190615063565b9392505050565b6000806000806000806000806000808b6001600160a01b031663339d50a58c6040518263ffffffff1660e01b8152600401613ccc9190615368565b6101206040518083038186803b158015613ce557600080fd5b505afa158015613cf9573d6000803e3d6000fd5b505050506040513d601f19601f82011682018060405250810190613d1d9190614f09565b909192939495509091929394509091929350909150809850819950829550839650849750505050505082828287879950995099509950995050505050509295509295909350565b6000806001600160a01b038316613d7a57600080fd5b600080856001600160a01b031663365b98b2876001600160a01b031663eda7794e886040518263ffffffff1660e01b8152600401613db8919061528c565b60206040518083038186803b158015613dd057600080fd5b505afa158015613de4573d6000803e3d6000fd5b505050506040513d601f19601f82011682018060405250810190613e089190615133565b6040518263ffffffff1660e01b8152600401613e249190615368565b60a06040518083038186803b158015613e3c57600080fd5b505afa158015613e50573d6000803e3d6000fd5b505050506040513d601f19601f82011682018060405250810190613e749190614fe6565b5092945091925050506001600160a01b0380831690861614613ea85760405162461bcd60e51b81526004016109a390615621565b909590945092505050565b613ebb614e41565b50604080516020810190915290815290565b613ed5614e41565b6040518060200160405280613eee8560000151856148da565b90529392505050565b613eff614e41565b613c8a83613f0c84613eb3565b6148fe565b6000613c8a8284615e58565b6000806000846001600160a01b031663339d50a5856040518263ffffffff1660e01b8152600401613f4e9190615368565b6101206040518083038186803b158015613f6757600080fd5b505afa158015613f7b573d6000803e3d6000fd5b505050506040513d601f19601f82011682018060405250810190613f9f9190614f09565b5050604051634c788de760e11b8152929850506001600160a01b038b1695506398f11bce9450613fd6935087925050600401615368565b60206040518083038186803b158015613fee57600080fd5b505afa158015614002573d6000803e3d6000fd5b505050506040513d601f19601f820116820180604052508101906140269190615133565b9050806133b2576040516314f7ea9960e01b81526001600160a01b038616906314f7ea99906140579060040161572d565b60206040518083038186803b15801561406f57600080fd5b505afa158015614083573d6000803e3d6000fd5b505050506040513d601f19601f820116820180604052508101906140a79190615133565b95945050505050565b6140b8614e41565b613c8a6140c484613eb3565b8361485d565b6000613c8a8284615e77565b6000613c8a8284615e2c565b60405163e128c96960e01b81526001600160a01b0384169063e128c969906141109085908590600401615344565b600060405180830381600087803b15801561412a57600080fd5b505af115801561413e573d6000803e3d6000fd5b50505050505050565b610ece8363a9059cbb60e01b8484604051602401614166929190615344565b60408051601f198184030181529190526020810180516001600160e01b03166001600160e01b03199093169290921790915261491f565b6141a56116cf565b156141c25760405162461bcd60e51b81526004016109a39061577b565b6097805460ff191660011790557f62e78cea01bee320cd4e420270b5ea74000d11b0c9f74754ebdbfc544b05a2586141f8614262565b604051614205919061528c565b60405180910390a1565b6142176116cf565b6142335760405162461bcd60e51b81526004016109a39061549a565b6097805460ff191690557f5db9ee0a495bf2e6ff9c91a7834c1ba4fdd244a5e8aa4e537bd38aeae4b073aa6141f85b3390565b614270828261220e565b61116657614288816001600160a01b031660146149ae565b6142938360206149ae565b6040516020016142a492919061521d565b60408051601f198184030181529082905262461bcd60e51b82526109a3916004016153bf565b6142d4828261220e565b6111665760008281526065602090815260408083206001600160a01b03851684529091529020805460ff1916600117905561430d614262565b6001600160a01b0316816001600160a01b0316837f2f8788117e7eff1d82e926ec794901d17c78024a50270940304540a733656f0d60405160405180910390a45050565b61435b828261220e565b156111665760008281526065602090815260408083206001600160a01b03851684529091529020805460ff19169055614392614262565b6001600160a01b0316816001600160a01b0316837ff6391f5c32d9c69d2a47ea670b442974b53935d1edc7fd64eb21e047a839171b60405160405180910390a45050565b6040516314f7ea9960e01b81526000906001600160a01b038416906314f7ea99906144059085906004016153bf565b60206040518083038186803b15801561441d57600080fd5b505afa158015614431573d6000803e3d6000fd5b505050506040513d601f19601f82011682018060405250810190613c8a9190615133565b6001600160a01b03811661446857600080fd5b6001600160a01b0382166000908152610113602052604090205460ff16156144a25760405162461bcd60e51b81526004016109a3906154c8565b6001600160a01b0382166000908152610111602052604090205460ff166144db5760405162461bcd60e51b81526004016109a390615a8e565b600560fb54610100900460ff16600581111561450757634e487b7160e01b600052602160045260246000fd5b1415801561453f5750600360fb54610100900460ff16600581111561453c57634e487b7160e01b600052602160045260246000fd5b14155b801561454e5750600161010154105b156145bf57600160fb54610100900460ff16600581111561457f57634e487b7160e01b600052602160045260246000fd5b1461459c5760405162461bcd60e51b81526004016109a3906154f3565b600161010e54106145bf5760405162461bcd60e51b81526004016109a390615ba4565b60006145ed6145cd8461330e565b6001600160a01b03851660009081526101126020526040902054906140ca565b9050600560fb54610100900460ff16600581111561461b57634e487b7160e01b600052602160045260246000fd5b141580156146535750600360fb54610100900460ff16600581111561465057634e487b7160e01b600052602160045260246000fd5b14155b156146e55760fc5461466e906001600160a01b031684614b5f565b6101085461467c90826140ca565b610108556101075461468e90826140ca565b610107556001600160a01b038316600090815261011160205260409020805460ff1916905561010a546146c29060016140ca565b61010a556001600160a01b03831660009081526101126020526040812055614724565b6001600160a01b0383166000908152610112602052604090205461470990826140ca565b6001600160a01b038416600090815261011260205260409020555b6001600160a01b03808416600090815261011360205260409020805460ff191660011790556101045461475991168383614147565b306001600160a01b03167fc3667c052e3c8a2b050dc9c5fd98873be15e93f9f935ce07b572ca8ab93423418285336040516126f493929190615d4f565b61116682826142ca565b6040516374dc32b960e11b81526001600160a01b0384169063e9b865729061411090859085906004016152e3565b604051630e9709bf60e41b81526001600160a01b0385169063e9709bf0906147fe90869086908690600401615d8d565b600060405180830381600087803b15801561481857600080fd5b505af115801561482c573d6000803e3d6000fd5b5050505050505050565b614857846323b872dd60e01b85858560405160240161416693929190615320565b50505050565b614865614e41565b613c8a83610ae884613eb3565b80516000908190614884908590614bc1565b905061489b81676765c793fa10079d601b1b614c06565b156148c5576148c060016148ba83676765c793fa10079d601b1b614c43565b90614c82565b6133b2565b6133b281676765c793fa10079d601b1b614c43565b8051600090613c8a906148f885676765c793fa10079d601b1b614bc1565b90614c43565b614906614e41565b6040518060200160405280613eee856000015185614cb1565b6000614974826040518060400160405280602081526020017f5361666545524332303a206c6f772d6c6576656c2063616c6c206661696c6564815250856001600160a01b0316614cd99092919063ffffffff16565b805190915015610ece57808060200190518101906149929190615063565b610ece5760405162461bcd60e51b81526004016109a390615bf4565b606060006149bd836002615e58565b6149c8906002615e2c565b6001600160401b038111156149ed57634e487b7160e01b600052604160045260246000fd5b6040519080825280601f01601f191660200182016040528015614a17576020820181803683370190505b509050600360fc1b81600081518110614a4057634e487b7160e01b600052603260045260246000fd5b60200101906001600160f81b031916908160001a905350600f60fb1b81600181518110614a7d57634e487b7160e01b600052603260045260246000fd5b60200101906001600160f81b031916908160001a9053506000614aa1846002615e58565b614aac906001615e2c565b90505b6001811115614b40576f181899199a1a9b1b9c1cb0b131b232b360811b85600f1660108110614aee57634e487b7160e01b600052603260045260246000fd5b1a60f81b828281518110614b1257634e487b7160e01b600052603260045260246000fd5b60200101906001600160f81b031916908160001a90535060049490941c93614b3981615eba565b9050614aaf565b508315613c8a5760405162461bcd60e51b81526004016109a390615416565b604051630eaf305760e21b81526001600160a01b03831690633abcc15c90614b8b90849060040161528c565b600060405180830381600087803b158015614ba557600080fd5b505af1158015614bb9573d6000803e3d6000fd5b505050505050565b600082614bd057506000612235565b6000614bdc8385615e58565b905082614be98583615e44565b14613c8a5760405162461bcd60e51b81526004016109a390615968565b6000613c8a838360405180604001604052806018815260200177536166654d6174683a206d6f64756c6f206279207a65726f60401b815250614ce8565b6000613c8a83836040518060400160405280601a815260200179536166654d6174683a206469766973696f6e206279207a65726f60301b815250614d14565b600080614c8f8385615e2c565b905083811015613c8a5760405162461bcd60e51b81526004016109a3906155cc565b6000613c8a676765c793fa10079d601b1b6148f8846000015186614bc190919063ffffffff16565b60606133b28484600085614d42565b60008183614d095760405162461bcd60e51b81526004016109a391906153bf565b506133b28385615eec565b60008183614d355760405162461bcd60e51b81526004016109a391906153bf565b5060006140a78486615e44565b606082471015614d645760405162461bcd60e51b81526004016109a3906156bf565b614d6d85614e02565b614d895760405162461bcd60e51b81526004016109a390615b43565b600080866001600160a01b03168587604051614da59190615201565b60006040518083038185875af1925050503d8060008114614de2576040519150601f19603f3d011682016040523d82523d6000602084013e614de7565b606091505b5091509150614df7828286614e08565b979650505050505050565b3b151590565b60608315614e17575081613c8a565b825115614e275782518084602001fd5b8160405162461bcd60e51b81526004016109a391906153bf565b6040518060200160405280600081525090565b803560ff8116811461095557600080fd5b600060208284031215614e76578081fd5b8135613c8a81615f42565b600060208284031215614e92578081fd5b8151613c8a81615f42565b600080600060608486031215614eb1578182fd5b8335614ebc81615f42565b95602085013595506040909401359392505050565b60008060408385031215614ee3578182fd5b8235614eee81615f42565b91506020830135614efe81615f42565b809150509250929050565b60008060008060008060008060006101208a8c031215614f27578485fd5b8951614f3281615f42565b60208b0151909950614f4381615f42565b8098505060408a0151965060608a0151955060808a0151945060a08a0151935060c08a0151614f7181615f5a565b60e08b0151909350614f8281615f5a565b6101008b0151909250614f9481615f5a565b809150509295985092959850929598565b600080600060608486031215614fb9578283fd5b8335614fc481615f42565b9250602084013591506040840135614fdb81615f5a565b809150509250925092565b600080600080600060a08688031215614ffd578081fd5b855161500881615f42565b809550506020860151935060408601519250606086015161502881615f5a565b608087015190925061503981615f5a565b809150509295509295909350565b600060208284031215615058578081fd5b8135613c8a81615f5a565b600060208284031215615074578081fd5b8151613c8a81615f5a565b600060208284031215615090578081fd5b5035919050565b600080604083850312156150a9578182fd5b823591506020830135614efe81615f42565b6000602082840312156150cc578081fd5b81356001600160e01b031981168114613c8a578182fd5b600080600080608085870312156150f8578182fd5b843561510381615f42565b9350602085013561511381615f42565b9250604085013561512381615f42565b9396929550929360600135925050565b600060208284031215615144578081fd5b5051919050565b60008060008060008060c08789031215615163578384fd5b86359550602087013594506040870135935060608701359250608087013561518a81615f42565b915060a087013561519a81615f5a565b809150509295509295509295565b600080604083850312156151ba578182fd5b823591506151ca60208401614e54565b90509250929050565b6000602082840312156151e4578081fd5b613c8a82614e54565b600681106151fd576151fd615f2c565b9052565b60008251615213818460208701615e8e565b9190910192915050565b600076020b1b1b2b9b9a1b7b73a3937b61d1030b1b1b7bab73a1604d1b8252835161524f816017850160208801615e8e565b7001034b99036b4b9b9b4b733903937b6329607d1b6017918401918201528351615280816028840160208801615e8e565b01602801949350505050565b6001600160a01b0391909116815260200190565b6001600160a01b03989098168852951515602088015260408701949094526060860192909252608085015260a084015260c0830152151560e08201526101000190565b6001600160a01b0392831681529116602082015260400190565b6001600160a01b0393841681529183166020830152909116604082015260600190565b6001600160a01b039384168152919092166020820152604081019190915260600190565b6001600160a01b03929092168252602082015260400190565b901515815260200190565b90815260200190565b6020810161223582846151ed565b6040810161538d82856151ed565b6001600160a01b039290921660209190910152919050565b60208101600283106153b9576153b9615f2c565b91905290565b60006020825282518060208401526153de816040850160208701615e8e565b601f01601f19169190910160400192915050565b6020808252600a90820152691d5b9d995c9a599a595960b21b604082015260600190565b6020808252818101527f537472696e67733a20686578206c656e67746820696e73756666696369656e74604082015260600190565b6020808252600c908201526b1d1a5b59481919599a58da5d60a21b604082015260600190565b6020808252600f908201526e1c995c5d595cdd08195e1c1a5c9959608a1b604082015260600190565b60208082526014908201527314185d5cd8589b194e881b9bdd081c185d5cd95960621b604082015260600190565b6020808252601190820152703130b630b731b2903bb4ba34323930bbb760791b604082015260600190565b6020808252601d908201527f6e6f206c6f6e67657220696e20636f6c6c656374696f6e207374616765000000604082015260600190565b6020808252601590820152746e6f2066696e616c697a656420726571756573747360581b604082015260600190565b6020808252600f908201526e63616d706169676e2061637469766560881b604082015260600190565b6020808252600e908201526d1d185c99d95d081b9bdd081b595d60921b604082015260600190565b602080825260089082015267185c1c1c9bdd995960c21b604082015260600190565b6020808252601b908201527a536166654d6174683a206164646974696f6e206f766572666c6f7760281b604082015260600190565b6020808252600690820152651d9bda59195960d21b604082015260600190565b6020808252601390820152721d5cd95c88191bd95cc81b9bdd08195e1a5cdd606a1b604082015260600190565b6020808252600d908201526c76616c756520746f6f206c6f7760981b604082015260600190565b6020808252600c908201526b6f6e6c7920666163746f727960a01b604082015260600190565b6020808252600a90820152693937b7ba1037bbb732b960b11b604082015260600190565b60208082526026908201527f416464726573733a20696e73756666696369656e742062616c616e636520666f6040820152651c8818d85b1b60d21b606082015260800190565b6020808252600e908201526d195e18d959591cc81d185c99d95d60921b604082015260600190565b6020808252601190820152703232b330bab63a21b7b6b6b4b9b9b4b7b760791b604082015260600190565b602080825260099082015268199a5b985b1a5e995960ba1b604082015260600190565b60208082526010908201526f14185d5cd8589b194e881c185d5cd95960821b604082015260600190565b6020808252600a90820152691d9bdd1948199a5c9cdd60b21b604082015260600190565b602080825260149082015273191958591b1a5b99481b9bdd08195e1c1a5c995960621b604082015260600190565b6020808252600e908201526d0ecc2d8eaca40e8dede40d0d2ced60931b604082015260600190565b6020808252600d908201526c68617320617070726f76616c7360981b604082015260600190565b6020808252602e908201527f496e697469616c697a61626c653a20636f6e747261637420697320616c72656160408201526d191e481a5b9a5d1a585b1a5e995960921b606082015260800190565b60208082526011908201527065786861757374656420737472696b657360781b604082015260600190565b6020808252601a9082015279616d6f756e7420686967686572207468616e2062616c616e636560301b604082015260600190565b6020808252600d908201526c6e6f7420696e2072657669657760981b604082015260600190565b6020808252600b908201526a6e6f74206f6e676f696e6760a81b604082015260600190565b6020808252600f908201526e72657175657374206f6e676f696e6760881b604082015260600190565b60208082526021908201527f536166654d6174683a206d756c7469706c69636174696f6e206f766572666c6f6040820152607760f81b606082015260800190565b6020808252600d908201526c34b73b30b634b2103a37b5b2b760991b604082015260600190565b6020808252600590820152641d9bdd195960da1b604082015260600190565b6020808252600e908201526d185b5bdd5b9d081919599a58da5d60921b604082015260600190565b6020808252600b908201526a6e6f20726571756573747360a81b604082015260600190565b60208082526010908201526f185c1c1c9bdd985b081919599a58da5d60821b604082015260600190565b6020808252600e908201526d1d185c99d95d081919599a58da5d60921b604082015260600190565b6020808252600c908201526b3737b71030b8383937bb32b960a11b604082015260600190565b60208082526014908201527318dbdb9d1c9a589d5d1a5bdb881919599a58da5d60621b604082015260600190565b6020808252601f908201527f6e6f7420696e20636f6c6c656374696f6e206f72206c69766520737461746500604082015260600190565b60208082526010908201526f61646d696e206f7220666163746f727960801b604082015260600190565b6020808252601d908201527f416464726573733a2063616c6c20746f206e6f6e2d636f6e7472616374000000604082015260600190565b60208082526010908201526f191958591b1a5b9948195e1c1a5c995960821b604082015260600190565b6020808252601490820152731c995c5d595cdd0a1cca48199a5b985b1a5e995960621b604082015260600190565b6020808252600890820152671c995d9a595dd95960c21b604082015260600190565b6020808252602a908201527f5361666545524332303a204552433230206f7065726174696f6e20646964206e6040820152691bdd081cdd58d8d9595960b21b606082015260800190565b6020808252600890820152671c995c1bdc9d195960c21b604082015260600190565b6020808252601f908201527f5265656e7472616e637947756172643a207265656e7472616e742063616c6c00604082015260600190565b6020808252600e908201526d1c995d9a595dc81919599a58da5d60921b604082015260600190565b60208082526010908201526f191d5c985d1a5bdb881919599a58da5d60821b604082015260600190565b6020808252602f908201527f416363657373436f6e74726f6c3a2063616e206f6e6c792072656e6f756e636560408201526e103937b632b9903337b91039b2b63360891b606082015260800190565b9182526001600160a01b0316602082015260400190565b9283526001600160a01b03918216602084015216604082015260600190565b92835290151560208301526001600160a01b0316604082015260600190565b92835260208301919091526001600160a01b0316604082015260600190565b93845260208401929092526001600160a01b03908116604084015216606082015260800190565b948552602085019390935260408401919091526001600160a01b03908116606084015216608082015260a00190565b60ff91909116815260200190565b60ff9290921682526001600160a01b0316602082015260400190565b60008219821115615e3f57615e3f615f00565b500190565b600082615e5357615e53615f16565b500490565b6000816000190483118215151615615e7257615e72615f00565b500290565b600082821015615e8957615e89615f00565b500390565b60005b83811015615ea9578181015183820152602001615e91565b838111156148575750506000910152565b600081615ec957615ec9615f00565b506000190190565b6000600019821415615ee557615ee5615f00565b5060010190565b600082615efb57615efb615f16565b500690565b634e487b7160e01b600052601160045260246000fd5b634e487b7160e01b600052601260045260246000fd5b634e487b7160e01b600052602160045260246000fd5b6001600160a01b0381168114615f5757600080fd5b50565b8015158114615f5757600080fdfeedd12f30896969d8a3bde82810a795aeddadc9236a165e3c9833988bff36c5e1a2646970667358221220dbd3b7bd27a6ae15fda940d17b88a4dcd13a49899751c8c68cb47c3d1eb0f02364736f6c63430008000033",
  "immutableReferences": {},
  "source": "// contracts/Campaign.sol\n// SPDX-License-Identifier: UNLICENSED\npragma solidity >=0.4.22 <0.9.0;\n\nimport \"@openzeppelin/contracts-upgradeable/utils/math/SafeMathUpgradeable.sol\";\nimport \"@openzeppelin/contracts-upgradeable/proxy/utils/Initializable.sol\";\nimport \"@openzeppelin/contracts-upgradeable/security/PausableUpgradeable.sol\";\nimport \"@openzeppelin/contracts-upgradeable/security/ReentrancyGuardUpgradeable.sol\";\nimport \"@openzeppelin/contracts-upgradeable/token/ERC20/IERC20Upgradeable.sol\";\nimport \"@openzeppelin/contracts-upgradeable/token/ERC20/utils/SafeERC20Upgradeable.sol\";\n\nimport \"./CampaignFactory.sol\";\nimport \"./utils/AccessControl.sol\";\n\nimport \"./interfaces/CampaignFactoryInterface.sol\";\nimport \"./interfaces/CampaignRewardInterface.sol\";\n\nimport \"./libraries/contracts/CampaignFactoryLib.sol\";\nimport \"./libraries/contracts/CampaignRewardLib.sol\";\n\nimport \"./libraries/math/DecimalMath.sol\";\n\ncontract Campaign is\n    Initializable,\n    AccessControl,\n    PausableUpgradeable,\n    ReentrancyGuardUpgradeable\n{\n    using SafeMathUpgradeable for uint8;\n    using SafeMathUpgradeable for uint256;\n    using DecimalMath for int256;\n    using DecimalMath for uint256;\n\n    enum GOALTYPE {\n        FIXED,\n        FLEXIBLE\n    }\n    GOALTYPE public goalType;\n\n    enum CAMPAIGN_STATE {\n        GENESIS,\n        COLLECTION,\n        LIVE,\n        REVIEW,\n        COMPLETE,\n        UNSUCCESSFUL\n    }\n    CAMPAIGN_STATE public campaignState;\n\n    /// @dev `Initializer Event`\n    event CampaignOwnerSet(\n        Campaign indexed campaign,\n        address user,\n        address sender\n    );\n\n    /// @dev `Campaign Config Events`\n    event CampaignOwnershipTransferred(\n        Campaign indexed campaign,\n        address newUser,\n        address sender\n    );\n    event CampaignSettingsUpdated(\n        Campaign indexed campaign,\n        uint256 minimumContribution,\n        uint256 deadline,\n        uint256 goalType,\n        address token,\n        address sender\n    );\n    event CampaignDeadlineExtended(\n        Campaign indexed campaign,\n        uint256 time,\n        address sender\n    );\n    event CampaignReported(Campaign indexed campaign, address sender);\n\n    /// @dev `Approval Transfer`\n    event CampaignUserDataTransferred(\n        Campaign indexed campaign,\n        address oldAddress,\n        address newAddress,\n        address sender\n    );\n\n    /// @dev `Contribution Events`\n    event ContributionMade(\n        Campaign indexed campaign,\n        uint256 amount,\n        uint256 indexed rewardId,\n        bool withReward,\n        address sender\n    );\n    event ContributionWithdrawn(\n        Campaign indexed campaign,\n        uint256 amount,\n        address user,\n        address sender\n    );\n    event TargetMet(Campaign indexed campaign, uint256 amount, address sender);\n\n    /// @dev `Request Events`\n    event RequestAdded(\n        uint256 indexed requestId,\n        Campaign indexed campaign,\n        uint256 duration,\n        uint256 value,\n        address recipient,\n        address sender\n    );\n    event RequestVoided(\n        uint256 indexed requestId,\n        Campaign indexed campaign,\n        address sender\n    );\n    event RequestComplete(\n        uint256 indexed requestId,\n        Campaign indexed campaign,\n        address sender\n    );\n\n    /// @dev `Vote Events`\n    event Voted(\n        uint256 indexed requestId,\n        uint8 support,\n        Campaign indexed campaign,\n        address sender\n    );\n    event VoteCancelled(\n        uint256 indexed requestId,\n        uint8 support,\n        Campaign indexed campaign,\n        address sender\n    );\n\n    /// @dev `Review Events`\n    event CampaignReviewed(Campaign indexed campaign, address sender);\n\n    /// @dev `Campaign State Events`\n    event CampaignStateChange(\n        Campaign indexed campaign,\n        CAMPAIGN_STATE state,\n        address sender\n    );\n\n    CampaignFactoryInterface public campaignFactoryContract;\n    CampaignRewardInterface private campaignRewardContract;\n\n    /// @dev `Request`\n    struct Request {\n        address payable recipient;\n        bool complete;\n        uint256 value;\n        uint256 approvalCount;\n        uint256 againstCount;\n        uint256 abstainedCount;\n        uint256 duration;\n        bool void;\n    }\n    mapping(uint256 => mapping(address => uint8)) public requestSupport;\n    mapping(uint256 => mapping(address => bool)) public hasVoted;\n    Request[] public requests;\n    uint256 public requestCount;\n\n    /// @dev `Review`\n    uint256 public reviewCount;\n    mapping(address => bool) public reviewed;\n\n    address public root;\n    address public acceptedToken;\n    bool public allowContributionAfterTargetIsMet;\n    bool public withdrawalsPaused;\n    uint8 private percentBase;\n    uint256 private percent;\n    uint256 public campaignID;\n    uint256 public totalCampaignContribution;\n    uint256 public campaignBalance;\n    uint256 public minimumContribution;\n    uint256 public approversCount;\n    uint256 public target;\n    uint256 public deadline;\n    uint256 public deadlineSetTimes;\n    uint256 public finalizedRequestCount;\n    uint256 public currentRunningRequest;\n    uint256 public reportCount;\n    mapping(address => bool) public approvers;\n    mapping(address => uint256) public userTotalContribution;\n    mapping(address => bool) public userContributionWithdrawn;\n    mapping(address => bool) public reported;\n\n    /// @dev Ensures caller is only factory\n    modifier onlyFactory() {\n        require(\n            CampaignFactoryLib.canManageCampaigns(\n                campaignFactoryContract,\n                msg.sender\n            ),\n            \"only factory\"\n        );\n        _;\n    }\n\n    /// @dev Ensures caller is factory or campaign owner\n    modifier adminOrFactory() {\n        require(\n            CampaignFactoryLib.canManageCampaigns(\n                campaignFactoryContract,\n                msg.sender\n            ) || hasRole(DEFAULT_ADMIN_ROLE, msg.sender),\n            \"admin or factory\"\n        );\n        _;\n    }\n\n    /// @dev Ensures the campaign is set to active by campaign owner and approved by factory\n    modifier campaignIsActive() {\n        bool campaignIsApproved;\n        bool campaignIsEnabled;\n        (, , , campaignIsApproved, campaignIsEnabled) = CampaignFactoryLib\n            .campaignInfo(campaignFactoryContract, campaignID);\n\n        require(campaignIsApproved && campaignIsEnabled, \"campaign active\");\n        _;\n    }\n\n    /// @dev Ensures campaign isn't approved by factory. Applies unless caller is a campaign manager from factory\n    modifier campaignIsNotApproved() {\n        bool campaignIsApproved;\n        (, , , campaignIsApproved, ) = CampaignFactoryLib.campaignInfo(\n            campaignFactoryContract,\n            campaignID\n        );\n\n        if (\n            !CampaignFactoryLib.canManageCampaigns(\n                campaignFactoryContract,\n                msg.sender\n            )\n        ) require(!campaignIsApproved, \"approved\");\n\n        _;\n    }\n\n    /// @dev Ensures a user is verified\n    modifier userIsVerified(address _user) {\n        bool verified;\n        (, verified) = CampaignFactoryLib.userInfo(\n            campaignFactoryContract,\n            _user\n        );\n        require(verified, \"unverified\");\n        _;\n    }\n\n    /**\n     * @dev        Constructor\n     * @param      _campaignFactory     Address of factory\n     * @param      _root                Address of campaign owner\n     */\n    function __Campaign_init(\n        CampaignFactory _campaignFactory,\n        CampaignRewards _camaignRewards, \n        address _root,\n        uint256 _campaignId\n    )\n        public\n        initializer\n    {\n        require(address(_root) != address(0));\n        _setupRole(DEFAULT_ADMIN_ROLE, _root);\n\n        campaignFactoryContract = CampaignFactoryInterface(\n            address(_campaignFactory)\n        );\n        campaignRewardContract = CampaignRewardInterface(address(_camaignRewards));\n        \n        root = _root;\n        campaignState = CAMPAIGN_STATE.GENESIS;\n        campaignID = _campaignId;\n        percentBase = 100;\n        percent = percentBase.mul(DecimalMath.UNIT);\n\n        _pause();\n\n        emit CampaignOwnerSet(this, root, msg.sender);\n    }\n\n    /**\n     * @dev        Transfers campaign ownership from one user to another.\n     * @param      _newRoot    Address of the user campaign ownership is being transfered to\n     */\n    function transferCampaignOwnership(address _newRoot)\n        external\n        onlyAdmin\n        whenNotPaused\n        userIsVerified(_newRoot)\n    {\n        root = _newRoot;\n        _setupRole(DEFAULT_ADMIN_ROLE, _newRoot);\n        renounceRole(DEFAULT_ADMIN_ROLE, msg.sender);\n\n        emit CampaignOwnershipTransferred(this, _newRoot, msg.sender);\n    }\n\n    /**\n     * @dev        Transfers user data in the campaign to another verifed user\n     * @param      _oldAddress    Address of the user transferring\n     * @param      _newAddress    Address of the user being transferred to\n     */\n    function transferCampaignUserData(address _oldAddress, address _newAddress)\n        external\n        onlyFactory\n        nonReentrant\n        whenNotPaused\n        userIsVerified(_newAddress)\n    {\n        require(\n            campaignState == CAMPAIGN_STATE.COLLECTION ||\n                campaignState == CAMPAIGN_STATE.LIVE\n        );\n        require(approvers[_oldAddress]);\n\n        // transfer balance\n        userTotalContribution[_newAddress] = userTotalContribution[\n            _oldAddress\n        ];\n        userTotalContribution[_oldAddress] = 0;\n\n        // transfer approver account\n        approvers[_oldAddress] = false;\n        approvers[_newAddress] = true;\n\n        CampaignRewardLib._transferRewards(\n            campaignRewardContract,\n            _oldAddress,\n            _newAddress\n        );\n\n        emit CampaignUserDataTransferred(\n            this,\n            _oldAddress,\n            _newAddress,\n            msg.sender\n        );\n    }\n\n    /**\n     * @dev         Modifies campaign details while it's not approved\n     * @param      _target                              Contribution target of the campaign\n     * @param      _minimumContribution                 The minimum amout required to be an approver\n     * @param      _duration                            How long until the campaign stops receiving contributions\n     * @param      _goalType                            If flexible the campaign owner is able to create requests if targe isn't met, fixed opposite\n     * @param      _token                               Address of token to be used for transactions by default\n     * @param      _allowContributionAfterTargetIsMet   Indicates if the campaign can receive contributions after duration expires\n     */\n    function setCampaignSettings(\n        uint256 _target,\n        uint256 _minimumContribution,\n        uint256 _duration,\n        uint256 _goalType,\n        address _token,\n        bool _allowContributionAfterTargetIsMet\n    ) external adminOrFactory campaignIsNotApproved userIsVerified(msg.sender) {\n        require(\n            _minimumContribution >=\n                CampaignFactoryLib.getCampaignFactoryConfig(\n                    campaignFactoryContract,\n                    \"minimumContributionAllowed\"\n                ) &&\n                _minimumContribution <=\n                CampaignFactoryLib.getCampaignFactoryConfig(\n                    campaignFactoryContract,\n                    \"maximumContributionAllowed\"\n                ),\n            \"contribution deficit\"\n        );\n        require(\n            campaignFactoryContract.tokensApproved(_token),\n            \"invalid token\"\n        );\n        require(\n            _target >=\n                CampaignFactoryLib.getCampaignFactoryConfig(\n                    campaignFactoryContract,\n                    \"minimumCampaignTarget\"\n                ) &&\n                _target <=\n                CampaignFactoryLib.getCampaignFactoryConfig(\n                    campaignFactoryContract,\n                    \"maximumCampaignTarget\"\n                ),\n            \"target deficit\"\n        );\n\n        target = _target;\n        minimumContribution = _minimumContribution;\n        deadline = block.timestamp.add(_duration);\n        acceptedToken = _token;\n        allowContributionAfterTargetIsMet = _allowContributionAfterTargetIsMet;\n        goalType = GOALTYPE(_goalType);\n\n        emit CampaignSettingsUpdated(\n            this,\n            _minimumContribution,\n            _duration,\n            _goalType,\n            _token,\n            msg.sender\n        );\n    }\n\n    /**\n     * @dev        Extends campaign contribution deadline\n     * @param      _time    How long until the campaign stops receiving contributions\n     */\n    function extendDeadline(uint256 _time)\n        external\n        adminOrFactory\n        userIsVerified(msg.sender)\n        campaignIsActive\n        nonReentrant\n        whenNotPaused\n    {\n        require(block.timestamp > deadline);\n        require(\n            deadlineSetTimes <\n                CampaignFactoryLib.getCampaignFactoryConfig(\n                    campaignFactoryContract,\n                    \"deadlineStrikesAllowed\"\n                ),\n            \"exhausted strikes\"\n        );\n        require(\n            _time <=\n                CampaignFactoryLib.getCampaignFactoryConfig(\n                    campaignFactoryContract,\n                    \"maxDeadlineExtension\"\n                ) &&\n                _time >=\n                CampaignFactoryLib.getCampaignFactoryConfig(\n                    campaignFactoryContract,\n                    \"minDeadlineExtension\"\n                ),\n            \"time deficit\"\n        ); // ensure time exceeds 7 days and less than a day\n\n        deadline = block.timestamp.add(_time);\n\n        // limit ability to increase deadlines\n        deadlineSetTimes = deadlineSetTimes.add(1);\n\n        emit CampaignDeadlineExtended(this, _time, msg.sender);\n    }\n\n    /**\n     * @dev        Sets the number of times the campaign owner can extended deadlines. Restricted to factory\n     * @param      _count   Number of times a campaign owner can extend the deadline\n     */\n    function setDeadlineSetTimes(uint8 _count)\n        external\n        onlyFactory\n        campaignIsActive\n        whenNotPaused\n    {\n        deadlineSetTimes = _count;\n    }\n\n    /**\n     * @dev        Contribute method enables a user become an approver in the campaign\n     * @param      _token       Address of token to be used for transactions by default\n     * @param      _rewardId    Reward unique id\n     * @param      _withReward  Indicates if the user wants a reward alongside their contribution\n     */\n    function contribute(\n        address _token,\n        uint256 _rewardId,\n        bool _withReward\n    )\n        external\n        payable\n        campaignIsActive\n        userIsVerified(msg.sender)\n        whenNotPaused\n        nonReentrant\n    {\n        // campaign owner cannot contribute to own campaign\n        // token must be accepted\n        // contrubution amount must be less than or equal to allowed value from factory\n        require(block.timestamp <= deadline, \"deadline expired\");\n        require(msg.sender != root, \"root owner\");\n        require(_token == acceptedToken, \"invalid token\");\n        require(msg.value >= minimumContribution, \"value too low\");\n        require(\n            msg.value <=\n                CampaignFactoryLib.getCampaignFactoryConfig(\n                    campaignFactoryContract,\n                    \"maximumContributionAllowed\"\n                ),\n            \"value too high\"\n        );\n\n        if (!allowContributionAfterTargetIsMet) {\n            // check user contribution added to current total contribution doesn't exceed target\n            // if it does, calculate the amount to target completion return it back to user to change contribution value\n            require(\n                msg.value <= target &&\n                    totalCampaignContribution.add(msg.value) <= target,\n                \"exceeds target\"\n            );\n        }\n\n        if (_withReward) {\n            CampaignRewardLib._assignReward(\n                campaignRewardContract,\n                _rewardId,\n                msg.value,\n                msg.sender\n            );\n        }\n\n        if (!approvers[msg.sender]) {\n            approversCount = approversCount.add(1);\n            approvers[msg.sender] = true;\n        }\n\n        totalCampaignContribution = totalCampaignContribution.add(msg.value);\n        campaignBalance = campaignBalance.add(msg.value);\n        userTotalContribution[msg.sender] = userTotalContribution[msg.sender]\n            .add(msg.value);\n\n        // keep track of when target is met\n        if (totalCampaignContribution >= target) {\n            campaignState = CAMPAIGN_STATE.LIVE;\n            emit TargetMet(this, totalCampaignContribution, msg.sender);\n        }\n\n        SafeERC20Upgradeable.safeTransferFrom(\n            IERC20Upgradeable(acceptedToken),\n            msg.sender,\n            address(this),\n            msg.value\n        );\n\n        emit ContributionMade(this, msg.value, _rewardId, _withReward, msg.sender);\n    }\n\n    /**\n     * @dev        Allows withdrawal of contribution by a user, works if campaign target isn't met\n     * @param      _wallet    Address where amount is delivered\n     */\n    function withdrawOwnContribution(address payable _wallet)\n        external\n        userIsVerified(msg.sender)\n        nonReentrant\n    {\n        require(!withdrawalsPaused);\n        _withdrawContribution(msg.sender, _wallet);\n    }\n\n    /**\n     * @dev        Allows withdrawal of balance by factory on behalf of a user. \n                   Cases where users wallet is compromised\n     * @param      _user      User whose funds are being requested\n     * @param      _wallet    Address where amount is delivered\n     */\n    function withdrawContributionForUser(address _user, address payable _wallet)\n        external\n        onlyFactory\n        nonReentrant\n    {\n        require(!withdrawalsPaused);\n        _withdrawContribution(_user, _wallet);\n    }\n\n    /**\n     * @dev        Used to measure user funds left after request finalizations\n     * @param      _user    Address of user check is carried out on\n     */\n    function userContributionLoss(address _user) public view returns (uint256) {\n        require(!userContributionWithdrawn[_user], \"balance withdrawn\");\n\n        // calculate % loss between totalCampaginContribution and campaginBalance\n        DecimalMath.UFixed memory percentTakenSoFar = DecimalMath.muld(\n            DecimalMath.divd(\n                totalCampaignContribution.sub(campaignBalance),\n                totalCampaignContribution\n            ),\n            percent\n        );\n        // calculate % loss of userBalance and subtract loss\n        uint256 userLoss = DecimalMath.muldrup(\n            userTotalContribution[_user],\n            DecimalMath.divd(percentTakenSoFar, percent)\n        );\n\n        return userLoss;\n    }\n\n    /**\n     * @dev        Private `_withdrawContribution` implemented by `withdrawOwnContribution` and `withdrawContributionForUser`\n     * @param      _user      User whose funds are being requested\n     * @param      _wallet    Address where amount is delivered\n     */\n    function _withdrawContribution(address _user, address _wallet) private {\n        // if the campaign state is neither unsuccessful and in review and there are reviews\n        // allow withdrawls\n        require(address(_wallet) != address(0));\n        require(!userContributionWithdrawn[_user], \"balance withdrawn\");\n        require(approvers[_user], \"non approver\");\n\n        if (\n            campaignState != CAMPAIGN_STATE.UNSUCCESSFUL &&\n            campaignState != CAMPAIGN_STATE.REVIEW &&\n            reviewCount < 1\n        ) {\n            // pledge collection ongoing and no request was successful\n            require(\n                campaignState == CAMPAIGN_STATE.COLLECTION,\n                \"no longer in collection stage\"\n            );\n            require(finalizedRequestCount < 1, \"request(s) finalized\");\n        }\n        uint256 maxBalance = userTotalContribution[_user].sub(\n            userContributionLoss(_user)\n        );\n\n        // no longer eligible for any reward if campaign is not unsuccessful or in review\n        // for record keeping purposes\n        if (\n            campaignState != CAMPAIGN_STATE.UNSUCCESSFUL &&\n            campaignState != CAMPAIGN_STATE.REVIEW\n        ) {\n            CampaignRewardLib._renounceRewards(campaignRewardContract, _user);\n\n            // decrement total contributions to campaign\n            campaignBalance = campaignBalance.sub(maxBalance);\n            totalCampaignContribution = totalCampaignContribution.sub(\n                maxBalance\n            );\n\n            // mark user as a non contributor\n            approvers[_user] = false;\n\n            // reduce approvers count\n            approversCount = approversCount.sub(1);\n\n            userTotalContribution[_user] = 0;\n        } else {\n            userTotalContribution[_user] = userTotalContribution[_user].sub(\n                maxBalance\n            );\n        }\n        userContributionWithdrawn[_user] = true;\n\n        // transfer to _user\n        SafeERC20Upgradeable.safeTransfer(\n            IERC20Upgradeable(acceptedToken),\n            _wallet,\n            maxBalance\n        );\n\n        emit ContributionWithdrawn(this, maxBalance, _user, msg.sender);\n    }\n\n    /**\n     * @dev        Creates a formal request to withdraw funds from user contributions called by the campagn manager or factory\n                   Restricted unless target is met and deadline is expired\n     * @param      _recipient   Address where requested funds are deposited\n     * @param      _value       Amount being requested by the campaign manager\n     * @param      _duration    Duration until users aren't able to vote on the request\n     */\n    function createRequest(\n        address payable _recipient,\n        uint256 _value,\n        uint256 _duration\n    )\n        external\n        adminOrFactory\n        campaignIsActive\n        userIsVerified(msg.sender)\n        whenNotPaused\n    {\n        require(address(_recipient) != address(0));\n\n        if (totalCampaignContribution < target)\n            require(block.timestamp >= deadline, \"deadline not expired\");\n        \n        if (goalType == GOALTYPE.FIXED) {\n            require(\n                totalCampaignContribution >= target &&\n                    campaignState == CAMPAIGN_STATE.LIVE,\n                \"target not met\"\n            );\n        }\n        require(\n            _value >=\n                CampaignFactoryLib.getCampaignFactoryConfig(\n                    campaignFactoryContract,\n                    \"minimumRequestAmountAllowed\"\n                ) && _value <=\n                CampaignFactoryLib.getCampaignFactoryConfig(\n                    campaignFactoryContract,\n                    \"maximumRequestAmountAllowed\"\n                ),\n            \"amount deficit\"\n        );\n        require(\n            _value <= campaignBalance,\n            \"amount higher than balance\"\n        );\n        require(\n            _duration >=\n                CampaignFactoryLib.getCampaignFactoryConfig(\n                    campaignFactoryContract,\n                    \"minRequestDuration\"\n                ) && _duration <=\n                CampaignFactoryLib.getCampaignFactoryConfig(\n                    campaignFactoryContract,\n                    \"maxRequestDuration\"\n                ),\n            \"duration deficit\"\n        );\n\n        // before creating a new request last request should be complete\n        // applies if there's a request before\n        if (requestCount >= 1)\n            require(\n                requests[currentRunningRequest].complete,\n                \"request ongoing\"\n            );\n\n        requests.push(\n            Request(\n                _recipient,\n                false,\n                _value,\n                0,\n                0,\n                0,\n                block.timestamp.add(_duration),\n                false\n            )\n        );\n        requestCount = requestCount.add(1);\n        currentRunningRequest = requests.length.sub(1);\n\n        emit RequestAdded(\n            requests.length.sub(1),\n            this,\n            _duration,\n            _value,\n            _recipient,\n            msg.sender\n        );\n    }\n\n    /**\n     * @dev        Renders a request void and useless\n     * @param      _requestId   ID of request being voided\n     */\n    function voidRequest(uint256 _requestId)\n        external\n        adminOrFactory\n        campaignIsActive\n        userIsVerified(msg.sender)\n        whenNotPaused\n    {\n        // request must not be void\n        // request must have no votes\n        // request should not have been finalized\n        require(!requests[_requestId].void, \"voided\");\n        require(requests[_requestId].approvalCount < 1, \"has approvals\");\n        // require(!requests[_requestId].complete, \"already finalized\");\n\n        requests[_requestId].void = true;\n\n        emit RequestVoided(_requestId, this, msg.sender);\n    }\n\n    /**\n     * @dev        Approvers only method which approves spending request issued by the campaign manager or factory\n     * @param      _requestId   ID of request being voted on\n     * @param      _support     An integer of 0 for against, 1 for in-favor, and 2 for abstain\n     */\n    function voteOnRequest(uint256 _requestId, uint8 _support)\n        external\n        campaignIsActive\n        userIsVerified(msg.sender)\n        whenNotPaused\n    {\n        require(approvers[msg.sender], \"non approver\");\n        require(!hasVoted[_requestId][msg.sender], \"voted\");\n        require(\n            block.timestamp <= requests[_requestId].duration,\n            \"request expired\"\n        );\n\n        require(!requests[_requestId].void, \"voided\");\n\n        hasVoted[_requestId][msg.sender] = true;\n        requestSupport[_requestId][msg.sender] = _support;\n\n        if (_support == 0) {\n            requests[_requestId].againstCount = requests[_requestId]\n                .againstCount\n                .add(1);\n        } else if (_support == 1) {\n            requests[_requestId].approvalCount = requests[_requestId]\n                .approvalCount\n                .add(1);\n        } else {\n            requests[_requestId].abstainedCount = requests[_requestId]\n                .abstainedCount\n                .add(1);\n        }\n\n        emit Voted(_requestId, _support, this, msg.sender);\n    }\n\n    /**\n     * @dev        Approvers only method which cancels initial vote on a request\n     * @param      _requestId   ID of request being voted on\n     */\n    function cancelVote(uint256 _requestId)\n        external\n        campaignIsActive\n        userIsVerified(msg.sender)\n        whenNotPaused\n    {\n        require(approvers[msg.sender], \"non approver\");\n        require(\n            block.timestamp <= requests[_requestId].duration,\n            \"request expired\"\n        );\n        require(hasVoted[_requestId][msg.sender], \"vote first\");\n\n        hasVoted[_requestId][msg.sender] = false;\n\n        if (requestSupport[_requestId][msg.sender] == 0) {\n            requests[_requestId].againstCount = requests[_requestId]\n                .againstCount\n                .sub(1);\n        } else if (requestSupport[_requestId][msg.sender] == 1) {\n            requests[_requestId].approvalCount = requests[_requestId]\n                .approvalCount\n                .sub(1);\n        } else {\n            requests[_requestId].abstainedCount = requests[_requestId]\n                .abstainedCount\n                .sub(1);\n        }\n\n        emit VoteCancelled(\n            _requestId,\n            requestSupport[_requestId][msg.sender],\n            this,\n            msg.sender\n        );\n    }\n\n    /**\n     * @dev        Withdrawal method called only when a request receives the right amount votes\n     * @param      _requestId      ID of request being withdrawn\n     */\n    function finalizeRequest(uint256 _requestId)\n        external\n        adminOrFactory\n        campaignIsActive\n        userIsVerified(msg.sender)\n        whenNotPaused\n        nonReentrant\n    {\n        Request storage request = requests[_requestId];\n        // more than 50% of approvers to finalize\n        DecimalMath.UFixed memory percentOfRequestApprovals = DecimalMath.muld(\n            DecimalMath.divd(\n                DecimalMath.toUFixed(request.approvalCount),\n                DecimalMath.toUFixed(approversCount)\n            ),\n            percent\n        );\n        uint256 requestFinalizationThreshold = 51;\n        require(\n            percentOfRequestApprovals.value >=\n                requestFinalizationThreshold.mul(DecimalMath.UNIT),\n            \"approval deficit\"\n        );\n        require(!request.complete, \"finalized\");\n\n        DecimalMath.UFixed memory factoryFee = DecimalMath.muld(\n            DecimalMath.divd(\n                CampaignFactoryLib.factoryPercentFee(\n                    campaignFactoryContract,\n                    campaignID\n                ),\n                percent\n            ),\n            request.value\n        );\n\n        uint256[2] memory payouts = [\n            request.value.sub(factoryFee.value),\n            factoryFee.value\n        ];\n        address payable[2] memory addresses = [\n            request.recipient,\n            campaignFactoryContract.factoryWallet()\n        ];\n\n        request.complete = true;\n        finalizedRequestCount = finalizedRequestCount.add(1);\n        campaignBalance = campaignBalance.sub(request.value);\n\n        CampaignFactoryLib.sendCommissionFee(\n            campaignFactoryContract,\n            address(this),\n            factoryFee.value\n        );\n\n        for (uint256 i = 0; i < addresses.length; i++) {\n            SafeERC20Upgradeable.safeTransfer(\n                IERC20Upgradeable(acceptedToken),\n                addresses[i],\n                payouts[i]\n            );\n        }\n\n        emit RequestComplete(_requestId, this, msg.sender);\n    }\n\n    /// @dev Pauses the campaign and switches `campaignState` to `REVIEW` indicating it's ready to be reviewd by it's approvers after the campaign is over\n    function reviewMode()\n        external\n        adminOrFactory\n        campaignIsActive\n        userIsVerified(msg.sender)\n        whenNotPaused\n    {\n        // ensure finalized requests is more than 1\n        // ensure no pending request\n        // ensure campaign state is running\n        require(\n            campaignState == CAMPAIGN_STATE.LIVE ||\n                campaignState == CAMPAIGN_STATE.COLLECTION,\n            \"not ongoing\"\n        );\n        require(finalizedRequestCount >= 1, \"no finalized requests\");\n        require(requests[currentRunningRequest].complete, \"request ongoing\");\n\n        campaignState = CAMPAIGN_STATE.REVIEW;\n        _pause();\n\n        emit CampaignStateChange(this, CAMPAIGN_STATE.REVIEW, msg.sender);\n    }\n\n    /// @dev User acknowledgement of review state enabled by the campaign owner\n    function reviewCampaignPerformance()\n        external\n        userIsVerified(msg.sender)\n        campaignIsActive\n        whenPaused\n    {\n        require(\n            campaignState == CAMPAIGN_STATE.REVIEW,\n            \"not in review\"\n        );\n        require(!reviewed[msg.sender], \"reviewed\");\n        require(approvers[msg.sender], \"non approver\");\n\n        reviewed[msg.sender] = true;\n\n        reviewCount = reviewCount.add(1);\n\n        emit CampaignReviewed(this, msg.sender);\n    }\n\n    /// @dev Called by campaign manager to mark the campaign as complete right after it secured enough reviews from users\n    function markCampaignComplete()\n        external\n        userIsVerified(msg.sender)\n        adminOrFactory\n        campaignIsActive\n        whenPaused\n    {\n        // check if reviewers count > 80% of approvers set campaign state to complete\n        DecimalMath.UFixed memory percentOfApprovals = DecimalMath.muld(\n            DecimalMath.divd(\n                DecimalMath.toUFixed(reviewCount),\n                DecimalMath.toUFixed(approversCount)\n            ),\n            percent\n        );\n        require(\n            campaignState == CAMPAIGN_STATE.REVIEW,\n            \"not in review\"\n        );\n        require(\n            percentOfApprovals.value >=\n                CampaignFactoryLib\n                    .getCampaignFactoryConfig(\n                        campaignFactoryContract,\n                        \"reviewThresholdMark\"\n                    )\n                    .mul(DecimalMath.UNIT),\n            \"review deficit\"\n        );\n        campaignState = CAMPAIGN_STATE.COMPLETE;\n\n        emit CampaignStateChange(\n            this,\n            CAMPAIGN_STATE.COMPLETE,\n            msg.sender\n        );\n    }\n    \n    /// @dev Called by an approver to report a campaign to factory. Campaign must be in collection or live state\n    function reportCampaign()\n        external\n        userIsVerified(msg.sender)\n        campaignIsActive\n        whenNotPaused\n    {\n        require(requestCount >= 1, \"no requests\");\n        require(approvers[msg.sender], \"non approver\");\n        require(\n            campaignState == CAMPAIGN_STATE.COLLECTION ||\n                campaignState == CAMPAIGN_STATE.LIVE,\n            \"not in collection or live state\"\n        );\n        require(!reported[msg.sender], \"reported\");\n\n        reported[msg.sender] = true;\n        reportCount = reportCount.add(1);\n\n        DecimalMath.UFixed memory percentOfReports = DecimalMath.muld(\n            DecimalMath.divd(\n                DecimalMath.toUFixed(reportCount),\n                DecimalMath.toUFixed(approversCount)\n            ),\n            percent\n        );\n        \n        if (percentOfReports.value \n            >= CampaignFactoryLib.getCampaignFactoryConfig(campaignFactoryContract, \"reportThresholdMark\").mul(DecimalMath.UNIT)\n        ) {\n            campaignState = CAMPAIGN_STATE.UNSUCCESSFUL;\n            _pause();\n        }\n\n        emit CampaignReported(this, msg.sender);\n    }\n\n    /// @dev Changes campaign state\n    function setCampaignState(uint256 _state) external onlyFactory {\n        campaignState = CAMPAIGN_STATE(_state);\n\n        emit CampaignStateChange(\n            this,\n            CAMPAIGN_STATE(_state),\n            msg.sender\n        );\n    }\n\n    /**\n     * @dev        Pauses or Unpauses withdrawals depending on state passed in argument\n     * @param      _state      Indicates pause or unpause state\n     */\n    function toggleWithdrawalState(bool _state) external onlyFactory {\n        withdrawalsPaused = _state;\n    }\n\n    /// @dev Unpauses the campaign, transactions in the campaign resume per usual\n    function unpauseCampaign() external whenPaused onlyFactory {\n        _unpause();\n    }\n\n    /// @dev Pauses the campaign, it halts all transactions in the campaign\n    function pauseCampaign() external whenNotPaused onlyFactory {\n        _pause();\n    }\n}\n",
  "sourcePath": "/Users/ngcx/Desktop/Web Dev/DApps/crowdship/crowdship-v1-core/contracts/Campaign.sol",
  "compiler": {
    "name": "solc",
    "version": "0.8.0+commit.c7dfd78e.Emscripten.clang"
  },
  "schemaVersion": "3.4.1",
  "updatedAt": "2021-09-25T22:19:23.853Z",
  "devdoc": {
    "events": {
      "CampaignOwnerSet(address,address,address)": {
        "details": "`Initializer Event`"
      },
      "CampaignOwnershipTransferred(address,address,address)": {
        "details": "`Campaign Config Events`"
      },
      "CampaignReviewed(address,address)": {
        "details": "`Review Events`"
      },
      "CampaignStateChange(address,uint8,address)": {
        "details": "`Campaign State Events`"
      },
      "CampaignUserDataTransferred(address,address,address,address)": {
        "details": "`Approval Transfer`"
      },
      "ContributionMade(address,uint256,uint256,bool,address)": {
        "details": "`Contribution Events`"
      },
      "RequestAdded(uint256,address,uint256,uint256,address,address)": {
        "details": "`Request Events`"
      },
      "Voted(uint256,uint8,address,address)": {
        "details": "`Vote Events`"
      }
    },
    "kind": "dev",
    "methods": {
      "__Campaign_init(address,address,address,uint256)": {
        "details": "Constructor",
        "params": {
          "_campaignFactory": "Address of factory",
          "_root": "Address of campaign owner"
        }
      },
      "cancelVote(uint256)": {
        "details": "Approvers only method which cancels initial vote on a request",
        "params": {
          "_requestId": "ID of request being voted on"
        }
      },
      "contribute(address,uint256,bool)": {
        "details": "Contribute method enables a user become an approver in the campaign",
        "params": {
          "_rewardId": "Reward unique id",
          "_token": "Address of token to be used for transactions by default",
          "_withReward": "Indicates if the user wants a reward alongside their contribution"
        }
      },
      "createRequest(address,uint256,uint256)": {
        "details": "Creates a formal request to withdraw funds from user contributions called by the campagn manager or factory Restricted unless target is met and deadline is expired",
        "params": {
          "_duration": "Duration until users aren't able to vote on the request",
          "_recipient": "Address where requested funds are deposited",
          "_value": "Amount being requested by the campaign manager"
        }
      },
      "extendDeadline(uint256)": {
        "details": "Extends campaign contribution deadline",
        "params": {
          "_time": "How long until the campaign stops receiving contributions"
        }
      },
      "finalizeRequest(uint256)": {
        "details": "Withdrawal method called only when a request receives the right amount votes",
        "params": {
          "_requestId": "ID of request being withdrawn"
        }
      },
      "getRoleAdmin(bytes32)": {
        "details": "Returns the admin role that controls `role`. See {grantRole} and {revokeRole}. To change a role's admin, use {_setRoleAdmin}."
      },
      "grantRole(bytes32,address)": {
        "details": "Grants `role` to `account`. If `account` had not been already granted `role`, emits a {RoleGranted} event. Requirements: - the caller must have ``role``'s admin role."
      },
      "hasRole(bytes32,address)": {
        "details": "Returns `true` if `account` has been granted `role`."
      },
      "markCampaignComplete()": {
        "details": "Called by campaign manager to mark the campaign as complete right after it secured enough reviews from users"
      },
      "pauseCampaign()": {
        "details": "Pauses the campaign, it halts all transactions in the campaign"
      },
      "paused()": {
        "details": "Returns true if the contract is paused, and false otherwise."
      },
      "renounceRole(bytes32,address)": {
        "details": "Revokes `role` from the calling account. Roles are often managed via {grantRole} and {revokeRole}: this function's purpose is to provide a mechanism for accounts to lose their privileges if they are compromised (such as when a trusted device is misplaced). If the calling account had been granted `role`, emits a {RoleRevoked} event. Requirements: - the caller must be `account`."
      },
      "reportCampaign()": {
        "details": "Called by an approver to report a campaign to factory. Campaign must be in collection or live state"
      },
      "reviewCampaignPerformance()": {
        "details": "User acknowledgement of review state enabled by the campaign owner"
      },
      "reviewMode()": {
        "details": "Pauses the campaign and switches `campaignState` to `REVIEW` indicating it's ready to be reviewd by it's approvers after the campaign is over"
      },
      "revokeRole(bytes32,address)": {
        "details": "Revokes `role` from `account`. If `account` had been granted `role`, emits a {RoleRevoked} event. Requirements: - the caller must have ``role``'s admin role."
      },
      "setCampaignSettings(uint256,uint256,uint256,uint256,address,bool)": {
        "details": "Modifies campaign details while it's not approved",
        "params": {
          "_allowContributionAfterTargetIsMet": "Indicates if the campaign can receive contributions after duration expires",
          "_duration": "How long until the campaign stops receiving contributions",
          "_goalType": "If flexible the campaign owner is able to create requests if targe isn't met, fixed opposite",
          "_minimumContribution": "The minimum amout required to be an approver",
          "_target": "Contribution target of the campaign",
          "_token": "Address of token to be used for transactions by default"
        }
      },
      "setCampaignState(uint256)": {
        "details": "Changes campaign state"
      },
      "setDeadlineSetTimes(uint8)": {
        "details": "Sets the number of times the campaign owner can extended deadlines. Restricted to factory",
        "params": {
          "_count": "Number of times a campaign owner can extend the deadline"
        }
      },
      "supportsInterface(bytes4)": {
        "details": "See {IERC165-supportsInterface}."
      },
      "toggleWithdrawalState(bool)": {
        "details": "Pauses or Unpauses withdrawals depending on state passed in argument",
        "params": {
          "_state": "Indicates pause or unpause state"
        }
      },
      "transferCampaignOwnership(address)": {
        "details": "Transfers campaign ownership from one user to another.",
        "params": {
          "_newRoot": "Address of the user campaign ownership is being transfered to"
        }
      },
      "transferCampaignUserData(address,address)": {
        "details": "Transfers user data in the campaign to another verifed user",
        "params": {
          "_newAddress": "Address of the user being transferred to",
          "_oldAddress": "Address of the user transferring"
        }
      },
      "unpauseCampaign()": {
        "details": "Unpauses the campaign, transactions in the campaign resume per usual"
      },
      "userContributionLoss(address)": {
        "details": "Used to measure user funds left after request finalizations",
        "params": {
          "_user": "Address of user check is carried out on"
        }
      },
      "voidRequest(uint256)": {
        "details": "Renders a request void and useless",
        "params": {
          "_requestId": "ID of request being voided"
        }
      },
      "voteOnRequest(uint256,uint8)": {
        "details": "Approvers only method which approves spending request issued by the campaign manager or factory",
        "params": {
          "_requestId": "ID of request being voted on",
          "_support": "An integer of 0 for against, 1 for in-favor, and 2 for abstain"
        }
      },
      "withdrawContributionForUser(address,address)": {
        "details": "Allows withdrawal of balance by factory on behalf of a user.  Cases where users wallet is compromised",
        "params": {
          "_user": "User whose funds are being requested",
          "_wallet": "Address where amount is delivered"
        }
      },
      "withdrawOwnContribution(address)": {
        "details": "Allows withdrawal of contribution by a user, works if campaign target isn't met",
        "params": {
          "_wallet": "Address where amount is delivered"
        }
      }
    },
    "stateVariables": {
      "reviewCount": {
        "details": "`Review`"
      }
    },
    "version": 1
  },
  "userdoc": {
    "kind": "user",
    "methods": {},
    "version": 1
  }
}