{
  "contractName": "CampaignRewards",
  "abi": [
    {
      "anonymous": false,
      "inputs": [
        {
          "indexed": true,
          "internalType": "contract Campaign",
          "name": "campaign",
          "type": "address"
        },
        {
          "indexed": false,
          "internalType": "address",
          "name": "owner",
          "type": "address"
        },
        {
          "indexed": false,
          "internalType": "address",
          "name": "sender",
          "type": "address"
        }
      ],
      "name": "CampaignRewardOwnerSet",
      "type": "event"
    },
    {
      "anonymous": false,
      "inputs": [
        {
          "indexed": true,
          "internalType": "uint256",
          "name": "rewardId",
          "type": "uint256"
        },
        {
          "indexed": true,
          "internalType": "contract Campaign",
          "name": "campaign",
          "type": "address"
        },
        {
          "indexed": false,
          "internalType": "uint256",
          "name": "value",
          "type": "uint256"
        },
        {
          "indexed": false,
          "internalType": "uint256",
          "name": "deliveryDate",
          "type": "uint256"
        },
        {
          "indexed": false,
          "internalType": "uint256",
          "name": "stock",
          "type": "uint256"
        },
        {
          "indexed": false,
          "internalType": "bool",
          "name": "active",
          "type": "bool"
        },
        {
          "indexed": false,
          "internalType": "address",
          "name": "sender",
          "type": "address"
        }
      ],
      "name": "RewardCreated",
      "type": "event"
    },
    {
      "anonymous": false,
      "inputs": [
        {
          "indexed": true,
          "internalType": "uint256",
          "name": "rewardId",
          "type": "uint256"
        },
        {
          "indexed": true,
          "internalType": "contract Campaign",
          "name": "campaign",
          "type": "address"
        },
        {
          "indexed": false,
          "internalType": "address",
          "name": "sender",
          "type": "address"
        }
      ],
      "name": "RewardDestroyed",
      "type": "event"
    },
    {
      "anonymous": false,
      "inputs": [
        {
          "indexed": true,
          "internalType": "uint256",
          "name": "rewardId",
          "type": "uint256"
        },
        {
          "indexed": true,
          "internalType": "contract Campaign",
          "name": "campaign",
          "type": "address"
        },
        {
          "indexed": false,
          "internalType": "uint256",
          "name": "value",
          "type": "uint256"
        },
        {
          "indexed": false,
          "internalType": "uint256",
          "name": "deliveryDate",
          "type": "uint256"
        },
        {
          "indexed": false,
          "internalType": "uint256",
          "name": "stock",
          "type": "uint256"
        },
        {
          "indexed": false,
          "internalType": "bool",
          "name": "active",
          "type": "bool"
        },
        {
          "indexed": false,
          "internalType": "address",
          "name": "sender",
          "type": "address"
        }
      ],
      "name": "RewardModified",
      "type": "event"
    },
    {
      "anonymous": false,
      "inputs": [
        {
          "indexed": true,
          "internalType": "uint256",
          "name": "rewardId",
          "type": "uint256"
        },
        {
          "indexed": true,
          "internalType": "contract Campaign",
          "name": "campaign",
          "type": "address"
        },
        {
          "indexed": false,
          "internalType": "uint256",
          "name": "amount",
          "type": "uint256"
        },
        {
          "indexed": false,
          "internalType": "address",
          "name": "sender",
          "type": "address"
        }
      ],
      "name": "RewardRecipientAdded",
      "type": "event"
    },
    {
      "anonymous": false,
      "inputs": [
        {
          "indexed": true,
          "internalType": "uint256",
          "name": "rewardRecipientId",
          "type": "uint256"
        },
        {
          "indexed": true,
          "internalType": "contract Campaign",
          "name": "campaign",
          "type": "address"
        },
        {
          "indexed": false,
          "internalType": "address",
          "name": "sender",
          "type": "address"
        }
      ],
      "name": "RewardRecipientApproval",
      "type": "event"
    },
    {
      "anonymous": false,
      "inputs": [
        {
          "indexed": true,
          "internalType": "uint256",
          "name": "rewardId",
          "type": "uint256"
        },
        {
          "indexed": true,
          "internalType": "contract Campaign",
          "name": "campaign",
          "type": "address"
        },
        {
          "indexed": false,
          "internalType": "uint256",
          "name": "count",
          "type": "uint256"
        },
        {
          "indexed": false,
          "internalType": "address",
          "name": "sender",
          "type": "address"
        }
      ],
      "name": "RewardStockIncreased",
      "type": "event"
    },
    {
      "anonymous": false,
      "inputs": [
        {
          "indexed": true,
          "internalType": "uint256",
          "name": "rewardRecipientId",
          "type": "uint256"
        },
        {
          "indexed": true,
          "internalType": "contract Campaign",
          "name": "campaign",
          "type": "address"
        },
        {
          "indexed": false,
          "internalType": "bool",
          "name": "status",
          "type": "bool"
        },
        {
          "indexed": false,
          "internalType": "address",
          "name": "sender",
          "type": "address"
        }
      ],
      "name": "RewarderApproval",
      "type": "event"
    },
    {
      "anonymous": false,
      "inputs": [
        {
          "indexed": true,
          "internalType": "bytes32",
          "name": "role",
          "type": "bytes32"
        },
        {
          "indexed": true,
          "internalType": "bytes32",
          "name": "previousAdminRole",
          "type": "bytes32"
        },
        {
          "indexed": true,
          "internalType": "bytes32",
          "name": "newAdminRole",
          "type": "bytes32"
        }
      ],
      "name": "RoleAdminChanged",
      "type": "event"
    },
    {
      "anonymous": false,
      "inputs": [
        {
          "indexed": true,
          "internalType": "bytes32",
          "name": "role",
          "type": "bytes32"
        },
        {
          "indexed": true,
          "internalType": "address",
          "name": "account",
          "type": "address"
        },
        {
          "indexed": true,
          "internalType": "address",
          "name": "sender",
          "type": "address"
        }
      ],
      "name": "RoleGranted",
      "type": "event"
    },
    {
      "anonymous": false,
      "inputs": [
        {
          "indexed": true,
          "internalType": "bytes32",
          "name": "role",
          "type": "bytes32"
        },
        {
          "indexed": true,
          "internalType": "address",
          "name": "account",
          "type": "address"
        },
        {
          "indexed": true,
          "internalType": "address",
          "name": "sender",
          "type": "address"
        }
      ],
      "name": "RoleRevoked",
      "type": "event"
    },
    {
      "inputs": [],
      "name": "DEFAULT_ADMIN_ROLE",
      "outputs": [
        {
          "internalType": "bytes32",
          "name": "",
          "type": "bytes32"
        }
      ],
      "stateMutability": "view",
      "type": "function"
    },
    {
      "inputs": [],
      "name": "campaign",
      "outputs": [
        {
          "internalType": "contract Campaign",
          "name": "",
          "type": "address"
        }
      ],
      "stateMutability": "view",
      "type": "function"
    },
    {
      "inputs": [],
      "name": "campaignContract",
      "outputs": [
        {
          "internalType": "contract CampaignInterface",
          "name": "",
          "type": "address"
        }
      ],
      "stateMutability": "view",
      "type": "function"
    },
    {
      "inputs": [],
      "name": "campaignFactoryContract",
      "outputs": [
        {
          "internalType": "contract CampaignFactoryInterface",
          "name": "",
          "type": "address"
        }
      ],
      "stateMutability": "view",
      "type": "function"
    },
    {
      "inputs": [],
      "name": "campaignID",
      "outputs": [
        {
          "internalType": "uint256",
          "name": "",
          "type": "uint256"
        }
      ],
      "stateMutability": "view",
      "type": "function"
    },
    {
      "inputs": [],
      "name": "campaignRewardAddress",
      "outputs": [
        {
          "internalType": "address",
          "name": "",
          "type": "address"
        }
      ],
      "stateMutability": "view",
      "type": "function"
    },
    {
      "inputs": [
        {
          "internalType": "bytes32",
          "name": "role",
          "type": "bytes32"
        }
      ],
      "name": "getRoleAdmin",
      "outputs": [
        {
          "internalType": "bytes32",
          "name": "",
          "type": "bytes32"
        }
      ],
      "stateMutability": "view",
      "type": "function"
    },
    {
      "inputs": [
        {
          "internalType": "bytes32",
          "name": "role",
          "type": "bytes32"
        },
        {
          "internalType": "address",
          "name": "account",
          "type": "address"
        }
      ],
      "name": "grantRole",
      "outputs": [],
      "stateMutability": "nonpayable",
      "type": "function"
    },
    {
      "inputs": [
        {
          "internalType": "bytes32",
          "name": "role",
          "type": "bytes32"
        },
        {
          "internalType": "address",
          "name": "account",
          "type": "address"
        }
      ],
      "name": "hasRole",
      "outputs": [
        {
          "internalType": "bool",
          "name": "",
          "type": "bool"
        }
      ],
      "stateMutability": "view",
      "type": "function"
    },
    {
      "inputs": [
        {
          "internalType": "bytes32",
          "name": "role",
          "type": "bytes32"
        },
        {
          "internalType": "address",
          "name": "account",
          "type": "address"
        }
      ],
      "name": "renounceRole",
      "outputs": [],
      "stateMutability": "nonpayable",
      "type": "function"
    },
    {
      "inputs": [
        {
          "internalType": "bytes32",
          "name": "role",
          "type": "bytes32"
        },
        {
          "internalType": "address",
          "name": "account",
          "type": "address"
        }
      ],
      "name": "revokeRole",
      "outputs": [],
      "stateMutability": "nonpayable",
      "type": "function"
    },
    {
      "inputs": [
        {
          "internalType": "uint256",
          "name": "",
          "type": "uint256"
        }
      ],
      "name": "rewardRecipients",
      "outputs": [
        {
          "internalType": "uint256",
          "name": "rewardId",
          "type": "uint256"
        },
        {
          "internalType": "address",
          "name": "user",
          "type": "address"
        },
        {
          "internalType": "bool",
          "name": "deliveryConfirmedByCampaign",
          "type": "bool"
        },
        {
          "internalType": "bool",
          "name": "deliveryConfirmedByUser",
          "type": "bool"
        }
      ],
      "stateMutability": "view",
      "type": "function"
    },
    {
      "inputs": [
        {
          "internalType": "uint256",
          "name": "",
          "type": "uint256"
        }
      ],
      "name": "rewardToRewardRecipientCount",
      "outputs": [
        {
          "internalType": "uint256",
          "name": "",
          "type": "uint256"
        }
      ],
      "stateMutability": "view",
      "type": "function"
    },
    {
      "inputs": [
        {
          "internalType": "uint256",
          "name": "",
          "type": "uint256"
        }
      ],
      "name": "rewards",
      "outputs": [
        {
          "internalType": "uint256",
          "name": "value",
          "type": "uint256"
        },
        {
          "internalType": "uint256",
          "name": "deliveryDate",
          "type": "uint256"
        },
        {
          "internalType": "uint256",
          "name": "stock",
          "type": "uint256"
        },
        {
          "internalType": "bool",
          "name": "exists",
          "type": "bool"
        },
        {
          "internalType": "bool",
          "name": "active",
          "type": "bool"
        }
      ],
      "stateMutability": "view",
      "type": "function"
    },
    {
      "inputs": [],
      "name": "root",
      "outputs": [
        {
          "internalType": "address",
          "name": "",
          "type": "address"
        }
      ],
      "stateMutability": "view",
      "type": "function"
    },
    {
      "inputs": [
        {
          "internalType": "bytes4",
          "name": "interfaceId",
          "type": "bytes4"
        }
      ],
      "name": "supportsInterface",
      "outputs": [
        {
          "internalType": "bool",
          "name": "",
          "type": "bool"
        }
      ],
      "stateMutability": "view",
      "type": "function"
    },
    {
      "inputs": [
        {
          "internalType": "address",
          "name": "",
          "type": "address"
        }
      ],
      "name": "userRewardCount",
      "outputs": [
        {
          "internalType": "uint256",
          "name": "",
          "type": "uint256"
        }
      ],
      "stateMutability": "view",
      "type": "function"
    },
    {
      "inputs": [
        {
          "internalType": "contract CampaignFactory",
          "name": "_campaignFactory",
          "type": "address"
        },
        {
          "internalType": "contract Campaign",
          "name": "_campaign",
          "type": "address"
        },
        {
          "internalType": "address",
          "name": "_campaignOwner",
          "type": "address"
        },
        {
          "internalType": "uint256",
          "name": "_campaignId",
          "type": "uint256"
        }
      ],
      "name": "__CampaignRewards_init",
      "outputs": [],
      "stateMutability": "nonpayable",
      "type": "function"
    },
    {
      "inputs": [
        {
          "internalType": "uint256",
          "name": "_value",
          "type": "uint256"
        },
        {
          "internalType": "uint256",
          "name": "_deliveryDate",
          "type": "uint256"
        },
        {
          "internalType": "uint256",
          "name": "_stock",
          "type": "uint256"
        },
        {
          "internalType": "bool",
          "name": "_active",
          "type": "bool"
        }
      ],
      "name": "createReward",
      "outputs": [],
      "stateMutability": "nonpayable",
      "type": "function"
    },
    {
      "inputs": [
        {
          "internalType": "uint256",
          "name": "_rewardId",
          "type": "uint256"
        },
        {
          "internalType": "uint256",
          "name": "_amount",
          "type": "uint256"
        },
        {
          "internalType": "address",
          "name": "_user",
          "type": "address"
        }
      ],
      "name": "assignReward",
      "outputs": [],
      "stateMutability": "nonpayable",
      "type": "function"
    },
    {
      "inputs": [
        {
          "internalType": "uint256",
          "name": "_rewardId",
          "type": "uint256"
        },
        {
          "internalType": "uint256",
          "name": "_value",
          "type": "uint256"
        },
        {
          "internalType": "uint256",
          "name": "_deliveryDate",
          "type": "uint256"
        },
        {
          "internalType": "uint256",
          "name": "_stock",
          "type": "uint256"
        },
        {
          "internalType": "bool",
          "name": "_active",
          "type": "bool"
        }
      ],
      "name": "modifyReward",
      "outputs": [],
      "stateMutability": "nonpayable",
      "type": "function"
    },
    {
      "inputs": [
        {
          "internalType": "uint256",
          "name": "_rewardId",
          "type": "uint256"
        },
        {
          "internalType": "uint256",
          "name": "_count",
          "type": "uint256"
        }
      ],
      "name": "increaseRewardStock",
      "outputs": [],
      "stateMutability": "nonpayable",
      "type": "function"
    },
    {
      "inputs": [
        {
          "internalType": "uint256",
          "name": "_rewardId",
          "type": "uint256"
        }
      ],
      "name": "destroyReward",
      "outputs": [],
      "stateMutability": "nonpayable",
      "type": "function"
    },
    {
      "inputs": [
        {
          "internalType": "uint256",
          "name": "_rewardRecipientId",
          "type": "uint256"
        },
        {
          "internalType": "bool",
          "name": "_status",
          "type": "bool"
        }
      ],
      "name": "campaignSentReward",
      "outputs": [],
      "stateMutability": "nonpayable",
      "type": "function"
    },
    {
      "inputs": [
        {
          "internalType": "uint256",
          "name": "_rewardRecipientId",
          "type": "uint256"
        }
      ],
      "name": "userReceivedCampaignReward",
      "outputs": [],
      "stateMutability": "nonpayable",
      "type": "function"
    },
    {
      "inputs": [
        {
          "internalType": "address",
          "name": "_user",
          "type": "address"
        }
      ],
      "name": "renounceRewards",
      "outputs": [],
      "stateMutability": "nonpayable",
      "type": "function"
    },
    {
      "inputs": [
        {
          "internalType": "address",
          "name": "_oldAddress",
          "type": "address"
        },
        {
          "internalType": "address",
          "name": "_newAddress",
          "type": "address"
        }
      ],
      "name": "transferRewards",
      "outputs": [],
      "stateMutability": "nonpayable",
      "type": "function"
    }
  ],
  "bytecode": "0x608060405234801561001057600080fd5b50612a2a806100206000396000f3fe608060405234801561001057600080fd5b50600436106101495760003560e01c806301ffc9a71461014e5780630c3d2113146101775780630e6a924b1461018c57806316757c15146101a1578063248a9ca3146101b45780632d9fac52146101d45780632f2ff15d146101f757806336568abe1461020a5780633abcc15c1461021d57806349ed2fa91461023057806358ae05cd1461023857806363f2fd75146102405780637e0f9dd114610253578063811e539c1461025b5780638632e9661461026357806391d148541461027657806391d7e1ca14610289578063a217fddf1461029c578063aaee6a1f146102a4578063b4e34fd8146102b7578063c5a2c498146102ca578063d222aba5146102dd578063d547741f146102f0578063e9709bf014610303578063e9b8657214610316578063ebf0c71714610329578063f301af4214610331575b600080fd5b61016161015c36600461225c565b610355565b60405161016e9190612484565b60405180910390f35b61017f610380565b60405161016e9190612456565b61019f61019a366004612284565b61038f565b005b61019f6101af366004612310565b6104d7565b6101c76101c2366004612220565b610675565b60405161016e91906124a8565b6101e76101e2366004612220565b61068a565b60405161016e949392919061288f565b61019f610205366004612238565b6106d7565b61019f610218366004612238565b610700565b61019f61022b3660046120b3565b610746565b6101c761088f565b61017f610895565b61019f61024e366004612220565b6108a4565b61017f610b4e565b61017f610b5d565b61019f610271366004612369565b610b6c565b610161610284366004612238565b610e15565b6101c76102973660046120b3565b610e40565b6101c7610e52565b61019f6102b23660046122ec565b610e57565b61019f6102c53660046123a9565b611009565b6101c76102d8366004612220565b61131e565b61019f6102eb366004612220565b611330565b61019f6102fe366004612238565b6114cd565b61019f610311366004612331565b6114ec565b61019f6103243660046120cf565b611842565b61017f6119a8565b61034461033f366004612220565b6119b7565b60405161016e9594939291906128e5565b60006001600160e01b03198216637965db0b60e01b148061037a575061037a826119fd565b92915050565b609a546001600160a01b031681565b600054610100900460ff16806103a8575060005460ff16155b6103cd5760405162461bcd60e51b81526004016103c490612637565b60405180910390fd5b600054610100900460ff161580156103f8576000805460ff1961ff0019909116610100171660011790555b6001600160a01b03831661041e5760405162461bcd60e51b81526004016103c49061272d565b610429600084611a16565b609780546001600160a01b038088166001600160a01b031992831617909255609880548784169083168117909155609c859055609b8054831682179055609980548785169084161790819055609a8054909316301790925560405190927f174da674710f1414128a64d6dc9b43aea5a092668eae6636f4c45462d5eb7838926104b692911690339061246a565b60405180910390a280156104d0576000805461ff00191690555b5050505050565b6097546104ed906001600160a01b031633611a20565b806104fe57506104fe600033610e15565b61051a5760405162461bcd60e51b81526004016103c4906127ae565b6097543390600090610535906001600160a01b031683611aa6565b91508190506105565760405162461bcd60e51b81526004016103c4906127d8565b609d848154811061057757634e487b7160e01b600052603260045260246000fd5b600091825260209091206003600490920201015460ff166105aa5760405162461bcd60e51b81526004016103c4906126e1565b6105ef83609d86815481106105cf57634e487b7160e01b600052603260045260246000fd5b906000526020600020906004020160020154611bf590919063ffffffff16565b609d858154811061061057634e487b7160e01b600052603260045260246000fd5b6000918252602090912060026004909202010155609b546040516001600160a01b039091169085907fbf27af88f95754886c3a63dfb74c7cdd88b4b19dfabf8cf58dc6586531ac10e9906106679087903390612878565b60405180910390a350505050565b60009081526065602052604090206001015490565b609f818154811061069a57600080fd5b6000918252602090912060029091020180546001909101549091506001600160a01b0381169060ff600160a01b8204811691600160a81b90041684565b6106e082610675565b6106f1816106ec611c01565b611c05565b6106fb8383611c69565b505050565b610708611c01565b6001600160a01b0316816001600160a01b0316146107385760405162461bcd60e51b81526004016103c490612829565b6107428282611cf0565b5050565b609754609c54600091610764916001600160a01b0390911690611d75565b5092935050506001600160a01b038216331490506107945760405162461bcd60e51b81526004016103c490612545565b6001600160a01b038216600090815260a06020526040902054600111610742576001600160a01b038216600090815260a0602052604081208190555b609f548110156106fb576108336001609e6000609f858154811061080457634e487b7160e01b600052603260045260246000fd5b906000526020600020906002020160000154815260200190815260200160002054611e4890919063ffffffff16565b609e6000609f848154811061085857634e487b7160e01b600052603260045260246000fd5b90600052602060002090600202016000015481526020019081526020016000208190555080806108879061299d565b9150506107d0565b609c5481565b6098546001600160a01b031681565b609754609c5460009182916108c2916001600160a01b031690611d75565b909550935084925050811590506108d65750805b6108f25760405162461bcd60e51b81526004016103c490612568565b609754339060009061090d906001600160a01b031683611aa6565b915081905061092e5760405162461bcd60e51b81526004016103c4906127d8565b609854610944906001600160a01b031633611e54565b6109605760405162461bcd60e51b81526004016103c490612753565b609f858154811061098157634e487b7160e01b600052603260045260246000fd5b906000526020600020906002020160010160149054906101000a900460ff166109bc5760405162461bcd60e51b81526004016103c49061277c565b609f85815481106109dd57634e487b7160e01b600052603260045260246000fd5b906000526020600020906002020160010160159054906101000a900460ff1615610a195760405162461bcd60e51b81526004016103c490612685565b336001600160a01b0316609f8681548110610a4457634e487b7160e01b600052603260045260246000fd5b60009182526020909120600160029092020101546001600160a01b031614610a7e5760405162461bcd60e51b81526004016103c49061260a565b33600090815260a0602052604090205460011115610aae5760405162461bcd60e51b81526004016103c490612519565b6001609f8681548110610ad157634e487b7160e01b600052603260045260246000fd5b600091825260209091206001600290920201018054911515600160a81b0260ff60a81b19909216919091179055609b546040516001600160a01b039091169086907f01ef598b861b26b1822bf153d0509a25184b0c6f34b849d710cd17646d23606690610b3f903390612456565b60405180910390a35050505050565b6097546001600160a01b031681565b609b546001600160a01b031681565b609754610b82906001600160a01b031633611a20565b80610b935750610b93600033610e15565b610baf5760405162461bcd60e51b81526004016103c4906127ae565b6097543390600090610bca906001600160a01b031683611aa6565b9150819050610beb5760405162461bcd60e51b81526004016103c4906127d8565b60975460408051808201909152601a8152791b5a5b9a5b5d5b50dbdb9d1c9a589d5d1a5bdb905b1b1bddd95960321b6020820152610c32916001600160a01b031690611e83565b8611610c505760405162461bcd60e51b81526004016103c4906125e2565b60975460408051808201909152601a8152791b585e1a5b5d5b50dbdb9d1c9a589d5d1a5bdb905b1b1bddd95960321b6020820152610c97916001600160a01b031690611e83565b8610610cb55760405162461bcd60e51b81526004016103c490612704565b6040805160a0810182528781526020810187815291810186815260016060830181815287151560808501908152609d80548085018255600082905295517fd26e832454299e9fabb89e0e5fffdc046d4e14431bc1bf607ffb2e8a1ddecf7b60049097029687015595517fd26e832454299e9fabb89e0e5fffdc046d4e14431bc1bf607ffb2e8a1ddecf7c86015592517fd26e832454299e9fabb89e0e5fffdc046d4e14431bc1bf607ffb2e8a1ddecf7d850155517fd26e832454299e9fabb89e0e5fffdc046d4e14431bc1bf607ffb2e8a1ddecf7e9093018054925160ff199093169315159390931761ff0019166101009215159290920291909117909155609b5491546001600160a01b0390921691610dce91611e48565b7f02ef03742338ed4857e3ad15f13445688eb7b1fd23c5303c1c1d5cde22bfd4fe8888888833604051610e059594939291906128b7565b60405180910390a3505050505050565b60009182526065602090815260408084206001600160a01b0393909316845291905290205460ff1690565b60a06020526000908152604090205481565b600081565b609754609c546000918291610e75916001600160a01b031690611d75565b90955093508492505081159050610e895750805b610ea55760405162461bcd60e51b81526004016103c490612568565b6097543390600090610ec0906001600160a01b031683611aa6565b9150819050610ee15760405162461bcd60e51b81526004016103c4906127d8565b609754610ef7906001600160a01b031633611a20565b80610f085750610f08600033610e15565b610f245760405162461bcd60e51b81526004016103c4906127ae565b6001609e6000609f8981548110610f4b57634e487b7160e01b600052603260045260246000fd5b9060005260206000209060020201600001548152602001908152602001600020541015610f7757600080fd5b84609f8781548110610f9957634e487b7160e01b600052603260045260246000fd5b600091825260209091206001600290920201018054911515600160a01b0260ff60a01b19909216919091179055609b546040516001600160a01b039091169087907f10034ad8d4962b0cff94da42318ef84d1dbc716ec273d3c48c5c82a6c83bacb090610e05908990339061248f565b60975461101f906001600160a01b031633611a20565b806110305750611030600033610e15565b61104c5760405162461bcd60e51b81526004016103c4906127ae565b6097543390600090611067906001600160a01b031683611aa6565b91508190506110885760405162461bcd60e51b81526004016103c4906127d8565b609d87815481106110a957634e487b7160e01b600052603260045260246000fd5b600091825260209091206003600490920201015460ff166110dc5760405162461bcd60e51b81526004016103c4906126e1565b6000878152609e602052604090205460011161110a5760405162461bcd60e51b81526004016103c4906126bc565b60975460408051808201909152601a8152791b5a5b9a5b5d5b50dbdb9d1c9a589d5d1a5bdb905b1b1bddd95960321b6020820152611151916001600160a01b031690611e83565b861161116f5760405162461bcd60e51b81526004016103c4906125e2565b60975460408051808201909152601a8152791b585e1a5b5d5b50dbdb9d1c9a589d5d1a5bdb905b1b1bddd95960321b60208201526111b6916001600160a01b031690611e83565b86106111d45760405162461bcd60e51b81526004016103c490612704565b85609d88815481106111f657634e487b7160e01b600052603260045260246000fd5b90600052602060002090600402016000018190555084609d888154811061122d57634e487b7160e01b600052603260045260246000fd5b90600052602060002090600402016001018190555083609d888154811061126457634e487b7160e01b600052603260045260246000fd5b90600052602060002090600402016002018190555082609d888154811061129b57634e487b7160e01b600052603260045260246000fd5b6000918252602090912060036004909202010180549115156101000261ff0019909216919091179055609b546040516001600160a01b039091169088907f0bac124720fcb7c3f1ac6809d9486224136aef4627731b6fde78e5c7c27e39bc9061130d908a908a908a908a9033906128b7565b60405180910390a350505050505050565b609e6020526000908152604090205481565b609754611346906001600160a01b031633611a20565b806113575750611357600033610e15565b6113735760405162461bcd60e51b81526004016103c4906127ae565b609754339060009061138e906001600160a01b031683611aa6565b91508190506113af5760405162461bcd60e51b81526004016103c4906127d8565b6000838152609e60205260409020546001116113dd5760405162461bcd60e51b81526004016103c4906126bc565b609d83815481106113fe57634e487b7160e01b600052603260045260246000fd5b600091825260209091206003600490920201015460ff166114315760405162461bcd60e51b81526004016103c4906126e1565b609d838154811061145257634e487b7160e01b600052603260045260246000fd5b600091825260208220600490910201818155600181018290556002810191909155600301805461ffff19169055609b546040516001600160a01b039091169084907f1d03777f8a909e7054ecb4a7362cc36dffd383f0d394a661e40488a390a0cb53906114c0903390612456565b60405180910390a3505050565b6114d682610675565b6114e2816106ec611c01565b6106fb8383611cf0565b609754609c5460009161150a916001600160a01b0390911690611d75565b5092935050506001600160a01b0382163314905061153a5760405162461bcd60e51b81526004016103c490612545565b6097548290600090611555906001600160a01b031683611aa6565b91508190506115765760405162461bcd60e51b81526004016103c4906127d8565b609d868154811061159757634e487b7160e01b600052603260045260246000fd5b9060005260206000209060040201600001548510156115c85760405162461bcd60e51b81526004016103c4906125e2565b6001609d87815481106115eb57634e487b7160e01b600052603260045260246000fd5b906000526020600020906004020160020154101561161b5760405162461bcd60e51b81526004016103c490612803565b609d868154811061163c57634e487b7160e01b600052603260045260246000fd5b600091825260209091206003600490920201015460ff1661166f5760405162461bcd60e51b81526004016103c4906126e1565b609d868154811061169057634e487b7160e01b600052603260045260246000fd5b906000526020600020906004020160030160019054906101000a900460ff166116cb5760405162461bcd60e51b81526004016103c490612591565b604080516080810182528781526001600160a01b038681166020808401828152600085870181815260608701828152609f80546001808201835591855298517f0bc14066c33013fe88f66e314e4cf150b0b2d4d6451a1a51dbbd1c27cd11de286002909a02998a015593517f0bc14066c33013fe88f66e314e4cf150b0b2d4d6451a1a51dbbd1c27cd11de299098018054925191516001600160a01b0319909316989097169790971760ff60a01b1916600160a01b971515979097029690961760ff60a81b1916600160a81b961515969096029590951790935590835260a09052919020546117b991611bf5565b6001600160a01b038516600090815260a06020908152604080832093909355888252609e905220546117ec906001611bf5565b6000878152609e60205260409081902091909155609b5490516001600160a01b039091169087907f488ee163954574c741f1986326f33d6b40532fc0df9d01918df6cd523e74a25c90610e059089908990612878565b609754609c54600091611860916001600160a01b0390911690611d75565b5092935050506001600160a01b038216331490506118905760405162461bcd60e51b81526004016103c490612545565b6001600160a01b038316600090815260a060205260409020546001116106fb576001600160a01b03808416600081815260a060205260408082208054948716835290822093909355908152908190555b609f548110156119a257836001600160a01b0316609f828154811061191557634e487b7160e01b600052603260045260246000fd5b60009182526020909120600160029092020101546001600160a01b031614156119905782609f828154811061195a57634e487b7160e01b600052603260045260246000fd5b906000526020600020906002020160010160006101000a8154816001600160a01b0302191690836001600160a01b031602179055505b8061199a8161299d565b9150506118e0565b50505050565b6099546001600160a01b031681565b609d81815481106119c757600080fd5b60009182526020909120600490910201805460018201546002830154600390930154919350919060ff8082169161010090041685565b6001600160e01b031981166301ffc9a760e01b14919050565b6107428282611c69565b60405163f7878c6960e01b81526000906001600160a01b0384169063f7878c6990611a4f908590600401612456565b60206040518083038186803b158015611a6757600080fd5b505afa158015611a7b573d6000803e3d6000fd5b505050506040513d601f19601f82011682018060405250810190611a9f9190612204565b9392505050565b6000806001600160a01b038316611abc57600080fd5b600080856001600160a01b031663365b98b2876001600160a01b031663eda7794e886040518263ffffffff1660e01b8152600401611afa9190612456565b60206040518083038186803b158015611b1257600080fd5b505afa158015611b26573d6000803e3d6000fd5b505050506040513d601f19601f82011682018060405250810190611b4a91906122d4565b6040518263ffffffff1660e01b8152600401611b6691906124a8565b60a06040518083038186803b158015611b7e57600080fd5b505afa158015611b92573d6000803e3d6000fd5b505050506040513d601f19601f82011682018060405250810190611bb691906121a3565b5092945091925050506001600160a01b0380831690861614611bea5760405162461bcd60e51b81526004016103c4906125b5565b909590945092505050565b6000611a9f828461290c565b3390565b611c0f8282610e15565b61074257611c27816001600160a01b03166014611f02565b611c32836020611f02565b604051602001611c439291906123e7565b60408051601f198184030181529082905262461bcd60e51b82526103c4916004016124b1565b611c738282610e15565b6107425760008281526065602090815260408083206001600160a01b03851684529091529020805460ff19166001179055611cac611c01565b6001600160a01b0316816001600160a01b0316837f2f8788117e7eff1d82e926ec794901d17c78024a50270940304540a733656f0d60405160405180910390a45050565b611cfa8282610e15565b156107425760008281526065602090815260408083206001600160a01b03851684529091529020805460ff19169055611d31611c01565b6001600160a01b0316816001600160a01b0316837ff6391f5c32d9c69d2a47ea670b442974b53935d1edc7fd64eb21e047a839171b60405160405180910390a45050565b6000806000806000806000806000808b6001600160a01b031663339d50a58c6040518263ffffffff1660e01b8152600401611db091906124a8565b6101206040518083038186803b158015611dc957600080fd5b505afa158015611ddd573d6000803e3d6000fd5b505050506040513d601f19601f82011682018060405250810190611e019190612107565b909192939495509091929394509091929350909150809850819950829550839650849750505050505082828287879950995099509950995050505050509295509295909350565b6000611a9f8284612943565b604051630a14439160e01b81526000906001600160a01b03841690630a14439190611a4f908590600401612456565b6040516314f7ea9960e01b81526000906001600160a01b038416906314f7ea9990611eb29085906004016124b1565b60206040518083038186803b158015611eca57600080fd5b505afa158015611ede573d6000803e3d6000fd5b505050506040513d601f19601f82011682018060405250810190611a9f91906122d4565b60606000611f11836002612924565b611f1c90600261290c565b6001600160401b03811115611f4157634e487b7160e01b600052604160045260246000fd5b6040519080825280601f01601f191660200182016040528015611f6b576020820181803683370190505b509050600360fc1b81600081518110611f9457634e487b7160e01b600052603260045260246000fd5b60200101906001600160f81b031916908160001a905350600f60fb1b81600181518110611fd157634e487b7160e01b600052603260045260246000fd5b60200101906001600160f81b031916908160001a9053506000611ff5846002612924565b61200090600161290c565b90505b6001811115612094576f181899199a1a9b1b9c1cb0b131b232b360811b85600f166010811061204257634e487b7160e01b600052603260045260246000fd5b1a60f81b82828151811061206657634e487b7160e01b600052603260045260246000fd5b60200101906001600160f81b031916908160001a90535060049490941c9361208d81612986565b9050612003565b508315611a9f5760405162461bcd60e51b81526004016103c4906124e4565b6000602082840312156120c4578081fd5b8135611a9f816129ce565b600080604083850312156120e1578081fd5b82356120ec816129ce565b915060208301356120fc816129ce565b809150509250929050565b60008060008060008060008060006101208a8c031215612125578485fd5b8951612130816129ce565b60208b0151909950612141816129ce565b8098505060408a0151965060608a0151955060808a0151945060a08a0151935060c08a015161216f816129e6565b60e08b0151909350612180816129e6565b6101008b0151909250612192816129e6565b809150509295985092959850929598565b600080600080600060a086880312156121ba578081fd5b85516121c5816129ce565b80955050602086015193506040860151925060608601516121e5816129e6565b60808701519092506121f6816129e6565b809150509295509295909350565b600060208284031215612215578081fd5b8151611a9f816129e6565b600060208284031215612231578081fd5b5035919050565b6000806040838503121561224a578182fd5b8235915060208301356120fc816129ce565b60006020828403121561226d578081fd5b81356001600160e01b031981168114611a9f578182fd5b60008060008060808587031215612299578384fd5b84356122a4816129ce565b935060208501356122b4816129ce565b925060408501356122c4816129ce565b9396929550929360600135925050565b6000602082840312156122e5578081fd5b5051919050565b600080604083850312156122fe578182fd5b8235915060208301356120fc816129e6565b60008060408385031215612322578182fd5b50508035926020909101359150565b600080600060608486031215612345578081fd5b8335925060208401359150604084013561235e816129ce565b809150509250925092565b6000806000806080858703121561237e578182fd5b843593506020850135925060408501359150606085013561239e816129e6565b939692955090935050565b600080600080600060a086880312156123c0578283fd5b8535945060208601359350604086013592506060860135915060808601356121f6816129e6565b600076020b1b1b2b9b9a1b7b73a3937b61d1030b1b1b7bab73a1604d1b8252835161241981601785016020880161295a565b7001034b99036b4b9b9b4b733903937b6329607d1b601791840191820152835161244a81602884016020880161295a565b01602801949350505050565b6001600160a01b0391909116815260200190565b6001600160a01b0392831681529116602082015260400190565b901515815260200190565b91151582526001600160a01b0316602082015260400190565b90815260200190565b60006020825282518060208401526124d081604085016020870161295a565b601f01601f19169190910160400192915050565b6020808252818101527f537472696e67733a20686578206c656e67746820696e73756666696369656e74604082015260600190565b6020808252601290820152711e5bdd481a185d99481b9bc81c995dd85c9960721b604082015260600190565b6020808252600990820152683337b93134b23232b760b91b604082015260600190565b6020808252600f908201526e63616d706169676e2061637469766560881b604082015260600190565b6020808252600a90820152696e6f742061637469766560b01b604082015260600190565b6020808252601390820152721d5cd95c88191bd95cc81b9bdd08195e1a5cdd606a1b604082015260600190565b6020808252600e908201526d616d6f756e7420746f6f206c6f7760901b604082015260600190565b6020808252601390820152721b9bdd081bdddb995c881bd9881c995dd85c99606a1b604082015260600190565b6020808252602e908201527f496e697469616c697a61626c653a20636f6e747261637420697320616c72656160408201526d191e481a5b9a5d1a585b1a5e995960921b606082015260800190565b6020808252601d908201527f72657761726420616c7265616479206d61726b65642061732073656e74000000604082015260600190565b6020808252600b908201526a686173206261636b65727360a81b604082015260600190565b6020808252600990820152681b9bdd08199bdd5b9960ba1b604082015260600190565b6020808252600f908201526e0c2dadeeadce840e8dede40d0d2ced608b1b604082015260600190565b6020808252600c908201526b7a65726f206164647265737360a01b604082015260600190565b6020808252600f908201526e3737ba1030b71030b8383937bb32b960891b604082015260600190565b6020808252601890820152771c995dd85c99081b9bdd0819195b1a5d995c9959081e595d60421b604082015260600190565b60208082526010908201526f61646d696e206f7220666163746f727960801b604082015260600190565b6020808252601190820152701d5cd95c881b9bdd081d995c9a599a5959607a1b604082015260600190565b6020808252600c908201526b6f7574206f662073746f636b60a01b604082015260600190565b6020808252602f908201527f416363657373436f6e74726f6c3a2063616e206f6e6c792072656e6f756e636560408201526e103937b632b9903337b91039b2b63360891b606082015260800190565b9182526001600160a01b0316602082015260400190565b9384526001600160a01b03929092166020840152151560408301521515606082015260800190565b94855260208501939093526040840191909152151560608301526001600160a01b0316608082015260a00190565b94855260208501939093526040840191909152151560608301521515608082015260a00190565b6000821982111561291f5761291f6129b8565b500190565b600081600019048311821515161561293e5761293e6129b8565b500290565b600082821015612955576129556129b8565b500390565b60005b8381101561297557818101518382015260200161295d565b838111156119a25750506000910152565b600081612995576129956129b8565b506000190190565b60006000198214156129b1576129b16129b8565b5060010190565b634e487b7160e01b600052601160045260246000fd5b6001600160a01b03811681146129e357600080fd5b50565b80151581146129e357600080fdfea26469706673582212205118f414d515dc0e5e74caeed26960d548ddd86d4906b28a5e3c452d850400f664736f6c63430008000033",
  "immutableReferences": {},
  "source": "// contracts/CampaignRewards.sol\n// SPDX-License-Identifier: UNLICENSED\npragma solidity >=0.4.22 <0.9.0;\n\nimport \"@openzeppelin/contracts-upgradeable/utils/math/SafeMathUpgradeable.sol\";\nimport \"@openzeppelin/contracts-upgradeable/proxy/utils/Initializable.sol\";\nimport \"@openzeppelin/contracts-upgradeable/security/ReentrancyGuardUpgradeable.sol\";\n\nimport \"./CampaignFactory.sol\";\nimport \"./Campaign.sol\";\n\nimport \"./utils/AccessControl.sol\";\nimport \"./interfaces/CampaignFactoryInterface.sol\";\nimport \"./libraries/contracts/CampaignFactoryLib.sol\";\nimport \"./interfaces/CampaignInterface.sol\";\nimport \"./libraries/contracts/CampaignLib.sol\";\n\ncontract CampaignRewards is Initializable, AccessControl {\n    using SafeMathUpgradeable for uint256;\n\n    /// @dev `Initializer Event`\n    event CampaignRewardOwnerSet(\n        Campaign indexed campaign,\n        address owner,\n        address sender\n    );\n\n    /// @dev `Reward Events`\n    event RewardCreated(\n        uint256 indexed rewardId,\n        Campaign indexed campaign,\n        uint256 value,\n        uint256 deliveryDate,\n        uint256 stock,\n        bool active,\n        address sender\n    );\n    event RewardModified(\n        uint256 indexed rewardId,\n        Campaign indexed campaign,\n        uint256 value,\n        uint256 deliveryDate,\n        uint256 stock,\n        bool active,\n        address sender\n    );\n    event RewardStockIncreased(\n        uint256 indexed rewardId,\n        Campaign indexed campaign,\n        uint256 count,\n        address sender\n    );\n    event RewardDestroyed(\n        uint256 indexed rewardId,\n        Campaign indexed campaign,\n        address sender\n    );\n\n    /// @dev `Rward Recipient Events`\n    event RewardRecipientAdded(\n        uint256 indexed rewardId,\n        Campaign indexed campaign,\n        uint256 amount,\n        address sender\n    );\n    event RewarderApproval(\n        uint256 indexed rewardRecipientId,\n        Campaign indexed campaign,\n        bool status,\n        address sender\n    );\n    event RewardRecipientApproval(\n        uint256 indexed rewardRecipientId,\n        Campaign indexed campaign,\n        address sender\n    );\n\n    CampaignFactoryInterface public campaignFactoryContract;\n    CampaignInterface public campaignContract;\n\n    address public root;\n    address public campaignRewardAddress;\n    Campaign public campaign;\n    uint256 public campaignID;\n\n    /// @dev `Reward`\n    struct Reward {\n        uint256 value;\n        uint256 deliveryDate;\n        uint256 stock;\n        bool exists;\n        bool active;\n    }\n    Reward[] public rewards;\n    mapping(uint256 => uint256) public rewardToRewardRecipientCount; // number of users eligible per reward\n\n    /// @dev `RewardRecipient`\n    struct RewardRecipient {\n        uint256 rewardId;\n        address user;\n        bool deliveryConfirmedByCampaign;\n        bool deliveryConfirmedByUser;\n    }\n    RewardRecipient[] public rewardRecipients;\n    mapping(address => uint256) public userRewardCount; // number of rewards owned by a user\n\n    /// @dev Ensures caller is factory or campaign owner\n    modifier adminOrFactory() {\n        require(\n            CampaignFactoryLib.canManageCampaigns(\n                campaignFactoryContract,\n                msg.sender\n            ) || hasRole(DEFAULT_ADMIN_ROLE, msg.sender),\n            \"admin or factory\"\n        );\n        _;\n    }\n\n    /// @dev Ensures the campaign is set to active by campaign owner and approved by factory\n    modifier campaignIsActive() {\n        bool campaignIsApproved;\n        bool campaignIsEnabled;\n        (, , , campaignIsApproved, campaignIsEnabled) = CampaignFactoryLib\n            .campaignInfo(campaignFactoryContract, campaignID);\n\n        require(campaignIsApproved && campaignIsEnabled, \"campaign active\");\n        _;\n    }\n\n    /// @dev Ensures a user is verified\n    modifier userIsVerified(address _user) {\n        bool verified;\n        (, verified) = CampaignFactoryLib.userInfo(\n            campaignFactoryContract,\n            _user\n        );\n        require(verified, \"user not verified\");\n        _;\n    }\n\n    /// @dev Ensures caller is a registered campaign contract from factory\n    modifier onlyRegisteredCampaigns() {\n        address campaignAddress;\n\n        (campaignAddress, , , , ) = CampaignFactoryLib.campaignInfo(\n            campaignFactoryContract,\n            campaignID\n        );\n\n        require(campaignAddress == msg.sender, \"forbidden\");\n        _;\n    }\n\n    /**\n     * @dev        Constructor\n     * @param      _campaignFactory     Address of factory\n     * @param      _campaignOwner                Address of campaign owner\n     * @param      _campaignId          ID of campaign reward contract belongs to\n     */\n    function __CampaignRewards_init(\n        CampaignFactory _campaignFactory,\n        Campaign _campaign,\n        address _campaignOwner,\n        uint256 _campaignId\n    ) public initializer {\n        require(address(_campaignOwner) != address(0), \"zero address\");\n\n        _setupRole(DEFAULT_ADMIN_ROLE, _campaignOwner);\n\n        campaignFactoryContract = CampaignFactoryInterface(\n            address(_campaignFactory)\n        );\n        campaignContract = CampaignInterface(address(_campaign));\n\n        campaignID = _campaignId;\n        campaign = _campaign;\n        root = _campaignOwner;\n        campaignRewardAddress = address(this);\n\n        emit CampaignRewardOwnerSet(_campaign, root, msg.sender);\n    }\n\n    /**\n     * @dev        Creates rewards contributors can attain\n     * @param      _value        Reward cost\n     * @param      _deliveryDate Time in which reward will be deliverd to contriutors\n     * @param      _stock        Quantity available for dispatch\n     * @param      _active       Indicates if contributors can attain the reward\n     */\n    function createReward(\n        uint256 _value,\n        uint256 _deliveryDate,\n        uint256 _stock,\n        bool _active\n    ) external adminOrFactory userIsVerified(msg.sender) {\n        require(\n            _value >\n                CampaignFactoryLib.getCampaignFactoryConfig(\n                    campaignFactoryContract,\n                    \"minimumContributionAllowed\"\n                ),\n            \"amount too low\"\n        );\n        require(\n            _value <\n                CampaignFactoryLib.getCampaignFactoryConfig(\n                    campaignFactoryContract,\n                    \"maximumContributionAllowed\"\n                ),\n            \"amount too high\"\n        );\n        rewards.push(Reward(_value, _deliveryDate, _stock, true, _active));\n\n        emit RewardCreated(\n            rewards.length.sub(1),\n            campaign,\n            _value,\n            _deliveryDate,\n            _stock,\n            _active,\n            msg.sender\n        );\n    }\n\n    /**\n     * @dev        Assigns a reward to a user after payment from parent contract Campaign\n     * @param      _rewardId     ID of the reward being assigned\n     * @param      _amount       Amount being paid by the user\n     * @param      _user         Address of user reward is being assigned to\n     */\n    function assignReward(\n        uint256 _rewardId,\n        uint256 _amount,\n        address _user\n    ) external onlyRegisteredCampaigns userIsVerified(_user) {\n        require(_amount >= rewards[_rewardId].value, \"amount too low\");\n        require(rewards[_rewardId].stock >= 1, \"out of stock\");\n        require(rewards[_rewardId].exists, \"not found\");\n        require(rewards[_rewardId].active, \"not active\");\n\n        rewardRecipients.push(RewardRecipient(_rewardId, _user, false, false));\n        userRewardCount[_user] = userRewardCount[_user].add(1);\n        rewardToRewardRecipientCount[_rewardId] = rewardToRewardRecipientCount[\n            _rewardId\n        ].add(1);\n\n        emit RewardRecipientAdded(_rewardId, campaign, _amount, _user);\n    }\n\n    /**\n     * @dev        Modifies a reward by id\n     * @param      _rewardId        Reward unique id\n     * @param      _value           Reward cost\n     * @param      _deliveryDate    Time in which reward will be deliverd to contriutors\n     * @param      _stock           Quantity available for dispatch\n     * @param      _active          Indicates if contributors can attain the reward\n     */\n    function modifyReward(\n        uint256 _rewardId,\n        uint256 _value,\n        uint256 _deliveryDate,\n        uint256 _stock,\n        bool _active\n    ) external adminOrFactory userIsVerified(msg.sender) {\n        /**\n         * To modify a reward:\n         * check reward has no backers\n         * check reward exists\n         */\n        require(rewards[_rewardId].exists, \"not found\");\n        require(rewardToRewardRecipientCount[_rewardId] < 1, \"has backers\");\n        require(\n            _value >\n                CampaignFactoryLib.getCampaignFactoryConfig(\n                    campaignFactoryContract,\n                    \"minimumContributionAllowed\"\n                ),\n            \"amount too low\"\n        );\n        require(\n            _value <\n                CampaignFactoryLib.getCampaignFactoryConfig(\n                    campaignFactoryContract,\n                    \"maximumContributionAllowed\"\n                ),\n            \"amount too high\"\n        );\n\n        rewards[_rewardId].value = _value;\n        rewards[_rewardId].deliveryDate = _deliveryDate;\n        rewards[_rewardId].stock = _stock;\n        rewards[_rewardId].active = _active;\n\n        emit RewardModified(\n            _rewardId,\n            campaign,\n            _value,\n            _deliveryDate,\n            _stock,\n            _active,\n            msg.sender\n        );\n    }\n\n    /**\n     * @dev        Increases a reward stock count\n     * @param      _rewardId        Reward unique id\n     * @param      _count           Stock count to increase by\n     */\n    function increaseRewardStock(uint256 _rewardId, uint256 _count)\n        external\n        adminOrFactory\n        userIsVerified(msg.sender)\n    {\n        require(rewards[_rewardId].exists, \"not found\");\n        rewards[_rewardId].stock = rewards[_rewardId].stock.add(_count);\n\n        emit RewardStockIncreased(_rewardId, campaign, _count, msg.sender);\n    }\n\n    /**\n     * @dev        Deletes a reward by id\n     * @param      _rewardId    Reward unique id\n     */\n    function destroyReward(uint256 _rewardId)\n        external\n        adminOrFactory\n        userIsVerified(msg.sender)\n    {\n        // check reward has no backers\n        require(rewardToRewardRecipientCount[_rewardId] < 1, \"has backers\");\n        require(rewards[_rewardId].exists, \"not found\");\n\n        delete rewards[_rewardId];\n\n        emit RewardDestroyed(_rewardId, campaign, msg.sender);\n    }\n\n    /**\n     * @dev        Called by the campaign owner to indicate they delivered the reward to the rewardRecipient\n     * @param      _rewardRecipientId   ID to struct containing reward and user to be rewarded\n     * @param      _status              Indicates if the delivery was successful or not\n     */\n    function campaignSentReward(uint256 _rewardRecipientId, bool _status)\n        external\n        campaignIsActive\n        userIsVerified(msg.sender)\n        adminOrFactory\n    {\n        require(\n            rewardToRewardRecipientCount[\n                rewardRecipients[_rewardRecipientId].rewardId\n            ] >= 1\n        );\n\n        rewardRecipients[_rewardRecipientId]\n            .deliveryConfirmedByCampaign = _status;\n        emit RewarderApproval(\n            _rewardRecipientId,\n            campaign,\n            _status,\n            msg.sender\n        );\n    }\n\n    /**\n     * @dev        Called by a user eligible for rewards to indicate they received their reward\n     * @param      _rewardRecipientId  ID to struct containing reward and user to be rewarded\n     */\n    function userReceivedCampaignReward(uint256 _rewardRecipientId)\n        external\n        campaignIsActive\n        userIsVerified(msg.sender)\n    {\n        require(\n            CampaignLib.isAnApprover(campaignContract, msg.sender),\n            \"not an approver\"\n        );\n        require(\n            rewardRecipients[_rewardRecipientId].deliveryConfirmedByCampaign,\n            \"reward not delivered yet\"\n        );\n        require(\n            !rewardRecipients[_rewardRecipientId].deliveryConfirmedByUser,\n            \"reward already marked as sent\"\n        );\n        require(\n            rewardRecipients[_rewardRecipientId].user == msg.sender,\n            \"not owner of reward\"\n        );\n\n        require(userRewardCount[msg.sender] >= 1, \"you have no reward\");\n\n        rewardRecipients[_rewardRecipientId].deliveryConfirmedByUser = true;\n        emit RewardRecipientApproval(\n            _rewardRecipientId,\n            campaign,\n            msg.sender\n        );\n    }\n\n    /**\n     * @dev        Renounces rewards owned by the specified user\n     * @param      _user        Address of user who rewards are being renounced\n     */\n    function renounceRewards(address _user) external onlyRegisteredCampaigns {\n        if (userRewardCount[_user] >= 1) {\n            userRewardCount[_user] = 0;\n\n            // deduct rewardRecipients count\n            for (uint256 index = 0; index < rewardRecipients.length; index++) {\n                rewardToRewardRecipientCount[\n                    rewardRecipients[index].rewardId\n                ] = rewardToRewardRecipientCount[\n                    rewardRecipients[index].rewardId\n                ].sub(1);\n            }\n        }\n    }\n\n    /**\n     * @dev        Transfers rewards from the old owner to a new owner\n     * @param      _oldAddress      Address of previous owner of rewards\n     * @param      _newAddress      Address of new owner rewards are being transferred to\n     */\n    function transferRewards(address _oldAddress, address _newAddress)\n        external\n        onlyRegisteredCampaigns\n    {\n        if (userRewardCount[_oldAddress] >= 1) {\n            userRewardCount[_newAddress] = userRewardCount[_oldAddress];\n            userRewardCount[_oldAddress] = 0;\n\n            for (uint256 index = 0; index < rewardRecipients.length; index++) {\n                if (rewardRecipients[index].user == _oldAddress) {\n                    rewardRecipients[index].user = _newAddress;\n                }\n            }\n        }\n    }\n}\n",
  "sourcePath": "/Users/ngcx/Desktop/Web Dev/DApps/crowdship/crowdship-v1-core/contracts/CampaignRewards.sol",
  "compiler": {
    "name": "solc",
    "version": "0.8.0+commit.c7dfd78e.Emscripten.clang"
  },
  "schemaVersion": "3.4.1",
  "updatedAt": "2021-09-25T22:19:24.095Z",
  "devdoc": {
    "events": {
      "CampaignRewardOwnerSet(address,address,address)": {
        "details": "`Initializer Event`"
      },
      "RewardCreated(uint256,address,uint256,uint256,uint256,bool,address)": {
        "details": "`Reward Events`"
      },
      "RewardRecipientAdded(uint256,address,uint256,address)": {
        "details": "`Rward Recipient Events`"
      }
    },
    "kind": "dev",
    "methods": {
      "__CampaignRewards_init(address,address,address,uint256)": {
        "details": "Constructor",
        "params": {
          "_campaignFactory": "Address of factory",
          "_campaignId": "ID of campaign reward contract belongs to",
          "_campaignOwner": "Address of campaign owner"
        }
      },
      "assignReward(uint256,uint256,address)": {
        "details": "Assigns a reward to a user after payment from parent contract Campaign",
        "params": {
          "_amount": "Amount being paid by the user",
          "_rewardId": "ID of the reward being assigned",
          "_user": "Address of user reward is being assigned to"
        }
      },
      "campaignSentReward(uint256,bool)": {
        "details": "Called by the campaign owner to indicate they delivered the reward to the rewardRecipient",
        "params": {
          "_rewardRecipientId": "ID to struct containing reward and user to be rewarded",
          "_status": "Indicates if the delivery was successful or not"
        }
      },
      "createReward(uint256,uint256,uint256,bool)": {
        "details": "Creates rewards contributors can attain",
        "params": {
          "_active": "Indicates if contributors can attain the reward",
          "_deliveryDate": "Time in which reward will be deliverd to contriutors",
          "_stock": "Quantity available for dispatch",
          "_value": "Reward cost"
        }
      },
      "destroyReward(uint256)": {
        "details": "Deletes a reward by id",
        "params": {
          "_rewardId": "Reward unique id"
        }
      },
      "getRoleAdmin(bytes32)": {
        "details": "Returns the admin role that controls `role`. See {grantRole} and {revokeRole}. To change a role's admin, use {_setRoleAdmin}."
      },
      "grantRole(bytes32,address)": {
        "details": "Grants `role` to `account`. If `account` had not been already granted `role`, emits a {RoleGranted} event. Requirements: - the caller must have ``role``'s admin role."
      },
      "hasRole(bytes32,address)": {
        "details": "Returns `true` if `account` has been granted `role`."
      },
      "increaseRewardStock(uint256,uint256)": {
        "details": "Increases a reward stock count",
        "params": {
          "_count": "Stock count to increase by",
          "_rewardId": "Reward unique id"
        }
      },
      "modifyReward(uint256,uint256,uint256,uint256,bool)": {
        "details": "Modifies a reward by id",
        "params": {
          "_active": "Indicates if contributors can attain the reward",
          "_deliveryDate": "Time in which reward will be deliverd to contriutors",
          "_rewardId": "Reward unique id",
          "_stock": "Quantity available for dispatch",
          "_value": "Reward cost"
        }
      },
      "renounceRewards(address)": {
        "details": "Renounces rewards owned by the specified user",
        "params": {
          "_user": "Address of user who rewards are being renounced"
        }
      },
      "renounceRole(bytes32,address)": {
        "details": "Revokes `role` from the calling account. Roles are often managed via {grantRole} and {revokeRole}: this function's purpose is to provide a mechanism for accounts to lose their privileges if they are compromised (such as when a trusted device is misplaced). If the calling account had been granted `role`, emits a {RoleRevoked} event. Requirements: - the caller must be `account`."
      },
      "revokeRole(bytes32,address)": {
        "details": "Revokes `role` from `account`. If `account` had been granted `role`, emits a {RoleRevoked} event. Requirements: - the caller must have ``role``'s admin role."
      },
      "supportsInterface(bytes4)": {
        "details": "See {IERC165-supportsInterface}."
      },
      "transferRewards(address,address)": {
        "details": "Transfers rewards from the old owner to a new owner",
        "params": {
          "_newAddress": "Address of new owner rewards are being transferred to",
          "_oldAddress": "Address of previous owner of rewards"
        }
      },
      "userReceivedCampaignReward(uint256)": {
        "details": "Called by a user eligible for rewards to indicate they received their reward",
        "params": {
          "_rewardRecipientId": "ID to struct containing reward and user to be rewarded"
        }
      }
    },
    "version": 1
  },
  "userdoc": {
    "kind": "user",
    "methods": {},
    "version": 1
  }
}