{
  "contractName": "CampaignFactory",
  "abi": [
    {
      "anonymous": false,
      "inputs": [
        {
          "indexed": true,
          "internalType": "uint256",
          "name": "campaignId",
          "type": "uint256"
        },
        {
          "indexed": false,
          "internalType": "bool",
          "name": "active",
          "type": "bool"
        },
        {
          "indexed": false,
          "internalType": "address",
          "name": "sender",
          "type": "address"
        }
      ],
      "name": "CampaignActiveToggle",
      "type": "event"
    },
    {
      "anonymous": false,
      "inputs": [
        {
          "indexed": true,
          "internalType": "uint256",
          "name": "campaignId",
          "type": "uint256"
        },
        {
          "indexed": false,
          "internalType": "bool",
          "name": "approval",
          "type": "bool"
        },
        {
          "indexed": false,
          "internalType": "address",
          "name": "sender",
          "type": "address"
        }
      ],
      "name": "CampaignApproval",
      "type": "event"
    },
    {
      "anonymous": false,
      "inputs": [
        {
          "indexed": true,
          "internalType": "uint256",
          "name": "campaignId",
          "type": "uint256"
        },
        {
          "indexed": false,
          "internalType": "uint256",
          "name": "newCategory",
          "type": "uint256"
        },
        {
          "indexed": false,
          "internalType": "address",
          "name": "sender",
          "type": "address"
        }
      ],
      "name": "CampaignCategoryChange",
      "type": "event"
    },
    {
      "anonymous": false,
      "inputs": [
        {
          "indexed": false,
          "internalType": "uint256",
          "name": "commission",
          "type": "uint256"
        }
      ],
      "name": "CampaignDefaultCommissionUpdated",
      "type": "event"
    },
    {
      "anonymous": false,
      "inputs": [
        {
          "indexed": true,
          "internalType": "uint256",
          "name": "campaignId",
          "type": "uint256"
        },
        {
          "indexed": false,
          "internalType": "address",
          "name": "factory",
          "type": "address"
        },
        {
          "indexed": false,
          "internalType": "address",
          "name": "campaign",
          "type": "address"
        },
        {
          "indexed": false,
          "internalType": "address",
          "name": "campaignRewards",
          "type": "address"
        },
        {
          "indexed": false,
          "internalType": "uint256",
          "name": "userId",
          "type": "uint256"
        },
        {
          "indexed": false,
          "internalType": "uint256",
          "name": "category",
          "type": "uint256"
        },
        {
          "indexed": false,
          "internalType": "address",
          "name": "sender",
          "type": "address"
        }
      ],
      "name": "CampaignDeployed",
      "type": "event"
    },
    {
      "anonymous": false,
      "inputs": [
        {
          "indexed": true,
          "internalType": "address",
          "name": "campaignFactory",
          "type": "address"
        },
        {
          "indexed": false,
          "internalType": "address",
          "name": "owner",
          "type": "address"
        },
        {
          "indexed": false,
          "internalType": "address",
          "name": "factoryWallet",
          "type": "address"
        }
      ],
      "name": "CampaignFactoryCreated",
      "type": "event"
    },
    {
      "anonymous": false,
      "inputs": [
        {
          "indexed": true,
          "internalType": "uint256",
          "name": "campaignId",
          "type": "uint256"
        },
        {
          "indexed": false,
          "internalType": "address",
          "name": "sender",
          "type": "address"
        }
      ],
      "name": "CampaignFeaturePaused",
      "type": "event"
    },
    {
      "anonymous": false,
      "inputs": [
        {
          "indexed": true,
          "internalType": "uint256",
          "name": "campaignId",
          "type": "uint256"
        },
        {
          "indexed": false,
          "internalType": "uint256",
          "name": "timeLeft",
          "type": "uint256"
        },
        {
          "indexed": false,
          "internalType": "address",
          "name": "sender",
          "type": "address"
        }
      ],
      "name": "CampaignFeatureUnpaused",
      "type": "event"
    },
    {
      "anonymous": false,
      "inputs": [
        {
          "indexed": true,
          "internalType": "uint256",
          "name": "campaignId",
          "type": "uint256"
        },
        {
          "indexed": false,
          "internalType": "uint256",
          "name": "featurePackageId",
          "type": "uint256"
        },
        {
          "indexed": false,
          "internalType": "uint256",
          "name": "amount",
          "type": "uint256"
        },
        {
          "indexed": false,
          "internalType": "address",
          "name": "sender",
          "type": "address"
        }
      ],
      "name": "CampaignFeatured",
      "type": "event"
    },
    {
      "anonymous": false,
      "inputs": [
        {
          "indexed": false,
          "internalType": "string",
          "name": "prop",
          "type": "string"
        },
        {
          "indexed": false,
          "internalType": "uint256",
          "name": "value",
          "type": "uint256"
        }
      ],
      "name": "CampaignTransactionConfigUpdated",
      "type": "event"
    },
    {
      "anonymous": false,
      "inputs": [
        {
          "indexed": true,
          "internalType": "uint256",
          "name": "categoryId",
          "type": "uint256"
        },
        {
          "indexed": false,
          "internalType": "bool",
          "name": "active",
          "type": "bool"
        },
        {
          "indexed": false,
          "internalType": "address",
          "name": "sender",
          "type": "address"
        }
      ],
      "name": "CategoryAdded",
      "type": "event"
    },
    {
      "anonymous": false,
      "inputs": [
        {
          "indexed": true,
          "internalType": "uint256",
          "name": "categoryId",
          "type": "uint256"
        },
        {
          "indexed": false,
          "internalType": "uint256",
          "name": "commission",
          "type": "uint256"
        }
      ],
      "name": "CategoryCommissionUpdated",
      "type": "event"
    },
    {
      "anonymous": false,
      "inputs": [
        {
          "indexed": true,
          "internalType": "uint256",
          "name": "categoryId",
          "type": "uint256"
        },
        {
          "indexed": false,
          "internalType": "bool",
          "name": "active",
          "type": "bool"
        },
        {
          "indexed": false,
          "internalType": "address",
          "name": "sender",
          "type": "address"
        }
      ],
      "name": "CategoryModified",
      "type": "event"
    },
    {
      "anonymous": false,
      "inputs": [
        {
          "indexed": false,
          "internalType": "address",
          "name": "factoryWallet",
          "type": "address"
        },
        {
          "indexed": false,
          "internalType": "address",
          "name": "campaignImplementation",
          "type": "address"
        },
        {
          "indexed": false,
          "internalType": "address",
          "name": "campaignRewardsImplementation",
          "type": "address"
        }
      ],
      "name": "FactoryConfigUpdated",
      "type": "event"
    },
    {
      "anonymous": false,
      "inputs": [
        {
          "indexed": true,
          "internalType": "uint256",
          "name": "packageId",
          "type": "uint256"
        },
        {
          "indexed": false,
          "internalType": "uint256",
          "name": "cost",
          "type": "uint256"
        },
        {
          "indexed": false,
          "internalType": "uint256",
          "name": "time",
          "type": "uint256"
        },
        {
          "indexed": false,
          "internalType": "address",
          "name": "sender",
          "type": "address"
        }
      ],
      "name": "FeaturePackageAdded",
      "type": "event"
    },
    {
      "anonymous": false,
      "inputs": [
        {
          "indexed": true,
          "internalType": "uint256",
          "name": "packageId",
          "type": "uint256"
        },
        {
          "indexed": false,
          "internalType": "address",
          "name": "sender",
          "type": "address"
        }
      ],
      "name": "FeaturePackageDestroyed",
      "type": "event"
    },
    {
      "anonymous": false,
      "inputs": [
        {
          "indexed": true,
          "internalType": "uint256",
          "name": "packageId",
          "type": "uint256"
        },
        {
          "indexed": false,
          "internalType": "uint256",
          "name": "cost",
          "type": "uint256"
        },
        {
          "indexed": false,
          "internalType": "uint256",
          "name": "time",
          "type": "uint256"
        },
        {
          "indexed": false,
          "internalType": "address",
          "name": "sender",
          "type": "address"
        }
      ],
      "name": "FeaturePackageModified",
      "type": "event"
    },
    {
      "anonymous": false,
      "inputs": [
        {
          "indexed": false,
          "internalType": "address",
          "name": "account",
          "type": "address"
        }
      ],
      "name": "Paused",
      "type": "event"
    },
    {
      "anonymous": false,
      "inputs": [
        {
          "indexed": true,
          "internalType": "bytes32",
          "name": "role",
          "type": "bytes32"
        },
        {
          "indexed": true,
          "internalType": "bytes32",
          "name": "previousAdminRole",
          "type": "bytes32"
        },
        {
          "indexed": true,
          "internalType": "bytes32",
          "name": "newAdminRole",
          "type": "bytes32"
        }
      ],
      "name": "RoleAdminChanged",
      "type": "event"
    },
    {
      "anonymous": false,
      "inputs": [
        {
          "indexed": true,
          "internalType": "bytes32",
          "name": "role",
          "type": "bytes32"
        },
        {
          "indexed": true,
          "internalType": "address",
          "name": "account",
          "type": "address"
        },
        {
          "indexed": true,
          "internalType": "address",
          "name": "sender",
          "type": "address"
        }
      ],
      "name": "RoleGranted",
      "type": "event"
    },
    {
      "anonymous": false,
      "inputs": [
        {
          "indexed": true,
          "internalType": "bytes32",
          "name": "role",
          "type": "bytes32"
        },
        {
          "indexed": true,
          "internalType": "address",
          "name": "account",
          "type": "address"
        },
        {
          "indexed": true,
          "internalType": "address",
          "name": "sender",
          "type": "address"
        }
      ],
      "name": "RoleRevoked",
      "type": "event"
    },
    {
      "anonymous": false,
      "inputs": [
        {
          "indexed": true,
          "internalType": "address",
          "name": "token",
          "type": "address"
        },
        {
          "indexed": false,
          "internalType": "address",
          "name": "sender",
          "type": "address"
        }
      ],
      "name": "TokenAdded",
      "type": "event"
    },
    {
      "anonymous": false,
      "inputs": [
        {
          "indexed": true,
          "internalType": "address",
          "name": "token",
          "type": "address"
        },
        {
          "indexed": false,
          "internalType": "bool",
          "name": "state",
          "type": "bool"
        },
        {
          "indexed": false,
          "internalType": "address",
          "name": "sender",
          "type": "address"
        }
      ],
      "name": "TokenApproval",
      "type": "event"
    },
    {
      "anonymous": false,
      "inputs": [
        {
          "indexed": true,
          "internalType": "uint256",
          "name": "tokenId",
          "type": "uint256"
        },
        {
          "indexed": false,
          "internalType": "address",
          "name": "token",
          "type": "address"
        },
        {
          "indexed": false,
          "internalType": "address",
          "name": "sender",
          "type": "address"
        }
      ],
      "name": "TokenRemoved",
      "type": "event"
    },
    {
      "anonymous": false,
      "inputs": [
        {
          "indexed": false,
          "internalType": "address",
          "name": "account",
          "type": "address"
        }
      ],
      "name": "Unpaused",
      "type": "event"
    },
    {
      "anonymous": false,
      "inputs": [
        {
          "indexed": true,
          "internalType": "uint256",
          "name": "userId",
          "type": "uint256"
        },
        {
          "indexed": false,
          "internalType": "address",
          "name": "sender",
          "type": "address"
        }
      ],
      "name": "UserAdded",
      "type": "event"
    },
    {
      "anonymous": false,
      "inputs": [
        {
          "indexed": true,
          "internalType": "uint256",
          "name": "userId",
          "type": "uint256"
        },
        {
          "indexed": false,
          "internalType": "bool",
          "name": "approval",
          "type": "bool"
        },
        {
          "indexed": false,
          "internalType": "address",
          "name": "sender",
          "type": "address"
        }
      ],
      "name": "UserApproval",
      "type": "event"
    },
    {
      "anonymous": false,
      "inputs": [
        {
          "indexed": true,
          "internalType": "uint256",
          "name": "userId",
          "type": "uint256"
        },
        {
          "indexed": false,
          "internalType": "address",
          "name": "sender",
          "type": "address"
        }
      ],
      "name": "UserRemoved",
      "type": "event"
    },
    {
      "inputs": [],
      "name": "DEFAULT_ADMIN_ROLE",
      "outputs": [
        {
          "internalType": "bytes32",
          "name": "",
          "type": "bytes32"
        }
      ],
      "stateMutability": "view",
      "type": "function"
    },
    {
      "inputs": [],
      "name": "MANAGE_CAMPAIGNS",
      "outputs": [
        {
          "internalType": "bytes32",
          "name": "",
          "type": "bytes32"
        }
      ],
      "stateMutability": "view",
      "type": "function"
    },
    {
      "inputs": [],
      "name": "MANAGE_CATEGORIES",
      "outputs": [
        {
          "internalType": "bytes32",
          "name": "",
          "type": "bytes32"
        }
      ],
      "stateMutability": "view",
      "type": "function"
    },
    {
      "inputs": [],
      "name": "MANAGE_USERS",
      "outputs": [
        {
          "internalType": "bytes32",
          "name": "",
          "type": "bytes32"
        }
      ],
      "stateMutability": "view",
      "type": "function"
    },
    {
      "inputs": [
        {
          "internalType": "string",
          "name": "",
          "type": "string"
        }
      ],
      "name": "approvedCampaignTransactionConfig",
      "outputs": [
        {
          "internalType": "bool",
          "name": "",
          "type": "bool"
        }
      ],
      "stateMutability": "view",
      "type": "function"
    },
    {
      "inputs": [
        {
          "internalType": "uint256",
          "name": "",
          "type": "uint256"
        }
      ],
      "name": "campaignCategories",
      "outputs": [
        {
          "internalType": "uint256",
          "name": "campaignCount",
          "type": "uint256"
        },
        {
          "internalType": "uint256",
          "name": "createdAt",
          "type": "uint256"
        },
        {
          "internalType": "uint256",
          "name": "updatedAt",
          "type": "uint256"
        },
        {
          "internalType": "bool",
          "name": "active",
          "type": "bool"
        },
        {
          "internalType": "bool",
          "name": "exists",
          "type": "bool"
        }
      ],
      "stateMutability": "view",
      "type": "function"
    },
    {
      "inputs": [],
      "name": "campaignCount",
      "outputs": [
        {
          "internalType": "uint256",
          "name": "",
          "type": "uint256"
        }
      ],
      "stateMutability": "view",
      "type": "function"
    },
    {
      "inputs": [],
      "name": "campaignFactoryAddress",
      "outputs": [
        {
          "internalType": "address",
          "name": "",
          "type": "address"
        }
      ],
      "stateMutability": "view",
      "type": "function"
    },
    {
      "inputs": [],
      "name": "campaignImplementation",
      "outputs": [
        {
          "internalType": "address",
          "name": "",
          "type": "address"
        }
      ],
      "stateMutability": "view",
      "type": "function"
    },
    {
      "inputs": [
        {
          "internalType": "uint256",
          "name": "",
          "type": "uint256"
        }
      ],
      "name": "campaignRevenueFromCommissions",
      "outputs": [
        {
          "internalType": "uint256",
          "name": "",
          "type": "uint256"
        }
      ],
      "stateMutability": "view",
      "type": "function"
    },
    {
      "inputs": [
        {
          "internalType": "uint256",
          "name": "",
          "type": "uint256"
        }
      ],
      "name": "campaignRevenueFromFeatures",
      "outputs": [
        {
          "internalType": "uint256",
          "name": "",
          "type": "uint256"
        }
      ],
      "stateMutability": "view",
      "type": "function"
    },
    {
      "inputs": [],
      "name": "campaignRewardsImplementation",
      "outputs": [
        {
          "internalType": "address",
          "name": "",
          "type": "address"
        }
      ],
      "stateMutability": "view",
      "type": "function"
    },
    {
      "inputs": [
        {
          "internalType": "address",
          "name": "",
          "type": "address"
        }
      ],
      "name": "campaignToID",
      "outputs": [
        {
          "internalType": "uint256",
          "name": "",
          "type": "uint256"
        }
      ],
      "stateMutability": "view",
      "type": "function"
    },
    {
      "inputs": [
        {
          "internalType": "address",
          "name": "",
          "type": "address"
        }
      ],
      "name": "campaignToOwner",
      "outputs": [
        {
          "internalType": "address",
          "name": "",
          "type": "address"
        }
      ],
      "stateMutability": "view",
      "type": "function"
    },
    {
      "inputs": [
        {
          "internalType": "string",
          "name": "",
          "type": "string"
        }
      ],
      "name": "campaignTransactionConfig",
      "outputs": [
        {
          "internalType": "uint256",
          "name": "",
          "type": "uint256"
        }
      ],
      "stateMutability": "view",
      "type": "function"
    },
    {
      "inputs": [
        {
          "internalType": "uint256",
          "name": "",
          "type": "uint256"
        }
      ],
      "name": "campaignTransactionConfigList",
      "outputs": [
        {
          "internalType": "string",
          "name": "",
          "type": "string"
        }
      ],
      "stateMutability": "view",
      "type": "function"
    },
    {
      "inputs": [
        {
          "internalType": "uint256",
          "name": "",
          "type": "uint256"
        }
      ],
      "name": "categoryCommission",
      "outputs": [
        {
          "internalType": "uint256",
          "name": "",
          "type": "uint256"
        }
      ],
      "stateMutability": "view",
      "type": "function"
    },
    {
      "inputs": [],
      "name": "categoryCount",
      "outputs": [
        {
          "internalType": "uint256",
          "name": "",
          "type": "uint256"
        }
      ],
      "stateMutability": "view",
      "type": "function"
    },
    {
      "inputs": [
        {
          "internalType": "uint256",
          "name": "",
          "type": "uint256"
        }
      ],
      "name": "deployedCampaigns",
      "outputs": [
        {
          "internalType": "address",
          "name": "campaign",
          "type": "address"
        },
        {
          "internalType": "address",
          "name": "campaignRewards",
          "type": "address"
        },
        {
          "internalType": "address",
          "name": "owner",
          "type": "address"
        },
        {
          "internalType": "uint256",
          "name": "createdAt",
          "type": "uint256"
        },
        {
          "internalType": "uint256",
          "name": "updatedAt",
          "type": "uint256"
        },
        {
          "internalType": "uint256",
          "name": "category",
          "type": "uint256"
        },
        {
          "internalType": "uint256",
          "name": "featureFor",
          "type": "uint256"
        },
        {
          "internalType": "bool",
          "name": "active",
          "type": "bool"
        },
        {
          "internalType": "bool",
          "name": "approved",
          "type": "bool"
        },
        {
          "internalType": "bool",
          "name": "exists",
          "type": "bool"
        }
      ],
      "stateMutability": "view",
      "type": "function"
    },
    {
      "inputs": [],
      "name": "factoryRevenue",
      "outputs": [
        {
          "internalType": "uint256",
          "name": "",
          "type": "uint256"
        }
      ],
      "stateMutability": "view",
      "type": "function"
    },
    {
      "inputs": [],
      "name": "factoryWallet",
      "outputs": [
        {
          "internalType": "address payable",
          "name": "",
          "type": "address"
        }
      ],
      "stateMutability": "view",
      "type": "function"
    },
    {
      "inputs": [],
      "name": "featurePackageCount",
      "outputs": [
        {
          "internalType": "uint256",
          "name": "",
          "type": "uint256"
        }
      ],
      "stateMutability": "view",
      "type": "function"
    },
    {
      "inputs": [
        {
          "internalType": "uint256",
          "name": "",
          "type": "uint256"
        }
      ],
      "name": "featurePackages",
      "outputs": [
        {
          "internalType": "uint256",
          "name": "createdAt",
          "type": "uint256"
        },
        {
          "internalType": "uint256",
          "name": "updatedAt",
          "type": "uint256"
        },
        {
          "internalType": "uint256",
          "name": "time",
          "type": "uint256"
        },
        {
          "internalType": "uint256",
          "name": "cost",
          "type": "uint256"
        },
        {
          "internalType": "bool",
          "name": "exists",
          "type": "bool"
        }
      ],
      "stateMutability": "view",
      "type": "function"
    },
    {
      "inputs": [
        {
          "internalType": "uint256",
          "name": "",
          "type": "uint256"
        }
      ],
      "name": "featuredCampaignIsPaused",
      "outputs": [
        {
          "internalType": "bool",
          "name": "",
          "type": "bool"
        }
      ],
      "stateMutability": "view",
      "type": "function"
    },
    {
      "inputs": [
        {
          "internalType": "bytes32",
          "name": "role",
          "type": "bytes32"
        }
      ],
      "name": "getRoleAdmin",
      "outputs": [
        {
          "internalType": "bytes32",
          "name": "",
          "type": "bytes32"
        }
      ],
      "stateMutability": "view",
      "type": "function"
    },
    {
      "inputs": [
        {
          "internalType": "bytes32",
          "name": "role",
          "type": "bytes32"
        },
        {
          "internalType": "address",
          "name": "account",
          "type": "address"
        }
      ],
      "name": "grantRole",
      "outputs": [],
      "stateMutability": "nonpayable",
      "type": "function"
    },
    {
      "inputs": [
        {
          "internalType": "bytes32",
          "name": "role",
          "type": "bytes32"
        },
        {
          "internalType": "address",
          "name": "account",
          "type": "address"
        }
      ],
      "name": "hasRole",
      "outputs": [
        {
          "internalType": "bool",
          "name": "",
          "type": "bool"
        }
      ],
      "stateMutability": "view",
      "type": "function"
    },
    {
      "inputs": [],
      "name": "paused",
      "outputs": [
        {
          "internalType": "bool",
          "name": "",
          "type": "bool"
        }
      ],
      "stateMutability": "view",
      "type": "function"
    },
    {
      "inputs": [
        {
          "internalType": "uint256",
          "name": "",
          "type": "uint256"
        }
      ],
      "name": "pausedFeaturedCampaignTimeLeft",
      "outputs": [
        {
          "internalType": "uint256",
          "name": "",
          "type": "uint256"
        }
      ],
      "stateMutability": "view",
      "type": "function"
    },
    {
      "inputs": [
        {
          "internalType": "bytes32",
          "name": "role",
          "type": "bytes32"
        },
        {
          "internalType": "address",
          "name": "account",
          "type": "address"
        }
      ],
      "name": "renounceRole",
      "outputs": [],
      "stateMutability": "nonpayable",
      "type": "function"
    },
    {
      "inputs": [
        {
          "internalType": "bytes32",
          "name": "role",
          "type": "bytes32"
        },
        {
          "internalType": "address",
          "name": "account",
          "type": "address"
        }
      ],
      "name": "revokeRole",
      "outputs": [],
      "stateMutability": "nonpayable",
      "type": "function"
    },
    {
      "inputs": [],
      "name": "root",
      "outputs": [
        {
          "internalType": "address",
          "name": "",
          "type": "address"
        }
      ],
      "stateMutability": "view",
      "type": "function"
    },
    {
      "inputs": [
        {
          "internalType": "bytes4",
          "name": "interfaceId",
          "type": "bytes4"
        }
      ],
      "name": "supportsInterface",
      "outputs": [
        {
          "internalType": "bool",
          "name": "",
          "type": "bool"
        }
      ],
      "stateMutability": "view",
      "type": "function"
    },
    {
      "inputs": [
        {
          "internalType": "address",
          "name": "",
          "type": "address"
        }
      ],
      "name": "tokenInList",
      "outputs": [
        {
          "internalType": "bool",
          "name": "",
          "type": "bool"
        }
      ],
      "stateMutability": "view",
      "type": "function"
    },
    {
      "inputs": [
        {
          "internalType": "uint256",
          "name": "",
          "type": "uint256"
        }
      ],
      "name": "tokenList",
      "outputs": [
        {
          "internalType": "address",
          "name": "",
          "type": "address"
        }
      ],
      "stateMutability": "view",
      "type": "function"
    },
    {
      "inputs": [
        {
          "internalType": "address",
          "name": "",
          "type": "address"
        }
      ],
      "name": "tokensApproved",
      "outputs": [
        {
          "internalType": "bool",
          "name": "",
          "type": "bool"
        }
      ],
      "stateMutability": "view",
      "type": "function"
    },
    {
      "inputs": [],
      "name": "userCount",
      "outputs": [
        {
          "internalType": "uint256",
          "name": "",
          "type": "uint256"
        }
      ],
      "stateMutability": "view",
      "type": "function"
    },
    {
      "inputs": [
        {
          "internalType": "address",
          "name": "",
          "type": "address"
        }
      ],
      "name": "userID",
      "outputs": [
        {
          "internalType": "uint256",
          "name": "",
          "type": "uint256"
        }
      ],
      "stateMutability": "view",
      "type": "function"
    },
    {
      "inputs": [
        {
          "internalType": "uint256",
          "name": "",
          "type": "uint256"
        }
      ],
      "name": "users",
      "outputs": [
        {
          "internalType": "address",
          "name": "userAddress",
          "type": "address"
        },
        {
          "internalType": "uint256",
          "name": "joined",
          "type": "uint256"
        },
        {
          "internalType": "uint256",
          "name": "updatedAt",
          "type": "uint256"
        },
        {
          "internalType": "bool",
          "name": "verified",
          "type": "bool"
        },
        {
          "internalType": "bool",
          "name": "exists",
          "type": "bool"
        }
      ],
      "stateMutability": "view",
      "type": "function"
    },
    {
      "inputs": [
        {
          "internalType": "address payable",
          "name": "_wallet",
          "type": "address"
        },
        {
          "internalType": "address",
          "name": "_root",
          "type": "address"
        }
      ],
      "name": "__CampaignFactory_init",
      "outputs": [],
      "stateMutability": "nonpayable",
      "type": "function"
    },
    {
      "inputs": [
        {
          "internalType": "address payable",
          "name": "_wallet",
          "type": "address"
        },
        {
          "internalType": "contract Campaign",
          "name": "_campaignImplementation",
          "type": "address"
        },
        {
          "internalType": "contract CampaignRewards",
          "name": "_campaignRewardsImplementation",
          "type": "address"
        }
      ],
      "name": "setFactoryConfig",
      "outputs": [],
      "stateMutability": "nonpayable",
      "type": "function"
    },
    {
      "inputs": [
        {
          "internalType": "string",
          "name": "_prop",
          "type": "string"
        }
      ],
      "name": "addFactoryTransactionConfig",
      "outputs": [],
      "stateMutability": "nonpayable",
      "type": "function"
    },
    {
      "inputs": [
        {
          "internalType": "string",
          "name": "_prop",
          "type": "string"
        },
        {
          "internalType": "uint256",
          "name": "_value",
          "type": "uint256"
        }
      ],
      "name": "setCampaignTransactionConfig",
      "outputs": [],
      "stateMutability": "nonpayable",
      "type": "function"
    },
    {
      "inputs": [
        {
          "internalType": "uint256",
          "name": "_numerator",
          "type": "uint256"
        },
        {
          "internalType": "uint256",
          "name": "_denominator",
          "type": "uint256"
        }
      ],
      "name": "setDefaultCommission",
      "outputs": [],
      "stateMutability": "nonpayable",
      "type": "function"
    },
    {
      "inputs": [
        {
          "internalType": "uint256",
          "name": "_categoryId",
          "type": "uint256"
        },
        {
          "internalType": "uint256",
          "name": "_numerator",
          "type": "uint256"
        },
        {
          "internalType": "uint256",
          "name": "_denominator",
          "type": "uint256"
        }
      ],
      "name": "setCategoryCommission",
      "outputs": [],
      "stateMutability": "nonpayable",
      "type": "function"
    },
    {
      "inputs": [
        {
          "internalType": "address",
          "name": "_token",
          "type": "address"
        }
      ],
      "name": "addToken",
      "outputs": [],
      "stateMutability": "nonpayable",
      "type": "function"
    },
    {
      "inputs": [
        {
          "internalType": "uint256",
          "name": "_tokenId",
          "type": "uint256"
        },
        {
          "internalType": "address",
          "name": "_token",
          "type": "address"
        }
      ],
      "name": "removeToken",
      "outputs": [],
      "stateMutability": "nonpayable",
      "type": "function"
    },
    {
      "inputs": [
        {
          "internalType": "address",
          "name": "_token",
          "type": "address"
        },
        {
          "internalType": "bool",
          "name": "_state",
          "type": "bool"
        }
      ],
      "name": "toggleAcceptedToken",
      "outputs": [],
      "stateMutability": "nonpayable",
      "type": "function"
    },
    {
      "inputs": [
        {
          "internalType": "address",
          "name": "_account",
          "type": "address"
        },
        {
          "internalType": "bytes32",
          "name": "_role",
          "type": "bytes32"
        }
      ],
      "name": "addRole",
      "outputs": [],
      "stateMutability": "nonpayable",
      "type": "function"
    },
    {
      "inputs": [
        {
          "internalType": "address",
          "name": "_account",
          "type": "address"
        },
        {
          "internalType": "bytes32",
          "name": "_role",
          "type": "bytes32"
        }
      ],
      "name": "removeRole",
      "outputs": [],
      "stateMutability": "nonpayable",
      "type": "function"
    },
    {
      "inputs": [],
      "name": "renounceAdmin",
      "outputs": [],
      "stateMutability": "nonpayable",
      "type": "function"
    },
    {
      "inputs": [
        {
          "internalType": "address",
          "name": "_user",
          "type": "address"
        }
      ],
      "name": "canManageCampaigns",
      "outputs": [
        {
          "internalType": "bool",
          "name": "",
          "type": "bool"
        }
      ],
      "stateMutability": "view",
      "type": "function"
    },
    {
      "inputs": [
        {
          "internalType": "contract Campaign",
          "name": "_campaign",
          "type": "address"
        },
        {
          "internalType": "uint256",
          "name": "_amount",
          "type": "uint256"
        }
      ],
      "name": "receiveCampaignCommission",
      "outputs": [],
      "stateMutability": "nonpayable",
      "type": "function"
    },
    {
      "inputs": [],
      "name": "signUp",
      "outputs": [],
      "stateMutability": "nonpayable",
      "type": "function"
    },
    {
      "inputs": [
        {
          "internalType": "uint256",
          "name": "_userId",
          "type": "uint256"
        },
        {
          "internalType": "bool",
          "name": "_approval",
          "type": "bool"
        }
      ],
      "name": "toggleUserApproval",
      "outputs": [],
      "stateMutability": "nonpayable",
      "type": "function"
    },
    {
      "inputs": [
        {
          "internalType": "uint256",
          "name": "_userId",
          "type": "uint256"
        }
      ],
      "name": "destroyUser",
      "outputs": [],
      "stateMutability": "nonpayable",
      "type": "function"
    },
    {
      "inputs": [
        {
          "internalType": "uint256",
          "name": "_categoryId",
          "type": "uint256"
        }
      ],
      "name": "createCampaign",
      "outputs": [],
      "stateMutability": "nonpayable",
      "type": "function"
    },
    {
      "inputs": [
        {
          "internalType": "uint256",
          "name": "_campaignId",
          "type": "uint256"
        },
        {
          "internalType": "bool",
          "name": "_approval",
          "type": "bool"
        }
      ],
      "name": "toggleCampaignApproval",
      "outputs": [],
      "stateMutability": "nonpayable",
      "type": "function"
    },
    {
      "inputs": [
        {
          "internalType": "uint256",
          "name": "_campaignId",
          "type": "uint256"
        },
        {
          "internalType": "bool",
          "name": "_active",
          "type": "bool"
        }
      ],
      "name": "toggleCampaignActive",
      "outputs": [],
      "stateMutability": "nonpayable",
      "type": "function"
    },
    {
      "inputs": [
        {
          "internalType": "uint256",
          "name": "_campaignId",
          "type": "uint256"
        },
        {
          "internalType": "uint256",
          "name": "_newCategoryId",
          "type": "uint256"
        }
      ],
      "name": "modifyCampaignCategory",
      "outputs": [],
      "stateMutability": "nonpayable",
      "type": "function"
    },
    {
      "inputs": [
        {
          "internalType": "uint256",
          "name": "_campaignId",
          "type": "uint256"
        },
        {
          "internalType": "uint256",
          "name": "_featurePackageId",
          "type": "uint256"
        },
        {
          "internalType": "address",
          "name": "_token",
          "type": "address"
        }
      ],
      "name": "featureCampaign",
      "outputs": [],
      "stateMutability": "payable",
      "type": "function"
    },
    {
      "inputs": [
        {
          "internalType": "uint256",
          "name": "_campaignId",
          "type": "uint256"
        }
      ],
      "name": "pauseCampaignFeatured",
      "outputs": [],
      "stateMutability": "nonpayable",
      "type": "function"
    },
    {
      "inputs": [
        {
          "internalType": "uint256",
          "name": "_campaignId",
          "type": "uint256"
        }
      ],
      "name": "unpauseCampaignFeatured",
      "outputs": [],
      "stateMutability": "nonpayable",
      "type": "function"
    },
    {
      "inputs": [
        {
          "internalType": "bool",
          "name": "_active",
          "type": "bool"
        }
      ],
      "name": "createCategory",
      "outputs": [],
      "stateMutability": "nonpayable",
      "type": "function"
    },
    {
      "inputs": [
        {
          "internalType": "uint256",
          "name": "_categoryId",
          "type": "uint256"
        },
        {
          "internalType": "bool",
          "name": "_active",
          "type": "bool"
        }
      ],
      "name": "modifyCategory",
      "outputs": [],
      "stateMutability": "nonpayable",
      "type": "function"
    },
    {
      "inputs": [
        {
          "internalType": "uint256",
          "name": "_cost",
          "type": "uint256"
        },
        {
          "internalType": "uint256",
          "name": "_time",
          "type": "uint256"
        }
      ],
      "name": "createFeaturePackage",
      "outputs": [],
      "stateMutability": "nonpayable",
      "type": "function"
    },
    {
      "inputs": [
        {
          "internalType": "uint256",
          "name": "_packageId",
          "type": "uint256"
        },
        {
          "internalType": "uint256",
          "name": "_cost",
          "type": "uint256"
        },
        {
          "internalType": "uint256",
          "name": "_time",
          "type": "uint256"
        }
      ],
      "name": "modifyFeaturedPackage",
      "outputs": [],
      "stateMutability": "nonpayable",
      "type": "function"
    },
    {
      "inputs": [
        {
          "internalType": "uint256",
          "name": "_packageId",
          "type": "uint256"
        }
      ],
      "name": "destroyFeaturedPackage",
      "outputs": [],
      "stateMutability": "nonpayable",
      "type": "function"
    },
    {
      "inputs": [],
      "name": "unpauseCampaign",
      "outputs": [],
      "stateMutability": "nonpayable",
      "type": "function"
    },
    {
      "inputs": [],
      "name": "pauseCampaign",
      "outputs": [],
      "stateMutability": "nonpayable",
      "type": "function"
    }
  ],
  "bytecode": "0x608060405234801561001057600080fd5b50615bda80620000216000396000f3fe6080604052600436106103155760003560e01c806301ffc9a71461031a57806307973ccf14610350578063092093d8146103725780630d10f3b51461039457806310595aa7146103a957806314f7ea99146103c95780631aa2f9d7146103e95780631c8e541b1461040957806320966f221461041e578063248a9ca31461043e57806324ba73a21461045e5780632be32dbb1461047e5780632f2ff15d14610493578063333c4f93146104b3578063339d50a5146104d357806333fe56761461050957806336568abe14610529578063365b98b2146105495780633d693d1c1461057a57806348b30e351461059a5780634caa13a9146105af5780634f9de6e2146105dc57806350450930146105f15780635c975abb146106115780635d4bc7e3146106265780635f87d16f146106465780635fd0b69f146106665780636219fe3d1461069757806362a6e065146106b75780636853920e146106d95780637274e30d146106f95780637e0732a81461070e57806381994d041461072e5780638bad0c0a1461074357806391d14854146107585780639590292f1461077857806396a756641461078d578063986c1798146107a057806398f11bce146107c05780639ead7222146107e05780639ee25ae4146108005780639ee9bbee146108155780639ff846621461082a578063a174743a1461084a578063a217fddf1461086a578063a31343191461087f578063a3303a7514610894578063a55b3b31146108b4578063a73f7f8a146108d4578063a8542740146108f4578063b1bba29b14610914578063b30326db14610929578063b6e33abf14610949578063bc3d5a301461097a578063bf96ae631461099a578063c6c323fc146109af578063c9dc36fb146109cf578063ca68dfe4146109ef578063cf8a84d014610a0f578063cfa4083014610a2f578063d48bfca714610a4f578063d547741f14610a6f578063d5b6c20e14610a8f578063dc1a10c014610aaf578063df46e21e14610acf578063e128c96914610aef578063ebf0c71714610b0f578063eda7794e14610b24578063f7878c6914610b44578063f89fa22d14610b64575b600080fd5b34801561032657600080fd5b5061033a6103353660046150ee565b610b84565b604051610347919061544a565b60405180910390f35b34801561035c57600080fd5b50610365610bb1565b604051610347919061546e565b34801561037e57600080fd5b5061039261038d3660046151a2565b610bb8565b005b3480156103a057600080fd5b50610392610d14565b3480156103b557600080fd5b506103926103c4366004614fd8565b610d57565b3480156103d557600080fd5b506103656103e4366004615116565b610e22565b3480156103f557600080fd5b506103656104043660046150b2565b610e40565b34801561041557600080fd5b50610392610e53565b34801561042a57600080fd5b5061033a610439366004614f84565b610e93565b34801561044a57600080fd5b506103656104593660046150b2565b610ea9565b34801561046a57600080fd5b50610392610479366004615022565b610ebe565b34801561048a57600080fd5b50610365610f5b565b34801561049f57600080fd5b506103926104ae3660046150ca565b610f62565b3480156104bf57600080fd5b5061033a6104ce366004615116565b610f8b565b3480156104df57600080fd5b506104f36104ee3660046150b2565b610fac565b6040516103479a9998979695949392919061539c565b34801561051557600080fd5b506103926105243660046150ca565b611027565b34801561053557600080fd5b506103926105443660046150ca565b611108565b34801561055557600080fd5b506105696105643660046150b2565b61114e565b604051610347959493929190615418565b34801561058657600080fd5b50610392610595366004615214565b61119f565b3480156105a657600080fd5b506103656112f6565b3480156105bb57600080fd5b506105cf6105ca3660046150b2565b611308565b60405161034791906154a1565b3480156105e857600080fd5b506103656113b5565b3480156105fd57600080fd5b5061036561060c3660046150b2565b6113c7565b34801561061d57600080fd5b5061033a6113da565b34801561063257600080fd5b50610392610641366004614fa0565b6113e3565b34801561065257600080fd5b50610392610661366004615116565b611b22565b34801561067257600080fd5b506106866106813660046150b2565b611bdf565b60405161034795949392919061599f565b3480156106a357600080fd5b5061033a6106b23660046150b2565b611c26565b3480156106c357600080fd5b506106cc611c3c565b6040516103479190615313565b3480156106e557600080fd5b506103926106f436600461504f565b611c4b565b34801561070557600080fd5b50610365611c69565b34801561071a57600080fd5b506103926107293660046151c6565b611c70565b34801561073a57600080fd5b506106cc611cf7565b34801561074f57600080fd5b50610392611d06565b34801561076457600080fd5b5061033a6107733660046150ca565b611d11565b34801561078457600080fd5b506106cc611d3e565b61039261079b3660046151e7565b611d4d565b3480156107ac57600080fd5b506103926107bb366004615214565b612270565b3480156107cc57600080fd5b506103656107db3660046150b2565b612335565b3480156107ec57600080fd5b506106cc6107fb3660046150b2565b612348565b34801561080c57600080fd5b50610365612373565b34801561082157600080fd5b506106cc61237a565b34801561083657600080fd5b506103926108453660046150b2565b612389565b34801561085657600080fd5b506106cc610865366004614f84565b612496565b34801561087657600080fd5b506103656124b2565b34801561088b57600080fd5b506103656124b7565b3480156108a057600080fd5b506103926108af3660046150b2565b6124c9565b3480156108c057600080fd5b506103926108cf3660046150b2565b612a6b565b3480156108e057600080fd5b506103926108ef36600461504f565b612d72565b34801561090057600080fd5b5061033a61090f366004614f84565b612d90565b34801561092057600080fd5b50610365612da6565b34801561093557600080fd5b5061039261094436600461507a565b612dad565b34801561095557600080fd5b506109696109643660046150b2565b612f70565b6040516103479594939291906159c6565b34801561098657600080fd5b506103926109953660046150b2565b612fb5565b3480156109a657600080fd5b50610392613280565b3480156109bb57600080fd5b506103656109ca366004614f84565b613436565b3480156109db57600080fd5b506103926109ea3660046151a2565b613449565b3480156109fb57600080fd5b50610392610a0a3660046151c6565b6135a3565b348015610a1b57600080fd5b50610392610a2a3660046150b2565b61398e565b348015610a3b57600080fd5b50610392610a4a3660046151a2565b613ab0565b348015610a5b57600080fd5b50610392610a6a366004614f84565b613bf6565b348015610a7b57600080fd5b50610392610a8a3660046150ca565b613cc8565b348015610a9b57600080fd5b50610392610aaa3660046151a2565b613ce7565b348015610abb57600080fd5b50610392610aca3660046151c6565b6141ab565b348015610adb57600080fd5b50610365610aea3660046150b2565b614341565b348015610afb57600080fd5b50610392610b0a36600461504f565b614354565b348015610b1b57600080fd5b506106cc61456f565b348015610b3057600080fd5b50610365610b3f366004614f84565b61457e565b348015610b5057600080fd5b5061033a610b5f366004614f84565b614591565b348015610b7057600080fd5b50610392610b7f366004615148565b6145ab565b60006001600160e01b03198216637965db0b60e01b1480610ba95750610ba98261464d565b90505b919050565b6101135481565b600080516020615b65833981519152610bd18133611d11565b610bda57600080fd5b610be26113da565b15610c085760405162461bcd60e51b8152600401610bff9061562d565b60405180910390fd5b6101128381548110610c2a57634e487b7160e01b600052603260045260246000fd5b906000526020600020906004020160030160019054906101000a900460ff16610c5257600080fd5b816101128481548110610c7557634e487b7160e01b600052603260045260246000fd5b906000526020600020906004020160030160006101000a81548160ff021916908315150217905550426101128481548110610cc057634e487b7160e01b600052603260045260246000fd5b906000526020600020906004020160020181905550827f0ebcb27cc95a510dcb63aa211212b6d8058b45eb5fae3689cd30bcb64359025b8333604051610d07929190615455565b60405180910390a2505050565b610d1c6113da565b15610d395760405162461bcd60e51b8152600401610bff9061562d565b610d44600033611d11565b610d4d57600080fd5b610d55614666565b565b610d62600033611d11565b610d6b57600080fd5b6001600160a01b038316610d7e57600080fd5b6001600160a01b038216610d9157600080fd5b6001600160a01b038116610da457600080fd5b60fd80546001600160a01b038086166001600160a01b03199283161790925560fe805485841690831617905560ff8054928416929091169190911790556040517f3446c1e5241df85853f5b95e70ca726471e2e5ecb851a06e3e03d60b3f97e56890610e1590859085908590615327565b60405180910390a1505050565b80516020818301810180516101038252928201919093012091525481565b61010f6020526000908152604090205481565b610e5b6113da565b610e775760405162461bcd60e51b8152600401610bff9061550b565b610e82600033611d11565b610e8b57600080fd5b610d556146d8565b6101066020526000908152604090205460ff1681565b60009081526065602052604090206001015490565b610ec9600033611d11565b610ed257600080fd5b6001600160a01b0382166000908152610105602052604090205460ff16610ef857600080fd5b6001600160a01b0382166000818152610106602052604090819020805460ff1916841515179055517f7c2a41542727a141f40514ade389b2a4d94a10a8f6fee59229aa47073625c76390610f4f9084903390615455565b60405180910390a25050565b6101115481565b610f6b82610ea9565b610f7c81610f7761472b565b61472f565b610f868383614793565b505050565b80516020818301810180516101028252928201919093012091525460ff1681565b61010a8181548110610fbd57600080fd5b6000918252602090912060089091020180546001820154600283015460038401546004850154600586015460068701546007909701546001600160a01b039687169850948616969390951694919390929060ff80821691610100810482169162010000909104168a565b611032600033611d11565b61103b57600080fd5b6001600160a01b0381166000908152610105602052604090205460ff1661106157600080fd5b6001600160a01b038116600090815261010560209081526040808320805460ff19908116909155610106909252909120805490911690556101008054839081106110bb57634e487b7160e01b600052603260045260246000fd5b600091825260209091200180546001600160a01b031916905560405182907f0f6bb0745ad7cc1db7292c76d7ba4082669045b9cf4301a9d802a95c8702b67e90610f4f908490339061534a565b61111061472b565b6001600160a01b0316816001600160a01b0316146111405760405162461bcd60e51b8152600401610bff9061591a565b61114a828261481a565b5050565b610112818154811061115f57600080fd5b600091825260209091206004909102018054600182015460028301546003909301546001600160a01b039092169350919060ff8082169161010090041685565b6111aa600033611d11565b6111b357600080fd5b6111bb6113da565b156111d85760405162461bcd60e51b8152600401610bff9061562d565b61011583815481106111fa57634e487b7160e01b600052603260045260246000fd5b600091825260209091206004600590920201015460ff1661121a57600080fd5b81610115848154811061123d57634e487b7160e01b600052603260045260246000fd5b90600052602060002090600502016003018190555080610115848154811061127557634e487b7160e01b600052603260045260246000fd5b9060005260206000209060050201600201819055504261011584815481106112ad57634e487b7160e01b600052603260045260246000fd5b906000526020600020906005020160010181905550827fd548b84ae5f583aeaefcb2e5194f9ca9c4e71ff8b150cb497f8264f06d6cff61838333604051610d0793929190615980565b600080516020615b6583398151915281565b610101818154811061131957600080fd5b90600052602060002001600091509050805461133490615a9c565b80601f016020809104026020016040519081016040528092919081815260200182805461136090615a9c565b80156113ad5780601f10611382576101008083540402835291602001916113ad565b820191906000526020600020905b81548152906001019060200180831161139057829003601f168201915b505050505081565b600080516020615b8583398151915281565b6101086020526000908152604090205481565b60975460ff1690565b600054610100900460ff16806113fc575060005460ff16155b6114185760405162461bcd60e51b8152600401610bff906156b2565b600054610100900460ff16158015611443576000805460ff1961ff0019909116610100171660011790555b6001600160a01b03831661145657600080fd5b8160fb60006101000a8154816001600160a01b0302191690836001600160a01b031602179055508260fd60006101000a8154816001600160a01b0302191690836001600160a01b031602179055503060fc60006101000a8154816001600160a01b0302191690836001600160a01b031602179055506000604051806101e00160405280604051806040016040528060118152602001703232b330bab63a21b7b6b6b4b9b9b4b7b760791b815250815260200160405180604001604052806016815260200175191958591b1a5b9954dd1c9a5ad95cd05b1b1bddd95960521b81525081526020016040518060400160405280601a8152602001791b5a5b9a5b5d5b50dbdb9d1c9a589d5d1a5bdb905b1b1bddd95960321b81525081526020016040518060400160405280601a8152602001791b585e1a5b5d5b50dbdb9d1c9a589d5d1a5bdb905b1b1bddd95960321b81525081526020016040518060400160405280601b81526020017a1b5a5b9a5b5d5b54995c5d595cdd105b5bdd5b9d105b1b1bddd959602a1b81525081526020016040518060400160405280601b81526020017a1b585e1a5b5d5b54995c5d595cdd105b5bdd5b9d105b1b1bddd959602a1b8152508152602001604051806040016040528060158152602001741b5a5b9a5b5d5b50d85b5c185a59db95185c99d95d605a1b8152508152602001604051806040016040528060158152602001741b585e1a5b5d5b50d85b5c185a59db95185c99d95d605a1b81525081526020016040518060400160405280601481526020017336b0bc2232b0b23634b732a2bc3a32b739b4b7b760611b81525081526020016040518060400160405280601481526020017336b4b72232b0b23634b732a2bc3a32b739b4b7b760611b81525081526020016040518060400160405280601281526020017136b4b72932b8bab2b9ba223ab930ba34b7b760711b81525081526020016040518060400160405280601281526020017136b0bc2932b8bab2b9ba223ab930ba34b7b760711b8152508152602001604051806040016040528060138152602001727265766965775468726573686f6c644d61726b60681b81525081526020016040518060400160405280601c81526020017b1c995c5d595cdd119a5b985b1a5e985d1a5bdb951a1c995cda1bdb1960221b8152508152602001604051806040016040528060138152602001727265706f72745468726573686f6c644d61726b60681b81525081525090506000604051806101e00160405280600262ffffff168152602001600362ffffff168152602001600162ffffff16815260200161271062ffffff1681526020016103e862ffffff16815260200161138862ffffff16815260200161138862ffffff168152602001620f424062ffffff16815260200162093a8062ffffff1681526020016201518062ffffff1681526020016201518062ffffff16815260200162093a8062ffffff168152602001605062ffffff168152602001603362ffffff168152602001603362ffffff16815250905060005b600f8110156119ec576101018382600f81106118e357634e487b7160e01b600052603260045260246000fd5b60209081029190910151825460018101845560009384529282902081516119139491909101929190910190614e58565b5060016101028483600f811061193957634e487b7160e01b600052603260045260246000fd5b602002015160405161194b919061526b565b908152604051908190036020019020805491151560ff199092169190911790558181600f811061198b57634e487b7160e01b600052603260045260246000fd5b602002015162ffffff166101038483600f81106119b857634e487b7160e01b600052603260045260246000fd5b60200201516040516119ca919061526b565b90815260405190819003602001902055806119e481615ad7565b9150506118b7565b5060fb54611a05906000906001600160a01b031661489f565b60fb54611a2a90600080516020615b45833981519152906001600160a01b031661489f565b60fb54611a4f90600080516020615b85833981519152906001600160a01b031661489f565b60fb54611a7490600080516020615b65833981519152906001600160a01b031661489f565b611a8d600080516020615b4583398151915260006148a9565b611aa6600080516020615b8583398151915260006148a9565b611abf600080516020615b6583398151915260006148a9565b611ac7613280565b306001600160a01b03167ffe839c8a6974808b7d65496708ce79b20d5a9fd573b45c164e6947269e6ad5928587604051611b0292919061534a565b60405180910390a250508015610f86576000805461ff0019169055505050565b611b2d600033611d11565b611b3657600080fd5b61010281604051611b47919061526b565b9081526040519081900360200190205460ff1615611b6457600080fd5b61010180546001810182556000919091528151611ba8917f109ea3cebb188b9c1b9fc5bb3920be60dfdc8699098dff92f3d80daaca74768901906020840190614e58565b50600161010282604051611bbc919061526b565b908152604051908190036020019020805491151560ff1990921691909117905550565b6101108181548110611bf057600080fd5b60009182526020909120600490910201805460018201546002830154600390930154919350919060ff8082169161010090041685565b61010e6020526000908152604090205460ff1681565b60fe546001600160a01b031681565b611c56600033611d11565b611c5f57600080fd5b61114a8183613cc8565b61010b5481565b611c7b600033611d11565b611c8457600080fd5b6000611ca0611c92846148f3565b611c9b846148f3565b61490d565b90508060000151610103604051611cb690615287565b9081526040519081900360200181209190915581517f41fd2c7a1f6fb4a3c251c615d2a2b6424966b97d9ae83a3bdb06fa1d245d0ffa91610e15919061546e565b60fd546001600160a01b031681565b610d55600033611108565b60008281526065602090815260408083206001600160a01b038516845290915290205460ff165b92915050565b60ff546001600160a01b031681565b82336001600160a01b031661010a8281548110611d7a57634e487b7160e01b600052603260045260246000fd5b60009182526020909120600260089092020101546001600160a01b03161480611db65750611db6600080516020615b8583398151915233611d11565b611dd25760405162461bcd60e51b8152600401610bff90615798565b8361010a8181548110611df557634e487b7160e01b600052603260045260246000fd5b906000526020600020906008020160070160029054906101000a900460ff16611e305760405162461bcd60e51b8152600401610bff90615700565b8461010a8181548110611e5357634e487b7160e01b600052603260045260246000fd5b906000526020600020906008020160070160019054906101000a900460ff168015611eb3575061010a8181548110611e9b57634e487b7160e01b600052603260045260246000fd5b600091825260209091206007600890920201015460ff165b611ecf5760405162461bcd60e51b8152600401610bff90615687565b336000818152610114602052604090205461011280548392908110611f0457634e487b7160e01b600052603260045260246000fd5b60009182526020909120600490910201546001600160a01b031614611f3b5760405162461bcd60e51b8152600401610bff90615591565b6001600160a01b0381166000908152610114602052604090205461011280549091908110611f7957634e487b7160e01b600052603260045260246000fd5b600091825260209091206003600490920201015460ff16611fac5760405162461bcd60e51b8152600401610bff90615604565b611fb46113da565b15611fd15760405162461bcd60e51b8152600401610bff9061562d565b600260c9541415611ff45760405162461bcd60e51b8152600401610bff906158e3565b600260c9556001600160a01b0385166000908152610106602052604090205460ff166120325760405162461bcd60e51b8152600401610bff9061576d565b610115868154811061205457634e487b7160e01b600052603260045260246000fd5b600091825260209091206004600590920201015460ff166120875760405162461bcd60e51b8152600401610bff90615566565b61011586815481106120a957634e487b7160e01b600052603260045260246000fd5b9060005260206000209060050201600301543410156120da5760405162461bcd60e51b8152600401610bff9061586b565b610107546120e89034614937565b61010755600087815261010960205260409020546121069034614937565b60008881526101096020526040902055610115805461219e91429161219891908a90811061214457634e487b7160e01b600052603260045260246000fd5b90600052602060002090600502016002015461010a8b8154811061217857634e487b7160e01b600052603260045260246000fd5b90600052602060002090600802016006015461493790919063ffffffff16565b90614937565b61010a88815481106121c057634e487b7160e01b600052603260045260246000fd5b9060005260206000209060080201600601819055504261010a88815481106121f857634e487b7160e01b600052603260045260246000fd5b600091825260209091206004600890920201015560fd5461222690869033906001600160a01b03163461494a565b867fd381797164e18e55c65372a3b02e478a91f0a3fd49dceec6cef1a4dbe037dafe87343360405161225a93929190615980565b60405180910390a25050600160c9555050505050565b61227b600033611d11565b61228457600080fd5b61011083815481106122a657634e487b7160e01b600052603260045260246000fd5b906000526020600020906004020160030160019054906101000a900460ff166122ce57600080fd5b60006122dc611c92846148f3565b80516000868152610104602052604090819020919091558151905191925085917f386ba00bae27fffbdef232f255054d82ec46dad1185bd320180ae69afbec9355916123279161546e565b60405180910390a250505050565b6101046020526000908152604090205481565b610100818154811061235957600080fd5b6000918252602090912001546001600160a01b0316905081565b6101075481565b60fc546001600160a01b031681565b612394600033611d11565b61239d57600080fd5b6123a56113da565b156123c25760405162461bcd60e51b8152600401610bff9061562d565b61011581815481106123e457634e487b7160e01b600052603260045260246000fd5b600091825260209091206004600590920201015460ff1661240457600080fd5b610115818154811061242657634e487b7160e01b600052603260045260246000fd5b60009182526020822060059091020181815560018101829055600281018290556003810191909155600401805460ff1916905560405181907f81fdf7ef99f82082b15127bc99f9e1c28217c3961f36a1fd9605570ae3293cb29061248b903390615313565b60405180910390a250565b61010c602052600090815260409020546001600160a01b031681565b600081565b600080516020615b4583398151915281565b3360008181526101146020526040902054610112805483929081106124fe57634e487b7160e01b600052603260045260246000fd5b60009182526020909120600490910201546001600160a01b0316146125355760405162461bcd60e51b8152600401610bff90615591565b6001600160a01b038116600090815261011460205260409020546101128054909190811061257357634e487b7160e01b600052603260045260246000fd5b600091825260209091206003600490920201015460ff166125a65760405162461bcd60e51b8152600401610bff90615604565b6125ae6113da565b156125cb5760405162461bcd60e51b8152600401610bff9061562d565b61011082815481106125ed57634e487b7160e01b600052603260045260246000fd5b906000526020600020906004020160030160019054906101000a900460ff16801561264d5750610110828154811061263557634e487b7160e01b600052603260045260246000fd5b600091825260209091206003600490920201015460ff165b61265657600080fd5b60fe5460009061266e906001600160a01b03166149a8565b60ff54909150600090612689906001600160a01b03166149a8565b90506000604051806101400160405280846001600160a01b03168152602001836001600160a01b03168152602001336001600160a01b03168152602001428152602001600081526020018681526020016000815260200160001515815260200160001515815260200160011515815250905061010a81908060018154018082558091505060019003906000526020600020906008020160009091909190915060008201518160000160006101000a8154816001600160a01b0302191690836001600160a01b0316021790555060208201518160010160006101000a8154816001600160a01b0302191690836001600160a01b0316021790555060408201518160020160006101000a8154816001600160a01b0302191690836001600160a01b03160217905550606082015181600301556080820151816004015560a0820151816005015560c0820151816006015560e08201518160070160006101000a81548160ff0219169083151502179055506101008201518160070160016101000a81548160ff0219169083151502179055506101208201518160070160026101000a81548160ff02191690831515021790555050503361010c6000856001600160a01b03166001600160a01b0316815260200190815260200160002060006101000a8154816001600160a01b0302191690836001600160a01b0316021790555060006128a2600161010a80549050614a1790919063ffffffff16565b6001600160a01b038516600090815261010d6020526040902081905561011080549192506129039160019190899081106128ec57634e487b7160e01b600052603260045260246000fd5b600091825260209091206004909102015490614937565b610110878154811061292557634e487b7160e01b600052603260045260246000fd5b600091825260209091206004909102015561010b54612945906001614937565b61010b556040516383bcbc4b60e01b81526001600160a01b038516906383bcbc4b9061297b903090879033908790600401615477565b600060405180830381600087803b15801561299557600080fd5b505af11580156129a9573d6000803e3d6000fd5b5050604051630e6a924b60e01b81526001600160a01b0386169250630e6a924b91506129df903090889033908790600401615477565b600060405180830381600087803b1580156129f957600080fd5b505af1158015612a0d573d6000803e3d6000fd5b50503360008181526101146020526040908190205490518594507f3e157814d1e531c32042b37feafffeff662b969a390a716acfee6ea2e8aca1819350612a5b9230928a928a928e91615364565b60405180910390a2505050505050565b80336001600160a01b031661010a8281548110612a9857634e487b7160e01b600052603260045260246000fd5b60009182526020909120600260089092020101546001600160a01b03161480612ad45750612ad4600080516020615b8583398151915233611d11565b612af05760405162461bcd60e51b8152600401610bff90615798565b8161010a8181548110612b1357634e487b7160e01b600052603260045260246000fd5b906000526020600020906008020160070160029054906101000a900460ff16612b4e5760405162461bcd60e51b8152600401610bff90615700565b336000818152610114602052604090205461011280548392908110612b8357634e487b7160e01b600052603260045260246000fd5b60009182526020909120600490910201546001600160a01b031614612bba5760405162461bcd60e51b8152600401610bff90615591565b6001600160a01b0381166000908152610114602052604090205461011280549091908110612bf857634e487b7160e01b600052603260045260246000fd5b600091825260209091206003600490920201015460ff16612c2b5760405162461bcd60e51b8152600401610bff90615604565b612c336113da565b15612c505760405162461bcd60e51b8152600401610bff9061562d565b4261010a8581548110612c7357634e487b7160e01b600052603260045260246000fd5b9060005260206000209060080201600601541015612ca35760405162461bcd60e51b8152600401610bff90615802565b600084815261010e602052604090205460ff1615612cd35760405162461bcd60e51b8152600401610bff90615834565b612d194261010a8681548110612cf957634e487b7160e01b600052603260045260246000fd5b906000526020600020906008020160060154614a1790919063ffffffff16565b600085815261010f602090815260408083209390935561010e9052819020805460ff191660011790555184907fe735270f71e68e0632ce9fd384fde8c2f9cbc490871b2529a728b616f15a10ac90612327903390615313565b612d7d600033611d11565b612d8657600080fd5b61114a8183610f62565b6101056020526000908152604090205460ff1681565b6101165481565b600080516020615b45833981519152612dc68133611d11565b612dcf57600080fd5b612dd76113da565b15612df45760405162461bcd60e51b8152600401610bff9061562d565b6040805160a081018252600080825242602083019081529282018181528515156060840190815260016080850181815261011080548084018255955285517fc992a4f4c614c6258b392474376b00c403ba311ad1b24c06537a7c109387f97760049096029586015595517fc992a4f4c614c6258b392474376b00c403ba311ad1b24c06537a7c109387f97885015591517fc992a4f4c614c6258b392474376b00c403ba311ad1b24c06537a7c109387f979840155517fc992a4f4c614c6258b392474376b00c403ba311ad1b24c06537a7c109387f97a9092018054945160ff199095169215159290921761ff00191661010094151594909402939093179055610111549091612f039190614937565b6101115561011054600090610104908290612f1f906001614a17565b815260208101919091526040016000205561011054612f3f906001614a17565b7f921d47d15ca07451722bd7406f515d5cf98207e8f2dbe8a46b4a047f75d5edb18433604051610d07929190615455565b6101158181548110612f8157600080fd5b6000918252602090912060059091020180546001820154600283015460038401546004909401549294509092909160ff1685565b80336001600160a01b031661010a8281548110612fe257634e487b7160e01b600052603260045260246000fd5b60009182526020909120600260089092020101546001600160a01b0316148061301e575061301e600080516020615b8583398151915233611d11565b61303a5760405162461bcd60e51b8152600401610bff90615798565b8161010a818154811061305d57634e487b7160e01b600052603260045260246000fd5b906000526020600020906008020160070160029054906101000a900460ff166130985760405162461bcd60e51b8152600401610bff90615700565b3360008181526101146020526040902054610112805483929081106130cd57634e487b7160e01b600052603260045260246000fd5b60009182526020909120600490910201546001600160a01b0316146131045760405162461bcd60e51b8152600401610bff90615591565b6001600160a01b038116600090815261011460205260409020546101128054909190811061314257634e487b7160e01b600052603260045260246000fd5b600091825260209091206003600490920201015460ff166131755760405162461bcd60e51b8152600401610bff90615604565b61317d6113da565b1561319a5760405162461bcd60e51b8152600401610bff9061562d565b600084815261010e602052604090205460ff166131b657600080fd5b600084815261010e60209081526040808320805460ff1916905561010f90915290205461010a80546132029291908790811061217857634e487b7160e01b600052603260045260246000fd5b61010a858154811061322457634e487b7160e01b600052603260045260246000fd5b600091825260208083206006600890930201919091019290925585815261010f90915260408082208290555185917fef4abab54f0316fd2f0b59c11acce65c3219e6a75471b51768b7b8ce76a58f2f9161232791903390615969565b6132886113da565b156132a55760405162461bcd60e51b8152600401610bff9061562d565b6040805160a0810182523381524260208201908152600092820183815260608301848152600160808501818152610112805480840182559781905295517fe015f902c527607628f7649074b24d3efd1151f9f546ce1aecf38852c06da883600490980297880180546001600160a01b0319166001600160a01b0390921691909117905593517fe015f902c527607628f7649074b24d3efd1151f9f546ce1aecf38852c06da88487015591517fe015f902c527607628f7649074b24d3efd1151f9f546ce1aecf38852c06da885860155517fe015f902c527607628f7649074b24d3efd1151f9f546ce1aecf38852c06da8869094018054925160ff199093169415159490941761ff0019166101009215159290920291909117909255546133ca91614a17565b3360009081526101146020526040902055610113546133ea906001614937565b61011355610112546133fd906001614a17565b7f785caf8769bd44d265fce8c1a3327e91646fe19be3a87506383b5e95a5c434943360405161342c9190615313565b60405180910390a2565b61010d6020526000908152604090205481565b600080516020615b858339815191526134628133611d11565b61346b57600080fd5b8261010a818154811061348e57634e487b7160e01b600052603260045260246000fd5b906000526020600020906008020160070160029054906101000a900460ff166134c95760405162461bcd60e51b8152600401610bff90615700565b6134d16113da565b156134ee5760405162461bcd60e51b8152600401610bff9061562d565b8261010a858154811061351157634e487b7160e01b600052603260045260246000fd5b906000526020600020906008020160070160016101000a81548160ff0219169083151502179055504261010a858154811061355c57634e487b7160e01b600052603260045260246000fd5b906000526020600020906008020160040181905550837ff6e2b6a9e36d5fd426522b11d2a13c90b3f41f54a9a282959b77755bdf72afe58433604051612327929190615455565b3360008181526101146020526040902054610112805483929081106135d857634e487b7160e01b600052603260045260246000fd5b60009182526020909120600490910201546001600160a01b03161461360f5760405162461bcd60e51b8152600401610bff90615591565b6001600160a01b038116600090815261011460205260409020546101128054909190811061364d57634e487b7160e01b600052603260045260246000fd5b600091825260209091206003600490920201015460ff166136805760405162461bcd60e51b8152600401610bff90615604565b82336001600160a01b031661010a82815481106136ad57634e487b7160e01b600052603260045260246000fd5b60009182526020909120600260089092020101546001600160a01b031614806136e957506136e9600080516020615b8583398151915233611d11565b6137055760405162461bcd60e51b8152600401610bff90615798565b8361010a818154811061372857634e487b7160e01b600052603260045260246000fd5b906000526020600020906008020160070160029054906101000a900460ff166137635760405162461bcd60e51b8152600401610bff90615700565b61376b6113da565b156137885760405162461bcd60e51b8152600401610bff9061562d565b600061010a86815481106137ac57634e487b7160e01b600052603260045260246000fd5b90600052602060002090600802016005015490508481146139865761011085815481106137e957634e487b7160e01b600052603260045260246000fd5b906000526020600020906004020160030160019054906101000a900460ff1661381157600080fd5b8461010a878154811061383457634e487b7160e01b600052603260045260246000fd5b9060005260206000209060080201600501819055506138876001610110838154811061387057634e487b7160e01b600052603260045260246000fd5b600091825260209091206004909102015490614a17565b61011082815481106138a957634e487b7160e01b600052603260045260246000fd5b9060005260206000209060040201600001819055506138e5600161011087815481106128ec57634e487b7160e01b600052603260045260246000fd5b610110868154811061390757634e487b7160e01b600052603260045260246000fd5b9060005260206000209060040201600001819055504261010a878154811061393f57634e487b7160e01b600052603260045260246000fd5b906000526020600020906008020160040181905550857f0fdce0a91a714d5287dc199d496cc0df9fa8a529f5054d5016a96f0adfdc31b18633604051612a5b929190615969565b505050505050565b600080516020615b658339815191526139a78133611d11565b6139b057600080fd5b6139b86113da565b156139d55760405162461bcd60e51b8152600401610bff9061562d565b600061011283815481106139f957634e487b7160e01b600052603260045260246000fd5b906000526020600020906004020190508060030160019054906101000a900460ff16613a2457600080fd5b6101128381548110613a4657634e487b7160e01b600052603260045260246000fd5b60009182526020822060049091020180546001600160a01b0319168155600181018290556002810191909155600301805461ffff1916905560405183907f89703ec90073f7f060a05db721bf6e6bfea7a783e08a7d7e3c50667da7a491f590610d07903390615313565b600080516020615b45833981519152613ac98133611d11565b613ad257600080fd5b613ada6113da565b15613af75760405162461bcd60e51b8152600401610bff9061562d565b6101108381548110613b1957634e487b7160e01b600052603260045260246000fd5b906000526020600020906004020160030160019054906101000a900460ff16613b4157600080fd5b816101108481548110613b6457634e487b7160e01b600052603260045260246000fd5b906000526020600020906004020160030160006101000a81548160ff021916908315150217905550426101108481548110613baf57634e487b7160e01b600052603260045260246000fd5b906000526020600020906004020160020181905550827fda817fca113e65ada0463124f0d540a750811bdaea7124d18bd556916961034d8333604051610d07929190615455565b613c01600033611d11565b613c0a57600080fd5b6001600160a01b0381166000908152610105602052604090205460ff1615613c3157600080fd5b610100805460018082019092557f45e010b9ae401e2eb71529478da8bd513a9bdc2d095a111e324f5b95c09ed87b0180546001600160a01b0319166001600160a01b0384169081179091556000818152610105602052604090819020805460ff191690931790925590517fdffbd9ded1c09446f09377de547142dcce7dc541c8b0b028142b1eba7026b9e79061248b903390615313565b613cd182610ea9565b613cdd81610f7761472b565b610f86838361481a565b336000818152610114602052604090205461011280548392908110613d1c57634e487b7160e01b600052603260045260246000fd5b60009182526020909120600490910201546001600160a01b031614613d535760405162461bcd60e51b8152600401610bff90615591565b6001600160a01b0381166000908152610114602052604090205461011280549091908110613d9157634e487b7160e01b600052603260045260246000fd5b600091825260209091206003600490920201015460ff16613dc45760405162461bcd60e51b8152600401610bff90615604565b82336001600160a01b031661010a8281548110613df157634e487b7160e01b600052603260045260246000fd5b60009182526020909120600260089092020101546001600160a01b03161480613e2d5750613e2d600080516020615b8583398151915233611d11565b613e495760405162461bcd60e51b8152600401610bff90615798565b8361010a8181548110613e6c57634e487b7160e01b600052603260045260246000fd5b906000526020600020906008020160070160029054906101000a900460ff16613ea75760405162461bcd60e51b8152600401610bff90615700565b613eaf6113da565b15613ecc5760405162461bcd60e51b8152600401610bff9061562d565b613ed533614591565b6140e757600561010a8681548110613efd57634e487b7160e01b600052603260045260246000fd5b600091825260209182902060089091020154604080516382fde09360e01b815290516001600160a01b03909216926382fde09392600480840193829003018186803b158015613f4b57600080fd5b505afa158015613f5f573d6000803e3d6000fd5b505050506040513d601f19601f82011682018060405250810190613f83919061518a565b111580156140de575061010a8581548110613fae57634e487b7160e01b600052603260045260246000fd5b60009182526020918290206008909102015460408051636a5c1cc960e11b815290516001600160a01b039092169263d4b8399292600480840193829003018186803b158015613ffc57600080fd5b505afa158015614010573d6000803e3d6000fd5b505050506040513d601f19601f82011682018060405250810190614034919061518a565b61010a868154811061405657634e487b7160e01b600052603260045260246000fd5b6000918252602091829020600890910201546040805163477cd7b960e11b815290516001600160a01b0390921692638ef9af7292600480840193829003018186803b1580156140a457600080fd5b505afa1580156140b8573d6000803e3d6000fd5b505050506040513d601f19601f820116820180604052508101906140dc919061518a565b105b6140e757600080fd5b8361010a868154811061410a57634e487b7160e01b600052603260045260246000fd5b906000526020600020906008020160070160006101000a81548160ff0219169083151502179055504261010a868154811061415557634e487b7160e01b600052603260045260246000fd5b906000526020600020906008020160040181905550847fbe2b83b9aa4aef4d2f6fe3eecaf397185511fd5aef8cd2174636054bcc99318e853360405161419c929190615455565b60405180910390a25050505050565b6141b6600033611d11565b6141bf57600080fd5b6141c76113da565b156141e45760405162461bcd60e51b8152600401610bff9061562d565b6040805160a0810182524281526000602082018181529282018481526060830186815260016080850181815261011580548084018255955294517f77886ee853a0f02c8259429c7bfca08679ca3ab8bdec2c3bd5cca8557e06493a60059095029485015594517f77886ee853a0f02c8259429c7bfca08679ca3ab8bdec2c3bd5cca8557e06493b84015590517f77886ee853a0f02c8259429c7bfca08679ca3ab8bdec2c3bd5cca8557e06493c830155517f77886ee853a0f02c8259429c7bfca08679ca3ab8bdec2c3bd5cca8557e06493d82015590517f77886ee853a0f02c8259429c7bfca08679ca3ab8bdec2c3bd5cca8557e06493e909101805460ff1916911515919091179055610116546142fb91614937565b610116556101155461430e906001614a17565b7fb945bcda8f8d8c82f1c88841e11023489894d49454d6ace5ecae989cc98312eb838333604051610f4f93929190615980565b6101096020526000908152604090205481565b6001600160a01b038216600090815261010d602052604090205461010a80543391908390811061439457634e487b7160e01b600052603260045260246000fd5b60009182526020909120600890910201546001600160a01b0316146143cb5760405162461bcd60e51b8152600401610bff90615539565b6001600160a01b038316600090815261010d602052604090205461010a80548290811061440857634e487b7160e01b600052603260045260246000fd5b906000526020600020906008020160070160019054906101000a900460ff168015614468575061010a818154811061445057634e487b7160e01b600052603260045260246000fd5b600091825260209091206007600890920201015460ff165b6144845760405162461bcd60e51b8152600401610bff90615687565b6001600160a01b038416600090815261010d602052604090205461010a8054829081106144c157634e487b7160e01b600052603260045260246000fd5b906000526020600020906008020160070160029054906101000a900460ff166144fc5760405162461bcd60e51b8152600401610bff90615700565b6001600160a01b038516600090815261010d6020908152604080832054835261010890915290205461452e9085614937565b6001600160a01b038616600090815261010d60209081526040808320548352610108909152902055610107546145649085614937565b610107555050505050565b60fb546001600160a01b031681565b6101146020526000908152604090205481565b6000610ba9600080516020615b8583398151915283611d11565b6145b6600033611d11565b6145bf57600080fd5b610102826040516145d0919061526b565b9081526040519081900360200190205460ff166145ec57600080fd5b80610103836040516145fe919061526b565b9081526020016040518091039020819055507fbc919136a8fb104c2db80a9fd7282bf95ca792ce133a4f35f74ecb683aa945a182826040516146419291906154b4565b60405180910390a15050565b6001600160e01b031981166301ffc9a760e01b14919050565b61466e6113da565b1561468b5760405162461bcd60e51b8152600401610bff9061562d565b6097805460ff191660011790557f62e78cea01bee320cd4e420270b5ea74000d11b0c9f74754ebdbfc544b05a2586146c161472b565b6040516146ce9190615313565b60405180910390a1565b6146e06113da565b6146fc5760405162461bcd60e51b8152600401610bff9061550b565b6097805460ff191690557f5db9ee0a495bf2e6ff9c91a7834c1ba4fdd244a5e8aa4e537bd38aeae4b073aa6146c15b3390565b6147398282611d11565b61114a57614751816001600160a01b03166014614a23565b61475c836020614a23565b60405160200161476d9291906152a4565b60408051601f198184030181529082905262461bcd60e51b8252610bff916004016154a1565b61479d8282611d11565b61114a5760008281526065602090815260408083206001600160a01b03851684529091529020805460ff191660011790556147d661472b565b6001600160a01b0316816001600160a01b0316837f2f8788117e7eff1d82e926ec794901d17c78024a50270940304540a733656f0d60405160405180910390a45050565b6148248282611d11565b1561114a5760008281526065602090815260408083206001600160a01b03851684529091529020805460ff1916905561485b61472b565b6001600160a01b0316816001600160a01b0316837ff6391f5c32d9c69d2a47ea670b442974b53935d1edc7fd64eb21e047a839171b60405160405180910390a45050565b61114a8282614793565b806148b383610ea9565b60405184907fbd79b86ffe0ab8e8776151514217cd7cacd52c909f66475c3af44e129f0b00ff90600090a460009182526065602052604090912060010155565b6148fb614edc565b50604080516020810190915290815290565b614915614edc565b604051806020016040528061492e856000015185614bd4565b90529392505050565b600061494382846159eb565b9392505050565b6149a2846323b872dd60e01b85858560405160240161496b939291906153f4565b60408051601f198184030181529190526020810180516001600160e01b03166001600160e01b031990931692909217909152614bf8565b50505050565b6000604051733d602d80600a3d3981f3363d3d373d3d3d363d7360601b81528260601b60148201526e5af43d82803e903d91602b57fd5bf360881b60288201526037816000f09150506001600160a01b038116610bac5760405162461bcd60e51b8152600401610bff90615657565b60006149438284615a42565b60606000614a32836002615a23565b614a3d9060026159eb565b6001600160401b03811115614a6257634e487b7160e01b600052604160045260246000fd5b6040519080825280601f01601f191660200182016040528015614a8c576020820181803683370190505b509050600360fc1b81600081518110614ab557634e487b7160e01b600052603260045260246000fd5b60200101906001600160f81b031916908160001a905350600f60fb1b81600181518110614af257634e487b7160e01b600052603260045260246000fd5b60200101906001600160f81b031916908160001a9053506000614b16846002615a23565b614b219060016159eb565b90505b6001811115614bb5576f181899199a1a9b1b9c1cb0b131b232b360811b85600f1660108110614b6357634e487b7160e01b600052603260045260246000fd5b1a60f81b828281518110614b8757634e487b7160e01b600052603260045260246000fd5b60200101906001600160f81b031916908160001a90535060049490941c93614bae81615a85565b9050614b24565b5083156149435760405162461bcd60e51b8152600401610bff906154d6565b805160009061494390614bf285676765c793fa10079d601b1b614c87565b90614ccc565b6000614c4d826040518060400160405280602081526020017f5361666545524332303a206c6f772d6c6576656c2063616c6c206661696c6564815250856001600160a01b0316614d0b9092919063ffffffff16565b805190915015610f865780806020019051810190614c6b9190615096565b610f865760405162461bcd60e51b8152600401610bff90615899565b600082614c9657506000611d38565b6000614ca28385615a23565b905082614caf8583615a03565b146149435760405162461bcd60e51b8152600401610bff9061572c565b600061494383836040518060400160405280601a815260200179536166654d6174683a206469766973696f6e206279207a65726f60301b815250614d22565b6060614d1a8484600085614d59565b949350505050565b60008183614d435760405162461bcd60e51b8152600401610bff91906154a1565b506000614d508486615a03565b95945050505050565b606082471015614d7b5760405162461bcd60e51b8152600401610bff906155be565b614d8485614e19565b614da05760405162461bcd60e51b8152600401610bff906157cb565b600080866001600160a01b03168587604051614dbc919061526b565b60006040518083038185875af1925050503d8060008114614df9576040519150601f19603f3d011682016040523d82523d6000602084013e614dfe565b606091505b5091509150614e0e828286614e1f565b979650505050505050565b3b151590565b60608315614e2e575081614943565b825115614e3e5782518084602001fd5b8160405162461bcd60e51b8152600401610bff91906154a1565b828054614e6490615a9c565b90600052602060002090601f016020900481019282614e865760008555614ecc565b82601f10614e9f57805160ff1916838001178555614ecc565b82800160010185558215614ecc579182015b82811115614ecc578251825591602001919060010190614eb1565b50614ed8929150614eef565b5090565b6040518060200160405280600081525090565b5b80821115614ed85760008155600101614ef0565b600082601f830112614f14578081fd5b81356001600160401b0380821115614f2e57614f2e615b08565b604051601f8301601f191681016020018281118282101715614f5257614f52615b08565b604052828152848301602001861015614f69578384fd5b82602086016020830137918201602001929092529392505050565b600060208284031215614f95578081fd5b813561494381615b1e565b60008060408385031215614fb2578081fd5b8235614fbd81615b1e565b91506020830135614fcd81615b1e565b809150509250929050565b600080600060608486031215614fec578081fd5b8335614ff781615b1e565b9250602084013561500781615b1e565b9150604084013561501781615b1e565b809150509250925092565b60008060408385031215615034578182fd5b823561503f81615b1e565b91506020830135614fcd81615b36565b60008060408385031215615061578182fd5b823561506c81615b1e565b946020939093013593505050565b60006020828403121561508b578081fd5b813561494381615b36565b6000602082840312156150a7578081fd5b815161494381615b36565b6000602082840312156150c3578081fd5b5035919050565b600080604083850312156150dc578182fd5b823591506020830135614fcd81615b1e565b6000602082840312156150ff578081fd5b81356001600160e01b031981168114614943578182fd5b600060208284031215615127578081fd5b81356001600160401b0381111561513c578182fd5b614d1a84828501614f04565b6000806040838503121561515a578182fd5b82356001600160401b0381111561516f578283fd5b61517b85828601614f04565b95602094909401359450505050565b60006020828403121561519b578081fd5b5051919050565b600080604083850312156151b4578182fd5b823591506020830135614fcd81615b36565b600080604083850312156151d8578182fd5b50508035926020909101359150565b6000806000606084860312156151fb578081fd5b8335925060208401359150604084013561501781615b1e565b600080600060608486031215615228578081fd5b505081359360208301359350604090920135919050565b60008151808452615257816020860160208601615a59565b601f01601f19169290920160200192915050565b6000825161527d818460208701615a59565b9190910192915050565b703232b330bab63a21b7b6b6b4b9b9b4b7b760791b815260110190565b600076020b1b1b2b9b9a1b7b73a3937b61d1030b1b1b7bab73a1604d1b825283516152d6816017850160208801615a59565b7001034b99036b4b9b9b4b733903937b6329607d1b6017918401918201528351615307816028840160208801615a59565b01602801949350505050565b6001600160a01b0391909116815260200190565b6001600160a01b0393841681529183166020830152909116604082015260600190565b6001600160a01b0392831681529116602082015260400190565b6001600160a01b039687168152948616602086015292851660408501526060840191909152608083015290911660a082015260c00190565b6001600160a01b039a8b168152988a1660208a01529690981660408801526060870194909452608086019290925260a085015260c0840152151560e08301529115156101008201529015156101208201526101400190565b6001600160a01b039384168152919092166020820152604081019190915260600190565b6001600160a01b0395909516855260208501939093526040840191909152151560608301521515608082015260a00190565b901515815260200190565b91151582526001600160a01b0316602082015260400190565b90815260200190565b6001600160a01b039485168152928416602084015292166040820152606081019190915260800190565b600060208252614943602083018461523f565b6000604082526154c7604083018561523f565b90508260208301529392505050565b6020808252818101527f537472696e67733a20686578206c656e67746820696e73756666696369656e74604082015260600190565b60208082526014908201527314185d5cd8589b194e881b9bdd081c185d5cd95960621b604082015260600190565b60208082526013908201527237b7363c9031b0b6b830b4b3b71037bbb732b960691b604082015260600190565b6020808252601190820152701c1858dad859d9481b9bdd08199bdd5b99607a1b604082015260600190565b6020808252601390820152721d5cd95c88191bd95cc81b9bdd08195e1a5cdd606a1b604082015260600190565b60208082526026908201527f416464726573733a20696e73756666696369656e742062616c616e636520666f6040820152651c8818d85b1b60d21b606082015260800190565b6020808252600f908201526e3ab73b32b934b334b2b2103ab9b2b960891b604082015260600190565b60208082526010908201526f14185d5cd8589b194e881c185d5cd95960821b604082015260600190565b602080825260169082015275115490cc4c4d8dce8818dc99585d194819985a5b195960521b604082015260600190565b60208082526011908201527018d85b5c185a59db88191a5cd8589b1959607a1b604082015260600190565b6020808252602e908201527f496e697469616c697a61626c653a20636f6e747261637420697320616c72656160408201526d191e481a5b9a5d1a585b1a5e995960921b606082015260800190565b60208082526012908201527118d85b5c185a59db881b9bdd08199bdd5b9960721b604082015260600190565b60208082526021908201527f536166654d6174683a206d756c7469706c69636174696f6e206f766572666c6f6040820152607760f81b606082015260800190565b6020808252601190820152703234b9b0b8383937bb32b2103a37b5b2b760791b604082015260600190565b60208082526019908201527831b0b6b830b4b3b71037bbb732b91037b91036b0b730b3b2b960391b604082015260600190565b6020808252601d908201527f416464726573733a2063616c6c20746f206e6f6e2d636f6e7472616374000000604082015260600190565b60208082526018908201527718d85b5c185a59db881999585d1d5c9948195e1c1a5c995960421b604082015260600190565b6020808252601f908201527f63616d706169676e206665617475726520616c72656164792070617573656400604082015260600190565b6020808252601490820152731c1c9a58d948195e18d959591cc8185b5bdd5b9d60621b604082015260600190565b6020808252602a908201527f5361666545524332303a204552433230206f7065726174696f6e20646964206e6040820152691bdd081cdd58d8d9595960b21b606082015260800190565b6020808252601f908201527f5265656e7472616e637947756172643a207265656e7472616e742063616c6c00604082015260600190565b6020808252602f908201527f416363657373436f6e74726f6c3a2063616e206f6e6c792072656e6f756e636560408201526e103937b632b9903337b91039b2b63360891b606082015260800190565b9182526001600160a01b0316602082015260400190565b92835260208301919091526001600160a01b0316604082015260600190565b94855260208501939093526040840191909152151560608301521515608082015260a00190565b9485526020850193909352604084019190915260608301521515608082015260a00190565b600082198211156159fe576159fe615af2565b500190565b600082615a1e57634e487b7160e01b81526012600452602481fd5b500490565b6000816000190483118215151615615a3d57615a3d615af2565b500290565b600082821015615a5457615a54615af2565b500390565b60005b83811015615a74578181015183820152602001615a5c565b838111156149a25750506000910152565b600081615a9457615a94615af2565b506000190190565b600281046001821680615ab057607f821691505b60208210811415615ad157634e487b7160e01b600052602260045260246000fd5b50919050565b6000600019821415615aeb57615aeb615af2565b5060010190565b634e487b7160e01b600052601160045260246000fd5b634e487b7160e01b600052604160045260246000fd5b6001600160a01b0381168114615b3357600080fd5b50565b8015158114615b3357600080fdfe2f48ac32db572e9fd979463d8692f03bd4eabb1f84bdfc70f736e3d2676cd74859c43de4b358bfa9c13f4bebb43cf699c69e54d2ce0694b006e9e1ac79c3c487b0d00cdca7af6ed7bd59bdc60d7090a56e20455c0a0ac7451ba6d10780ded9e3a26469706673582212205985f18ddb199ba9170a1b32b080d81cbe50d52d31ad6ddc2a6b00a18f3263b664736f6c63430008000033",
  "immutableReferences": {},
  "source": "// contracts/CampaignFactory.sol\n// SPDX-License-Identifier: UNLICENSED\npragma solidity >=0.4.22 <0.9.0;\n\nimport \"@openzeppelin/contracts-upgradeable/utils/math/SafeMathUpgradeable.sol\";\nimport \"@openzeppelin/contracts-upgradeable/proxy/utils/Initializable.sol\";\nimport \"@openzeppelin/contracts-upgradeable/proxy/ClonesUpgradeable.sol\";\nimport \"@openzeppelin/contracts-upgradeable/token/ERC20/IERC20Upgradeable.sol\";\nimport \"@openzeppelin/contracts-upgradeable/token/ERC20/utils/SafeERC20Upgradeable.sol\";\nimport \"@openzeppelin/contracts-upgradeable/security/PausableUpgradeable.sol\";\nimport \"@openzeppelin/contracts-upgradeable/security/ReentrancyGuardUpgradeable.sol\";\n\nimport \"./Campaign.sol\";\nimport \"./CampaignRewards.sol\";\nimport \"./utils/AccessControl.sol\";\nimport \"./libraries/math/DecimalMath.sol\";\n\ncontract CampaignFactory is\n    Initializable,\n    AccessControl,\n    PausableUpgradeable,\n    ReentrancyGuardUpgradeable\n{\n    using SafeMathUpgradeable for uint256;\n\n    /// @dev default role(s)\n    bytes32 public constant MANAGE_CATEGORIES = keccak256(\"MANAGE CATEGORIES\");\n    bytes32 public constant MANAGE_CAMPAIGNS = keccak256(\"MANAGE CAMPAIGNS\");\n    bytes32 public constant MANAGE_USERS = keccak256(\"MANAGE USERS\");\n    \n    /// @dev `Factory Config Events`\n    event CampaignFactoryCreated(address indexed campaignFactory, address owner, address factoryWallet);\n    event FactoryConfigUpdated(address factoryWallet, address campaignImplementation, address campaignRewardsImplementation);\n    event CategoryCommissionUpdated(uint256 indexed categoryId, uint256 commission);\n    event CampaignDefaultCommissionUpdated(uint256 commission);\n    event CampaignTransactionConfigUpdated(string prop, uint256 value);\n\n    /// @dev `Campaign Events`\n    event CampaignDeployed(\n        uint256 indexed campaignId,\n        address factory,\n        address campaign,\n        address campaignRewards,\n        uint256 userId,\n        uint256 category,\n        address sender\n    );\n    event CampaignApproval(\n        uint256 indexed campaignId,\n        bool approval,\n        address sender\n    );\n    event CampaignActiveToggle(\n        uint256 indexed campaignId,\n        bool active,\n        address sender\n    );\n    event CampaignCategoryChange(\n        uint256 indexed campaignId,\n        uint256 newCategory,\n        address sender\n    );\n    event CampaignFeatured(\n        uint256 indexed campaignId,\n        uint256 featurePackageId,\n        uint256 amount,\n        address sender\n    );\n    event CampaignFeaturePaused(uint256 indexed campaignId, address sender);\n    event CampaignFeatureUnpaused(\n        uint256 indexed campaignId,\n        uint256 timeLeft,\n        address sender\n    );\n\n    /// @dev `Token Events`\n    event TokenAdded(address indexed token, address sender);\n    event TokenApproval(address indexed token, bool state, address sender);\n    event TokenRemoved(uint256 indexed tokenId, address token, address sender);\n\n    /// @dev `User Events`\n    event UserAdded(uint256 indexed userId, address sender);\n    event UserApproval(uint256 indexed userId, bool approval, address sender);\n    event UserRemoved(uint256 indexed userId, address sender);\n\n    /// @dev `Category Events`\n    event CategoryAdded(\n        uint256 indexed categoryId,\n        bool active,\n        address sender\n    );\n    event CategoryModified(\n        uint256 indexed categoryId,\n        bool active,\n        address sender\n    );\n\n    /// @dev `Feature Package Events`\n    event FeaturePackageAdded(\n        uint256 indexed packageId,\n        uint256 cost,\n        uint256 time,\n        address sender\n    );\n    event FeaturePackageModified(\n        uint256 indexed packageId,\n        uint256 cost,\n        uint256 time,\n        address sender\n    );\n    event FeaturePackageDestroyed(uint256 indexed packageId, address sender);\n\n    /// @dev Settings\n    address public root;\n    address public campaignFactoryAddress;\n    address payable public factoryWallet;\n    address public campaignImplementation;\n    address public campaignRewardsImplementation;\n    address[] public tokenList;\n    string[] public campaignTransactionConfigList;\n    mapping(string => bool) public approvedCampaignTransactionConfig;\n    mapping(string => uint256) public campaignTransactionConfig;\n    mapping(uint256 => uint256) public categoryCommission;\n    mapping(address => bool) public tokenInList;\n    mapping(address => bool) public tokensApproved;\n\n    /// @dev Revenue\n    uint256 public factoryRevenue; // total from all activities (campaignRevenueFromCommissions + campaignRevenueFromFeatures)\n    mapping(uint256 => uint256) public campaignRevenueFromCommissions; // revenue from cuts\n    mapping(uint256 => uint256) public campaignRevenueFromFeatures; // revenue from ads\n\n    /// @dev `Campaigns`\n    struct CampaignInfo {\n        address campaign;\n        address campaignRewards;\n        address owner;\n        uint256 createdAt;\n        uint256 updatedAt;\n        uint256 category;\n        uint256 featureFor;\n        bool active;\n        bool approved;\n        bool exists;\n    }\n    CampaignInfo[] public deployedCampaigns;\n    uint256 public campaignCount;\n    mapping(address => address) public campaignToOwner;\n    mapping(address => uint256) public campaignToID;\n    mapping(uint256 => bool) public featuredCampaignIsPaused;\n    mapping(uint256 => uint256) public pausedFeaturedCampaignTimeLeft;\n\n    /// @dev `Categories`\n    struct CampaignCategory {\n        uint256 campaignCount;\n        uint256 createdAt;\n        uint256 updatedAt;\n        bool active;\n        bool exists;\n    }\n    CampaignCategory[] public campaignCategories; // array of campaign categories\n    uint256 public categoryCount;\n\n    /// @dev `Users`\n    struct User {\n        address userAddress;\n        uint256 joined;\n        uint256 updatedAt;\n        bool verified;\n        bool exists;\n    }\n    User[] public users;\n    uint256 public userCount;\n    mapping(address => uint256) public userID;\n\n    /// @dev `Featured`\n    struct Featured {\n        uint256 createdAt;\n        uint256 updatedAt;\n        uint256 time;\n        uint256 cost;\n        bool exists;\n    }\n    Featured[] public featurePackages;\n    uint256 public featurePackageCount;\n\n    /// @dev Ensures caller is campaign owner or campaign manager\n    modifier campaignOwnerOrManager(uint256 _campaignId) {\n        require(\n            deployedCampaigns[_campaignId].owner == msg.sender ||\n                hasRole(MANAGE_CAMPAIGNS, msg.sender),\n            \"campaign owner or manager\"\n        );\n        _;\n    }\n\n    /// @dev Ensures caller is a registered campaign contract from factory\n    modifier onlyRegisteredCampaigns(uint256 _campaignId) {\n        require(\n            deployedCampaigns[_campaignId].campaign == msg.sender,\n            \"only campaign owner\"\n        );\n        _;\n    }\n\n    /// @dev Ensures campaign exists\n    modifier campaignExists(uint256 _campaignId) {\n        require(deployedCampaigns[_campaignId].exists, \"campaign not found\");\n        _;\n    }\n\n    /// @dev Ensures campaign is active and approved\n    modifier campaignIsEnabled(uint256 _id) {\n        require(\n            deployedCampaigns[_id].approved && deployedCampaigns[_id].active,\n            \"campaign disabled\"\n        );\n        _;\n    }\n\n    /// @dev Ensures user is verifed\n    modifier userIsVerified(address _user) {\n        require(\n            users[userID[_user]].userAddress == _user,\n            \"user does not exist\"\n        );\n        require(users[userID[_user]].verified, \"unverified user\");\n        _;\n    }\n\n    /**\n     * @dev        Contructor\n     * @param      _wallet     Address where all revenue gets deposited\n     */\n    function __CampaignFactory_init(address payable _wallet, address _root)\n        public\n        initializer\n    {\n        require(address(_wallet) != address(0));\n        root = _root;\n        factoryWallet = _wallet;\n        campaignFactoryAddress = address(this);\n\n        string[15] memory transactionConfigs = [\n            \"defaultCommission\",\n            \"deadlineStrikesAllowed\",\n            \"minimumContributionAllowed\",\n            \"maximumContributionAllowed\",\n            \"minimumRequestAmountAllowed\",\n            \"maximumRequestAmountAllowed\",\n            \"minimumCampaignTarget\",\n            \"maximumCampaignTarget\",\n            \"maxDeadlineExtension\",\n            \"minDeadlineExtension\",\n            \"minRequestDuration\",\n            \"maxRequestDuration\",\n            \"reviewThresholdMark\",\n            \"requestFinalizationThreshold\",\n            \"reportThresholdMark\"\n        ];\n\n        uint24[15] memory defaultTransactionConfigValues = [\n            2, // defaultCommission\n            3, // deadlineStrikesAllowed\n            1, // minimumContributionAllowed\n            10000, // maximumContributionAllowed\n            1000, // minimumRequestAmountAllowed\n            5000, // maximumRequestAmountAllowed\n            5000, // minimumCampaignTarget\n            1000000, // maximumCampaignTarget\n            604800, // maxDeadlineExtension\n            86400, // minDeadlineExtension\n            86400, // minRequestDuration\n            604800, // maxRequestDuration\n            80, // reviewThresholdMark\n            51, // requestFinalizationThreshold\n            51 // reportThresholdMark\n        ];\n\n        for (uint256 index = 0; index < transactionConfigs.length; index++) {\n            campaignTransactionConfigList.push(transactionConfigs[index]);\n            approvedCampaignTransactionConfig[transactionConfigs[index]] = true;\n            campaignTransactionConfig[\n                transactionConfigs[index]\n            ] = defaultTransactionConfigValues[index];\n        }\n\n        _setupRole(DEFAULT_ADMIN_ROLE, root);\n        _setupRole(MANAGE_CATEGORIES, root);\n        _setupRole(MANAGE_CAMPAIGNS, root);\n        _setupRole(MANAGE_USERS, root);\n\n        _setRoleAdmin(MANAGE_CATEGORIES, DEFAULT_ADMIN_ROLE);\n        _setRoleAdmin(MANAGE_CAMPAIGNS, DEFAULT_ADMIN_ROLE);\n        _setRoleAdmin(MANAGE_USERS, DEFAULT_ADMIN_ROLE);\n\n        // add root as user\n        signUp();\n\n        emit CampaignFactoryCreated(address(this), _root, _wallet);\n    }\n\n    /**\n     * @dev        Set Factory controlled values dictating how campaigns should run\n     * @param      _wallet                          Address where all revenue gets deposited\n     * @param      _campaignImplementation          Address of base contract to deploy minimal proxies to campaigns\n     * @param      _campaignRewardsImplementation   Address of base contract to deploy minimal proxies to campaign rewards\n     */\n    function setFactoryConfig(\n        address payable _wallet,\n        Campaign _campaignImplementation,\n        CampaignRewards _campaignRewardsImplementation\n    ) external onlyAdmin {\n        require(address(_wallet) != address(0));\n        require(address(_campaignImplementation) != address(0));\n        require(address(_campaignRewardsImplementation) != address(0));\n\n        factoryWallet = _wallet;\n        campaignImplementation = address(_campaignImplementation);\n        campaignRewardsImplementation = address(_campaignRewardsImplementation);\n\n        emit FactoryConfigUpdated(_wallet, address(_campaignImplementation), address(_campaignRewardsImplementation));\n    }\n\n    /**\n     * @dev        Adds a new transaction setting\n     * @param      _prop    Setting Key\n     */\n    function addFactoryTransactionConfig(string memory _prop)\n        external\n        onlyAdmin\n    {\n        require(!approvedCampaignTransactionConfig[_prop]);\n        campaignTransactionConfigList.push(_prop);\n        approvedCampaignTransactionConfig[_prop] = true;\n    }\n\n    /**\n     * @dev        Set Factory controlled values dictating how campaign deployments should run\n     * @param      _prop    Setting Key\n     * @param      _value   Setting Value\n     */\n    function setCampaignTransactionConfig(string memory _prop, uint256 _value)\n        external\n        onlyAdmin\n    {\n        require(approvedCampaignTransactionConfig[_prop]);\n        campaignTransactionConfig[_prop] = _value;\n\n        emit CampaignTransactionConfigUpdated(_prop, _value);\n    }\n\n    /**\n     * @dev        Sets default commission on all request finalization\n     * @param      _numerator    Fraction Fee percentage on request finalization\n     * @param      _denominator  Fraction Fee percentage on request finalization\n     */\n    function setDefaultCommission(uint256 _numerator, uint256 _denominator)\n        external\n        onlyAdmin\n    {\n        DecimalMath.UFixed memory _commission = DecimalMath.divd(\n            DecimalMath.toUFixed(_numerator),\n            DecimalMath.toUFixed(_denominator)\n        );\n        campaignTransactionConfig[\"defaultCommission\"] = _commission.value;\n        \n        emit CampaignDefaultCommissionUpdated(_commission.value);\n    }\n\n    /**\n     * @dev        Sets commission per category basis\n     * @param      _categoryId   ID of category\n     * @param      _numerator    Fraction Fee percentage on request finalization in campaign per category `defaultCommission` will be utilized if value is `0`\n     * @param      _denominator  Fraction Fee percentage on request finalization in campaign per category `defaultCommission` will be utilized if value is `0`\n     */\n    function setCategoryCommission(\n        uint256 _categoryId,\n        uint256 _numerator,\n        uint256 _denominator\n    ) external onlyAdmin {\n        require(campaignCategories[_categoryId].exists);\n\n        DecimalMath.UFixed memory _commission = DecimalMath.divd(\n            DecimalMath.toUFixed(_numerator),\n            DecimalMath.toUFixed(_denominator)\n        );\n        categoryCommission[_categoryId] = _commission.value;\n\n        emit CategoryCommissionUpdated(_categoryId, _commission.value);\n    }\n\n    /**\n     * @dev        Adds a token that needs approval before being accepted\n     * @param      _token  Address of the token\n     */\n    function addToken(address _token) external onlyAdmin {\n        require(!tokenInList[_token]);\n\n        tokenList.push(_token);\n        tokenInList[_token] = true;\n\n        emit TokenAdded(_token, msg.sender);\n    }\n\n    /**\n     * @dev        Removes a token from the list of accepted tokens and tokens in list\n     * @param      _tokenId      ID of the token\n     * @param      _token        Address of the token\n     */\n    function removeToken(uint256 _tokenId, address _token) external onlyAdmin {\n        require(tokenInList[_token]);\n\n        tokenInList[_token] = false;\n        tokensApproved[_token] = false;\n        delete tokenList[_tokenId];\n\n        emit TokenRemoved(_tokenId, _token, msg.sender);\n    }\n\n    /**\n     * @dev        Sets if a token is accepted or not provided it's in the list of token\n     * @param      _token   Address of the token\n     * @param      _state   Indicates if the token is approved or not\n     */\n    function toggleAcceptedToken(address _token, bool _state)\n        external\n        onlyAdmin\n    {\n        require(tokenInList[_token]);\n        tokensApproved[_token] = _state;\n\n        emit TokenApproval(_token, _state, msg.sender);\n    }\n\n    /**\n     * @dev        Add an account to the role. Restricted to admins.\n     * @param      _account Address of user being assigned role\n     * @param      _role   Role being assigned\n     */\n    function addRole(address _account, bytes32 _role) public virtual onlyAdmin {\n        grantRole(_role, _account);\n    }\n\n    /**\n     * @dev        Remove an account from the role. Restricted to admins.\n     * @param      _account Address of user whose role is being removed\n     * @param      _role   Role being removed\n     */\n    function removeRole(address _account, bytes32 _role)\n        public\n        virtual\n        onlyAdmin\n    {\n        revokeRole(_role, _account);\n    }\n\n    /// @dev Remove oneself from the admin role.\n    function renounceAdmin() public virtual {\n        renounceRole(DEFAULT_ADMIN_ROLE, msg.sender);\n    }\n\n    /**\n     * @dev        Checks if a user can manage a campaign. Called but not restricted to external campaign proxies\n     * @param      _user    Address of user\n     */\n    function canManageCampaigns(address _user) public view returns (bool) {\n        return hasRole(MANAGE_CAMPAIGNS, _user);\n    }\n\n    /**\n     * @dev        Retrieves campaign commission fees. Restricted to campaign owner.\n     * @param      _amount      Amount transfered and collected by factory from campaign request finalization\n     * @param      _campaign    Address of campaign instance\n     */\n    function receiveCampaignCommission(Campaign _campaign, uint256 _amount)\n        external\n        onlyRegisteredCampaigns(campaignToID[address(_campaign)])\n        campaignIsEnabled(campaignToID[address(_campaign)])\n        campaignExists(campaignToID[address(_campaign)])\n    {\n        campaignRevenueFromCommissions[\n            campaignToID[address(_campaign)]\n        ] = campaignRevenueFromCommissions[campaignToID[address(_campaign)]]\n            .add(_amount);\n        factoryRevenue = factoryRevenue.add(_amount);\n    }\n\n    /// @dev Keep track of user addresses. KYC purpose\n    function signUp() public whenNotPaused {\n        users.push(User(msg.sender, block.timestamp, 0, false, true));\n        userID[msg.sender] = users.length.sub(1);\n        userCount = userCount.add(1);\n\n        emit UserAdded(users.length.sub(1), msg.sender);\n    }\n\n    /**\n     * @dev        Approves or disapproves a user\n     * @param      _userId      ID of the user\n     * @param      _approval    Indicates if the user will be approved or not\n     */\n    function toggleUserApproval(uint256 _userId, bool _approval)\n        external\n        onlyManager(MANAGE_USERS)\n        whenNotPaused\n    {\n        require(users[_userId].exists);\n        users[_userId].verified = _approval;\n        users[_userId].updatedAt = block.timestamp;\n\n        emit UserApproval(_userId, _approval, msg.sender);\n    }\n\n    /**\n     * @dev        Deletes a user\n     * @param      _userId  ID of the user\n     */\n    function destroyUser(uint256 _userId)\n        external\n        onlyManager(MANAGE_USERS)\n        whenNotPaused\n    {\n        User storage user = users[_userId];\n        require(user.exists);\n        delete users[_userId];\n\n        emit UserRemoved(_userId, msg.sender);\n    }\n\n    /**\n     * @dev        Deploys and tracks a new campagign\n     * @param      _categoryId    ID of category campaign deployer specifies\n     */\n    function createCampaign(uint256 _categoryId)\n        external\n        userIsVerified(msg.sender)\n        whenNotPaused\n    {\n        // check `_categoryId` exists and active\n        require(\n            campaignCategories[_categoryId].exists &&\n                campaignCategories[_categoryId].active\n        );\n\n        address campaign = ClonesUpgradeable.clone(campaignImplementation);\n        address campaignRewards = ClonesUpgradeable.clone(\n            campaignRewardsImplementation\n        );\n\n        CampaignInfo memory campaignInfo = CampaignInfo({\n            campaign: campaign,\n            campaignRewards: campaignRewards,\n            category: _categoryId,\n            owner: msg.sender,\n            createdAt: block.timestamp,\n            updatedAt: 0,\n            featureFor: 0,\n            active: false,\n            approved: false,\n            exists: true\n        });\n        deployedCampaigns.push(campaignInfo);\n        campaignToOwner[address(campaign)] = msg.sender; // keep track of campaign owner\n\n        uint256 campaignId = deployedCampaigns.length.sub(1);\n        campaignToID[address(campaign)] = campaignId;\n\n        campaignCategories[_categoryId].campaignCount = campaignCategories[\n            _categoryId\n        ].campaignCount.add(1);\n        campaignCount = campaignCount.add(1);\n\n        Campaign(campaign).__Campaign_init(\n            CampaignFactory(this),\n            CampaignRewards(campaignRewards),\n            msg.sender,\n            campaignId\n        );\n        CampaignRewards(campaignRewards).__CampaignRewards_init(\n            CampaignFactory(this),\n            Campaign(campaign),\n            msg.sender,\n            campaignId\n        );\n\n        emit CampaignDeployed(\n            campaignId,\n            address(this),\n            address(campaign),\n            address(campaignRewards),\n            userID[msg.sender],\n            _categoryId,\n            msg.sender\n        );\n    }\n\n    /**\n     * @dev        Approves or disapproves a campaign. Restricted to campaign managers from factory\n     * @param      _campaignId    ID of the campaign\n     * @param      _approval      Indicates if the campaign will be approved or not. Affects campaign listing and transactions\n     */\n    function toggleCampaignApproval(uint256 _campaignId, bool _approval)\n        external\n        onlyManager(MANAGE_CAMPAIGNS)\n        campaignExists(_campaignId)\n        whenNotPaused\n    {\n        deployedCampaigns[_campaignId].approved = _approval;\n        deployedCampaigns[_campaignId].updatedAt = block.timestamp;\n\n        emit CampaignApproval(_campaignId, _approval, msg.sender);\n    }\n\n    /**\n     * @dev        Temporal campaign deactivation. Restricted to campaign managers or campaign managers from factory\n     * @param      _campaignId    ID of the campaign\n     * @param      _active      Indicates if the campaign will be active or not.  Affects campaign listing and transactions\n     */\n    function toggleCampaignActive(uint256 _campaignId, bool _active)\n        external\n        userIsVerified(msg.sender)\n        campaignOwnerOrManager(_campaignId)\n        campaignExists(_campaignId)\n        whenNotPaused\n    {\n        // if caller is a campaign owner\n        // check campaign has approvers less than or equal to 5\n        // check campaign target isn't met\n        if (!canManageCampaigns(msg.sender))\n            require(\n                Campaign(deployedCampaigns[_campaignId].campaign)\n                    .approversCount() <=\n                    5 &&\n                    Campaign(deployedCampaigns[_campaignId].campaign)\n                        .totalCampaignContribution() <\n                    Campaign(deployedCampaigns[_campaignId].campaign).target()\n            );\n\n        deployedCampaigns[_campaignId].active = _active;\n        deployedCampaigns[_campaignId].updatedAt = block.timestamp;\n\n        emit CampaignActiveToggle(_campaignId, _active, msg.sender);\n    }\n\n    /**\n     * @dev         Modifies a campaign's category.\n     * @param      _campaignId      ID of the campaign\n     * @param      _newCategoryId   ID of the category being switched to\n     */\n    function modifyCampaignCategory(uint256 _campaignId, uint256 _newCategoryId)\n        external\n        userIsVerified(msg.sender)\n        campaignOwnerOrManager(_campaignId)\n        campaignExists(_campaignId)\n        whenNotPaused\n    {\n        uint256 _oldCategoryId = deployedCampaigns[_campaignId].category;\n\n        if (_oldCategoryId != _newCategoryId) {\n            require(campaignCategories[_newCategoryId].exists);\n\n            deployedCampaigns[_campaignId].category = _newCategoryId;\n            campaignCategories[_oldCategoryId]\n                .campaignCount = campaignCategories[_oldCategoryId]\n                .campaignCount\n                .sub(1);\n            campaignCategories[_newCategoryId]\n                .campaignCount = campaignCategories[_newCategoryId]\n                .campaignCount\n                .add(1);\n\n            deployedCampaigns[_campaignId].updatedAt = block.timestamp;\n\n            emit CampaignCategoryChange(\n                _campaignId,\n                _newCategoryId,\n                msg.sender\n            );\n        }\n    }\n\n    /**\n     * @dev        Purchases time for which the specified campaign will be featured. Restricted to\n     * @param      _campaignId    ID of the campaign\n     * @param      _token         Address of token used to purchase feature package\n     */\n    function featureCampaign(\n        uint256 _campaignId,\n        uint256 _featurePackageId,\n        address _token\n    )\n        external\n        payable\n        campaignOwnerOrManager(_campaignId)\n        campaignExists(_campaignId)\n        campaignIsEnabled(_campaignId)\n        userIsVerified(msg.sender)\n        whenNotPaused\n        nonReentrant\n    {\n        require(tokensApproved[_token], \"disapproved token\");\n        require(featurePackages[_featurePackageId].exists, \"package not found\");\n        require(\n            msg.value >= featurePackages[_featurePackageId].cost,\n            \"price exceeds amount\"\n        );\n\n        // update campaign revenue to factory\n        factoryRevenue = factoryRevenue.add(msg.value);\n\n        // update campaign revenue from ads\n        campaignRevenueFromFeatures[_campaignId] = campaignRevenueFromFeatures[\n            _campaignId\n        ].add(msg.value);\n\n        // update featuredFor for time specified in the selected feature package\n        deployedCampaigns[_campaignId].featureFor = deployedCampaigns[\n            _campaignId\n        ].featureFor.add(featurePackages[_featurePackageId].time).add(\n                block.timestamp\n            );\n\n        deployedCampaigns[_campaignId].updatedAt = block.timestamp;\n\n        // transfer funds to factory wallet\n        SafeERC20Upgradeable.safeTransferFrom(\n            IERC20Upgradeable(_token),\n            msg.sender,\n            factoryWallet,\n            msg.value\n        );\n\n        emit CampaignFeatured(\n            _campaignId,\n            _featurePackageId,\n            msg.value,\n            msg.sender\n        );\n    }\n\n    /**\n     * @dev        Pauses campaign feature time storing what's left for later use. Restricted to campaign owner or manager\n     * @param      _campaignId   ID of the campaign\n     */\n    function pauseCampaignFeatured(uint256 _campaignId)\n        external\n        campaignOwnerOrManager(_campaignId)\n        campaignExists(_campaignId)\n        userIsVerified(msg.sender)\n        whenNotPaused\n    {\n        require(\n            deployedCampaigns[_campaignId].featureFor >= block.timestamp,\n            \"campaign feature expired\"\n        ); // check time in campaign feature hasn't expired\n        require(\n            !featuredCampaignIsPaused[_campaignId],\n            \"campaign feature already paused\"\n        ); // make sure campaign feature isn't paused\n\n        // time in campaign currently - current time\n        pausedFeaturedCampaignTimeLeft[_campaignId] = deployedCampaigns[\n            _campaignId\n        ].featureFor.sub(block.timestamp);\n\n        featuredCampaignIsPaused[_campaignId] = true;\n\n        emit CampaignFeaturePaused(_campaignId, msg.sender);\n    }\n\n    /**\n     * @dev        Resumes campaign feature time\n     * @param      _campaignId   ID of the campaign\n     */\n    function unpauseCampaignFeatured(uint256 _campaignId)\n        external\n        campaignOwnerOrManager(_campaignId)\n        campaignExists(_campaignId)\n        userIsVerified(msg.sender)\n        whenNotPaused\n    {\n        require(featuredCampaignIsPaused[_campaignId]); // make sure campaign feature is paused\n\n        featuredCampaignIsPaused[_campaignId] = false;\n\n        deployedCampaigns[_campaignId].featureFor = deployedCampaigns[\n            _campaignId\n        ].featureFor.add(pausedFeaturedCampaignTimeLeft[_campaignId]); // add time left after pause\n\n        // we don't owe you no more\n        pausedFeaturedCampaignTimeLeft[_campaignId] = 0;\n\n        emit CampaignFeatureUnpaused(\n            _campaignId,\n            pausedFeaturedCampaignTimeLeft[_campaignId],\n            msg.sender\n        );\n    }\n\n    /**\n     * @dev        Creates a category\n     * @param      _active   Indicates if a category is active allowing for campaigns to be assigned to it\n     */\n    function createCategory(bool _active)\n        external\n        onlyManager(MANAGE_CATEGORIES)\n        whenNotPaused\n    {\n        // create category with `campaignCount` default to 0\n        CampaignCategory memory newCategory = CampaignCategory({\n            campaignCount: 0,\n            createdAt: block.timestamp,\n            updatedAt: 0,\n            active: _active,\n            exists: true\n        });\n        campaignCategories.push(newCategory);\n\n        categoryCount = categoryCount.add(1);\n\n        categoryCommission[campaignCategories.length.sub(1)] = 0;\n\n        emit CategoryAdded(\n            campaignCategories.length.sub(1),\n            _active,\n            msg.sender\n        );\n    }\n\n    /**\n     * @dev        Modifies details about a category\n     * @param      _categoryId   ID of the category\n     * @param      _active       Indicates if a category is active allowing for campaigns to be assigned to it\n     */\n    function modifyCategory(uint256 _categoryId, bool _active)\n        external\n        onlyManager(MANAGE_CATEGORIES)\n        whenNotPaused\n    {\n        require(campaignCategories[_categoryId].exists);\n\n        campaignCategories[_categoryId].active = _active;\n        campaignCategories[_categoryId].updatedAt = block.timestamp;\n\n        emit CategoryModified(_categoryId, _active, msg.sender);\n    }\n\n    /**\n     * @dev        Creates a feature package purchased by campaig owners to feature their campaigns\n     * @param      _cost        Cost of purchasing this feature package\n     * @param      _time        How long a campaign will be featured for\n     */\n    function createFeaturePackage(uint256 _cost, uint256 _time)\n        external\n        onlyAdmin\n        whenNotPaused\n    {\n        featurePackages.push(Featured(block.timestamp, 0, _time, _cost, true));\n        featurePackageCount = featurePackageCount.add(1);\n\n        emit FeaturePackageAdded(\n            featurePackages.length.sub(1),\n            _cost,\n            _time,\n            msg.sender\n        );\n    }\n\n    /**\n     * @dev        Modifies details about a feature package\n     * @param      _packageId   ID of feature package\n     * @param      _cost        Cost of purchasing this feature package\n     * @param      _time        How long a campaign will be featured for\n     */\n    function modifyFeaturedPackage(\n        uint256 _packageId,\n        uint256 _cost,\n        uint256 _time\n    ) external onlyAdmin whenNotPaused {\n        require(featurePackages[_packageId].exists);\n        featurePackages[_packageId].cost = _cost;\n        featurePackages[_packageId].time = _time;\n        featurePackages[_packageId].updatedAt = block.timestamp;\n\n        emit FeaturePackageModified(_packageId, _cost, _time, msg.sender);\n    }\n\n    /**\n     * @dev        Deletes a feature package\n     * @param      _packageId   ID of feature package\n     */\n    function destroyFeaturedPackage(uint256 _packageId)\n        external\n        onlyAdmin\n        whenNotPaused\n    {\n        require(featurePackages[_packageId].exists);\n\n        delete featurePackages[_packageId];\n\n        emit FeaturePackageDestroyed(_packageId, msg.sender);\n    }\n\n    /// @dev Unpauses the factory, transactions in the factory resumes per usual\n    function unpauseCampaign() external whenPaused onlyAdmin {\n        _unpause();\n    }\n\n    /// @dev Pauses the factory, halts all transactions in the factory\n    function pauseCampaign() external whenNotPaused onlyAdmin {\n        _pause();\n    }\n}\n",
  "sourcePath": "/Users/ngcx/Desktop/Web Dev/DApps/crowdship/crowdship-v1-core/contracts/CampaignFactory.sol",
  "compiler": {
    "name": "solc",
    "version": "0.8.0+commit.c7dfd78e.Emscripten.clang"
  },
  "schemaVersion": "3.4.1",
  "updatedAt": "2021-09-25T22:19:23.978Z",
  "devdoc": {
    "events": {
      "CampaignDeployed(uint256,address,address,address,uint256,uint256,address)": {
        "details": "`Campaign Events`"
      },
      "CampaignFactoryCreated(address,address,address)": {
        "details": "`Factory Config Events`"
      },
      "CategoryAdded(uint256,bool,address)": {
        "details": "`Category Events`"
      },
      "FeaturePackageAdded(uint256,uint256,uint256,address)": {
        "details": "`Feature Package Events`"
      },
      "TokenAdded(address,address)": {
        "details": "`Token Events`"
      },
      "UserAdded(uint256,address)": {
        "details": "`User Events`"
      }
    },
    "kind": "dev",
    "methods": {
      "__CampaignFactory_init(address,address)": {
        "details": "Contructor",
        "params": {
          "_wallet": "Address where all revenue gets deposited"
        }
      },
      "addFactoryTransactionConfig(string)": {
        "details": "Adds a new transaction setting",
        "params": {
          "_prop": "Setting Key"
        }
      },
      "addRole(address,bytes32)": {
        "details": "Add an account to the role. Restricted to admins.",
        "params": {
          "_account": "Address of user being assigned role",
          "_role": "Role being assigned"
        }
      },
      "addToken(address)": {
        "details": "Adds a token that needs approval before being accepted",
        "params": {
          "_token": "Address of the token"
        }
      },
      "canManageCampaigns(address)": {
        "details": "Checks if a user can manage a campaign. Called but not restricted to external campaign proxies",
        "params": {
          "_user": "Address of user"
        }
      },
      "createCampaign(uint256)": {
        "details": "Deploys and tracks a new campagign",
        "params": {
          "_categoryId": "ID of category campaign deployer specifies"
        }
      },
      "createCategory(bool)": {
        "details": "Creates a category",
        "params": {
          "_active": "Indicates if a category is active allowing for campaigns to be assigned to it"
        }
      },
      "createFeaturePackage(uint256,uint256)": {
        "details": "Creates a feature package purchased by campaig owners to feature their campaigns",
        "params": {
          "_cost": "Cost of purchasing this feature package",
          "_time": "How long a campaign will be featured for"
        }
      },
      "destroyFeaturedPackage(uint256)": {
        "details": "Deletes a feature package",
        "params": {
          "_packageId": "ID of feature package"
        }
      },
      "destroyUser(uint256)": {
        "details": "Deletes a user",
        "params": {
          "_userId": "ID of the user"
        }
      },
      "featureCampaign(uint256,uint256,address)": {
        "details": "Purchases time for which the specified campaign will be featured. Restricted to",
        "params": {
          "_campaignId": "ID of the campaign",
          "_token": "Address of token used to purchase feature package"
        }
      },
      "getRoleAdmin(bytes32)": {
        "details": "Returns the admin role that controls `role`. See {grantRole} and {revokeRole}. To change a role's admin, use {_setRoleAdmin}."
      },
      "grantRole(bytes32,address)": {
        "details": "Grants `role` to `account`. If `account` had not been already granted `role`, emits a {RoleGranted} event. Requirements: - the caller must have ``role``'s admin role."
      },
      "hasRole(bytes32,address)": {
        "details": "Returns `true` if `account` has been granted `role`."
      },
      "modifyCampaignCategory(uint256,uint256)": {
        "details": "Modifies a campaign's category.",
        "params": {
          "_campaignId": "ID of the campaign",
          "_newCategoryId": "ID of the category being switched to"
        }
      },
      "modifyCategory(uint256,bool)": {
        "details": "Modifies details about a category",
        "params": {
          "_active": "Indicates if a category is active allowing for campaigns to be assigned to it",
          "_categoryId": "ID of the category"
        }
      },
      "modifyFeaturedPackage(uint256,uint256,uint256)": {
        "details": "Modifies details about a feature package",
        "params": {
          "_cost": "Cost of purchasing this feature package",
          "_packageId": "ID of feature package",
          "_time": "How long a campaign will be featured for"
        }
      },
      "pauseCampaign()": {
        "details": "Pauses the factory, halts all transactions in the factory"
      },
      "pauseCampaignFeatured(uint256)": {
        "details": "Pauses campaign feature time storing what's left for later use. Restricted to campaign owner or manager",
        "params": {
          "_campaignId": "ID of the campaign"
        }
      },
      "paused()": {
        "details": "Returns true if the contract is paused, and false otherwise."
      },
      "receiveCampaignCommission(address,uint256)": {
        "details": "Retrieves campaign commission fees. Restricted to campaign owner.",
        "params": {
          "_amount": "Amount transfered and collected by factory from campaign request finalization",
          "_campaign": "Address of campaign instance"
        }
      },
      "removeRole(address,bytes32)": {
        "details": "Remove an account from the role. Restricted to admins.",
        "params": {
          "_account": "Address of user whose role is being removed",
          "_role": "Role being removed"
        }
      },
      "removeToken(uint256,address)": {
        "details": "Removes a token from the list of accepted tokens and tokens in list",
        "params": {
          "_token": "Address of the token",
          "_tokenId": "ID of the token"
        }
      },
      "renounceAdmin()": {
        "details": "Remove oneself from the admin role."
      },
      "renounceRole(bytes32,address)": {
        "details": "Revokes `role` from the calling account. Roles are often managed via {grantRole} and {revokeRole}: this function's purpose is to provide a mechanism for accounts to lose their privileges if they are compromised (such as when a trusted device is misplaced). If the calling account had been granted `role`, emits a {RoleRevoked} event. Requirements: - the caller must be `account`."
      },
      "revokeRole(bytes32,address)": {
        "details": "Revokes `role` from `account`. If `account` had been granted `role`, emits a {RoleRevoked} event. Requirements: - the caller must have ``role``'s admin role."
      },
      "setCampaignTransactionConfig(string,uint256)": {
        "details": "Set Factory controlled values dictating how campaign deployments should run",
        "params": {
          "_prop": "Setting Key",
          "_value": "Setting Value"
        }
      },
      "setCategoryCommission(uint256,uint256,uint256)": {
        "details": "Sets commission per category basis",
        "params": {
          "_categoryId": "ID of category",
          "_denominator": "Fraction Fee percentage on request finalization in campaign per category `defaultCommission` will be utilized if value is `0`",
          "_numerator": "Fraction Fee percentage on request finalization in campaign per category `defaultCommission` will be utilized if value is `0`"
        }
      },
      "setDefaultCommission(uint256,uint256)": {
        "details": "Sets default commission on all request finalization",
        "params": {
          "_denominator": "Fraction Fee percentage on request finalization",
          "_numerator": "Fraction Fee percentage on request finalization"
        }
      },
      "setFactoryConfig(address,address,address)": {
        "details": "Set Factory controlled values dictating how campaigns should run",
        "params": {
          "_campaignImplementation": "Address of base contract to deploy minimal proxies to campaigns",
          "_campaignRewardsImplementation": "Address of base contract to deploy minimal proxies to campaign rewards",
          "_wallet": "Address where all revenue gets deposited"
        }
      },
      "signUp()": {
        "details": "Keep track of user addresses. KYC purpose"
      },
      "supportsInterface(bytes4)": {
        "details": "See {IERC165-supportsInterface}."
      },
      "toggleAcceptedToken(address,bool)": {
        "details": "Sets if a token is accepted or not provided it's in the list of token",
        "params": {
          "_state": "Indicates if the token is approved or not",
          "_token": "Address of the token"
        }
      },
      "toggleCampaignActive(uint256,bool)": {
        "details": "Temporal campaign deactivation. Restricted to campaign managers or campaign managers from factory",
        "params": {
          "_active": "Indicates if the campaign will be active or not.  Affects campaign listing and transactions",
          "_campaignId": "ID of the campaign"
        }
      },
      "toggleCampaignApproval(uint256,bool)": {
        "details": "Approves or disapproves a campaign. Restricted to campaign managers from factory",
        "params": {
          "_approval": "Indicates if the campaign will be approved or not. Affects campaign listing and transactions",
          "_campaignId": "ID of the campaign"
        }
      },
      "toggleUserApproval(uint256,bool)": {
        "details": "Approves or disapproves a user",
        "params": {
          "_approval": "Indicates if the user will be approved or not",
          "_userId": "ID of the user"
        }
      },
      "unpauseCampaign()": {
        "details": "Unpauses the factory, transactions in the factory resumes per usual"
      },
      "unpauseCampaignFeatured(uint256)": {
        "details": "Resumes campaign feature time",
        "params": {
          "_campaignId": "ID of the campaign"
        }
      }
    },
    "stateVariables": {
      "MANAGE_CATEGORIES": {
        "details": "default role(s)"
      },
      "factoryRevenue": {
        "details": "Revenue"
      },
      "root": {
        "details": "Settings"
      }
    },
    "version": 1
  },
  "userdoc": {
    "kind": "user",
    "methods": {},
    "version": 1
  }
}