{
  "contractName": "Factory",
  "abi": [
    {
      "anonymous": false,
      "inputs": [
        {
          "indexed": true,
          "internalType": "address",
          "name": "campaignFactory",
          "type": "address"
        },
        {
          "indexed": false,
          "internalType": "uint256",
          "name": "campaignIndex",
          "type": "uint256"
        }
      ],
      "name": "CampaignFactoryDeployed",
      "type": "event"
    },
    {
      "inputs": [
        {
          "internalType": "address",
          "name": "_campaignFactoryImplementation",
          "type": "address"
        },
        {
          "internalType": "address payable",
          "name": "_wallet",
          "type": "address"
        }
      ],
      "name": "createCampaignFactory",
      "outputs": [],
      "stateMutability": "nonpayable",
      "type": "function"
    }
  ],
  "bytecode": "0x608060405234801561001057600080fd5b506102d4806100206000396000f3fe608060405234801561001057600080fd5b506004361061002b5760003560e01c8063e797986c14610030575b600080fd5b61004361003e3660046101d7565b610045565b005b600061005083610147565b604051635d4bc7e360e01b81529091506001600160a01b03821690635d4bc7e390610081908590339060040161020f565b600060405180830381600087803b15801561009b57600080fd5b505af11580156100af573d6000803e3d6000fd5b505060408051602080820183526001600160a01b03868116808452600090815291829052929020905181546001600160a01b03191692169190911790555050600180546100fb916101c4565b60018190556040516001600160a01b038316917f115a544469b68c3f482b51505468143fcfc8cd8d906d8c5d2093ed2ae64cbb4d9161013a9190610259565b60405180910390a2505050565b6000604051733d602d80600a3d3981f3363d3d373d3d3d363d7360601b81528260601b60148201526e5af43d82803e903d91602b57fd5bf360881b60288201526037816000f09150506001600160a01b0381166101bf5760405162461bcd60e51b81526004016101b690610229565b60405180910390fd5b919050565b60006101d08284610262565b9392505050565b600080604083850312156101e9578182fd5b82356101f481610286565b9150602083013561020481610286565b809150509250929050565b6001600160a01b0392831681529116602082015260400190565b602080825260169082015275115490cc4c4d8dce8818dc99585d194819985a5b195960521b604082015260600190565b90815260200190565b6000821982111561028157634e487b7160e01b81526011600452602481fd5b500190565b6001600160a01b038116811461029b57600080fd5b5056fea2646970667358221220d4e1dd738e57dc12bb1a1bb6db6f14fcae8ed5479a7706ba1a066ec0ab6036f864736f6c63430008000033",
  "immutableReferences": {},
  "source": "// contracts/Factory.sol\n// SPDX-License-Identifier: UNLICENSED\npragma solidity >=0.4.22 <0.9.0;\n\nimport \"@openzeppelin/contracts-upgradeable/utils/math/SafeMathUpgradeable.sol\";\nimport \"@openzeppelin/contracts-upgradeable/proxy/ClonesUpgradeable.sol\";\n\nimport \"./CampaignFactory.sol\";\n\ncontract Factory {\n  using SafeMathUpgradeable for uint256;\n\n  event CampaignFactoryDeployed(address indexed campaignFactory, uint256 campaignIndex);\n\n  struct DeployedCampaignFactory {\n    address factory;\n  }\n  mapping(address => DeployedCampaignFactory) deployedCampaigns;\n  uint deployedCampaignCount;\n\n  function createCampaignFactory(address _campaignFactoryImplementation, address payable _wallet) public {\n    address campaignFactory = ClonesUpgradeable.clone(_campaignFactoryImplementation);\n    CampaignFactory(campaignFactory).__CampaignFactory_init(\n        _wallet,\n        msg.sender\n    );\n    deployedCampaigns[campaignFactory] = DeployedCampaignFactory({\n      factory: campaignFactory\n    });\n\n    deployedCampaignCount = deployedCampaignCount.add(1);\n\n    emit CampaignFactoryDeployed(campaignFactory, deployedCampaignCount);\n  }\n}",
  "sourcePath": "/Users/ngcx/Desktop/Web Dev/DApps/crowdship/crowdship-v1-core/contracts/Factory.sol",
  "compiler": {
    "name": "solc",
    "version": "0.8.0+commit.c7dfd78e.Emscripten.clang"
  },
  "schemaVersion": "3.4.1",
  "updatedAt": "2021-09-25T22:19:24.125Z",
  "devdoc": {
    "kind": "dev",
    "methods": {},
    "version": 1
  },
  "userdoc": {
    "kind": "user",
    "methods": {},
    "version": 1
  }
}